{
  "contracts/AjoCircle.sol": {
    "AjoCircle": {
      "abi": [
        {
          "inputs": [
            {
              "internalType": "address",
              "name": "_usdc",
              "type": "address"
            },
            {
              "internalType": "address",
              "name": "_router",
              "type": "address"
            },
            {
              "internalType": "address",
              "name": "_weth",
              "type": "address"
            }
          ],
          "stateMutability": "nonpayable",
          "type": "constructor"
        },
        {
          "anonymous": false,
          "inputs": [
            {
              "indexed": true,
              "internalType": "uint256",
              "name": "circleId",
              "type": "uint256"
            }
          ],
          "name": "CircleActivated",
          "type": "event"
        },
        {
          "anonymous": false,
          "inputs": [
            {
              "indexed": true,
              "internalType": "uint256",
              "name": "circleId",
              "type": "uint256"
            }
          ],
          "name": "CircleCompleted",
          "type": "event"
        },
        {
          "anonymous": false,
          "inputs": [
            {
              "indexed": true,
              "internalType": "uint256",
              "name": "circleId",
              "type": "uint256"
            },
            {
              "indexed": true,
              "internalType": "address",
              "name": "creator",
              "type": "address"
            },
            {
              "indexed": false,
              "internalType": "string",
              "name": "name",
              "type": "string"
            }
          ],
          "name": "CircleCreated",
          "type": "event"
        },
        {
          "anonymous": false,
          "inputs": [
            {
              "indexed": true,
              "internalType": "uint256",
              "name": "circleId",
              "type": "uint256"
            },
            {
              "indexed": true,
              "internalType": "address",
              "name": "member",
              "type": "address"
            },
            {
              "indexed": false,
              "internalType": "uint256",
              "name": "usdcAmount",
              "type": "uint256"
            },
            {
              "indexed": false,
              "internalType": "uint256",
              "name": "round",
              "type": "uint256"
            }
          ],
          "name": "ContributionMade",
          "type": "event"
        },
        {
          "anonymous": false,
          "inputs": [
            {
              "indexed": true,
              "internalType": "uint256",
              "name": "circleId",
              "type": "uint256"
            },
            {
              "indexed": true,
              "internalType": "address",
              "name": "member",
              "type": "address"
            }
          ],
          "name": "MemberJoined",
          "type": "event"
        },
        {
          "anonymous": false,
          "inputs": [
            {
              "indexed": true,
              "internalType": "uint256",
              "name": "circleId",
              "type": "uint256"
            },
            {
              "indexed": true,
              "internalType": "address",
              "name": "recipient",
              "type": "address"
            },
            {
              "indexed": false,
              "internalType": "uint256",
              "name": "amount",
              "type": "uint256"
            },
            {
              "indexed": false,
              "internalType": "uint256",
              "name": "round",
              "type": "uint256"
            }
          ],
          "name": "PayoutReleased",
          "type": "event"
        },
        {
          "inputs": [],
          "name": "UNISWAP_ROUTER",
          "outputs": [
            {
              "internalType": "address",
              "name": "",
              "type": "address"
            }
          ],
          "stateMutability": "view",
          "type": "function"
        },
        {
          "inputs": [],
          "name": "USDC",
          "outputs": [
            {
              "internalType": "address",
              "name": "",
              "type": "address"
            }
          ],
          "stateMutability": "view",
          "type": "function"
        },
        {
          "inputs": [],
          "name": "WETH",
          "outputs": [
            {
              "internalType": "address",
              "name": "",
              "type": "address"
            }
          ],
          "stateMutability": "view",
          "type": "function"
        },
        {
          "inputs": [],
          "name": "circleCount",
          "outputs": [
            {
              "internalType": "uint256",
              "name": "",
              "type": "uint256"
            }
          ],
          "stateMutability": "view",
          "type": "function"
        },
        {
          "inputs": [
            {
              "internalType": "uint256",
              "name": "",
              "type": "uint256"
            }
          ],
          "name": "circles",
          "outputs": [
            {
              "internalType": "string",
              "name": "name",
              "type": "string"
            },
            {
              "internalType": "uint256",
              "name": "maxMembers",
              "type": "uint256"
            },
            {
              "internalType": "uint256",
              "name": "contributionAmount",
              "type": "uint256"
            },
            {
              "internalType": "uint256",
              "name": "currentRound",
              "type": "uint256"
            },
            {
              "internalType": "uint256",
              "name": "totalRounds",
              "type": "uint256"
            },
            {
              "internalType": "uint256",
              "name": "poolBalance",
              "type": "uint256"
            },
            {
              "internalType": "uint256",
              "name": "nextPayoutTimestamp",
              "type": "uint256"
            },
            {
              "internalType": "uint256",
              "name": "frequency",
              "type": "uint256"
            },
            {
              "internalType": "enum AjoCircle.CircleStatus",
              "name": "status",
              "type": "uint8"
            },
            {
              "internalType": "bool",
              "name": "payoutPending",
              "type": "bool"
            },
            {
              "internalType": "uint256",
              "name": "paidCount",
              "type": "uint256"
            }
          ],
          "stateMutability": "view",
          "type": "function"
        },
        {
          "inputs": [
            {
              "internalType": "uint256",
              "name": "circleId",
              "type": "uint256"
            },
            {
              "internalType": "address",
              "name": "tokenOut",
              "type": "address"
            },
            {
              "internalType": "uint256",
              "name": "amountOutMinimum",
              "type": "uint256"
            },
            {
              "internalType": "uint24",
              "name": "poolFee",
              "type": "uint24"
            }
          ],
          "name": "claimPayout",
          "outputs": [],
          "stateMutability": "nonpayable",
          "type": "function"
        },
        {
          "inputs": [
            {
              "internalType": "uint256",
              "name": "circleId",
              "type": "uint256"
            },
            {
              "internalType": "address",
              "name": "tokenIn",
              "type": "address"
            },
            {
              "internalType": "uint256",
              "name": "amountIn",
              "type": "uint256"
            },
            {
              "internalType": "uint256",
              "name": "amountOutMinimum",
              "type": "uint256"
            },
            {
              "internalType": "uint24",
              "name": "poolFee",
              "type": "uint24"
            }
          ],
          "name": "contribute",
          "outputs": [],
          "stateMutability": "payable",
          "type": "function"
        },
        {
          "inputs": [
            {
              "internalType": "string",
              "name": "name",
              "type": "string"
            },
            {
              "internalType": "uint256",
              "name": "maxMembers",
              "type": "uint256"
            },
            {
              "internalType": "uint256",
              "name": "contributionAmountUSDC",
              "type": "uint256"
            },
            {
              "internalType": "uint256",
              "name": "frequencyInSeconds",
              "type": "uint256"
            }
          ],
          "name": "createCircle",
          "outputs": [
            {
              "internalType": "uint256",
              "name": "circleId",
              "type": "uint256"
            }
          ],
          "stateMutability": "nonpayable",
          "type": "function"
        },
        {
          "inputs": [
            {
              "internalType": "uint256",
              "name": "circleId",
              "type": "uint256"
            }
          ],
          "name": "getCircleInfo",
          "outputs": [
            {
              "internalType": "string",
              "name": "name",
              "type": "string"
            },
            {
              "internalType": "uint256",
              "name": "maxMembers",
              "type": "uint256"
            },
            {
              "internalType": "uint256",
              "name": "contributionAmount",
              "type": "uint256"
            },
            {
              "internalType": "uint256",
              "name": "currentRound",
              "type": "uint256"
            },
            {
              "internalType": "uint256",
              "name": "totalRounds",
              "type": "uint256"
            },
            {
              "internalType": "uint256",
              "name": "poolBalance",
              "type": "uint256"
            },
            {
              "internalType": "uint256",
              "name": "nextPayoutTimestamp",
              "type": "uint256"
            },
            {
              "internalType": "uint256",
              "name": "frequency",
              "type": "uint256"
            },
            {
              "internalType": "enum AjoCircle.CircleStatus",
              "name": "status",
              "type": "uint8"
            },
            {
              "internalType": "bool",
              "name": "payoutPending",
              "type": "bool"
            },
            {
              "internalType": "uint256",
              "name": "paidCount",
              "type": "uint256"
            }
          ],
          "stateMutability": "view",
          "type": "function"
        },
        {
          "inputs": [
            {
              "internalType": "uint256",
              "name": "circleId",
              "type": "uint256"
            }
          ],
          "name": "getCurrentRecipient",
          "outputs": [
            {
              "internalType": "address",
              "name": "",
              "type": "address"
            }
          ],
          "stateMutability": "view",
          "type": "function"
        },
        {
          "inputs": [
            {
              "internalType": "uint256",
              "name": "circleId",
              "type": "uint256"
            }
          ],
          "name": "getMemberCount",
          "outputs": [
            {
              "internalType": "uint256",
              "name": "",
              "type": "uint256"
            }
          ],
          "stateMutability": "view",
          "type": "function"
        },
        {
          "inputs": [
            {
              "internalType": "uint256",
              "name": "circleId",
              "type": "uint256"
            },
            {
              "internalType": "address",
              "name": "member",
              "type": "address"
            }
          ],
          "name": "getMemberPosition",
          "outputs": [
            {
              "internalType": "uint256",
              "name": "",
              "type": "uint256"
            }
          ],
          "stateMutability": "view",
          "type": "function"
        },
        {
          "inputs": [
            {
              "internalType": "uint256",
              "name": "circleId",
              "type": "uint256"
            }
          ],
          "name": "getMembers",
          "outputs": [
            {
              "internalType": "address[]",
              "name": "",
              "type": "address[]"
            }
          ],
          "stateMutability": "view",
          "type": "function"
        },
        {
          "inputs": [
            {
              "internalType": "address",
              "name": "user",
              "type": "address"
            }
          ],
          "name": "getUserCircles",
          "outputs": [
            {
              "internalType": "uint256[]",
              "name": "",
              "type": "uint256[]"
            }
          ],
          "stateMutability": "view",
          "type": "function"
        },
        {
          "inputs": [
            {
              "internalType": "uint256",
              "name": "circleId",
              "type": "uint256"
            },
            {
              "internalType": "address",
              "name": "member",
              "type": "address"
            }
          ],
          "name": "hasPaid",
          "outputs": [
            {
              "internalType": "bool",
              "name": "",
              "type": "bool"
            }
          ],
          "stateMutability": "view",
          "type": "function"
        },
        {
          "inputs": [
            {
              "internalType": "uint256",
              "name": "circleId",
              "type": "uint256"
            }
          ],
          "name": "joinCircle",
          "outputs": [],
          "stateMutability": "nonpayable",
          "type": "function"
        },
        {
          "inputs": [],
          "name": "owner",
          "outputs": [
            {
              "internalType": "address",
              "name": "",
              "type": "address"
            }
          ],
          "stateMutability": "view",
          "type": "function"
        },
        {
          "inputs": [],
          "name": "rescueETH",
          "outputs": [],
          "stateMutability": "nonpayable",
          "type": "function"
        },
        {
          "stateMutability": "payable",
          "type": "receive"
        }
      ],
      "evm": {
        "bytecode": {
          "linkReferences": {},
          "object": "61010060405234801561001157600080fd5b5060405161279d38038061279d833981016040819052610030916100d1565b60016000556001600160a01b0383161580159061005557506001600160a01b03821615155b6100945760405162461bcd60e51b815260206004820152600c60248201526b5a65726f206164647265737360a01b604482015260640160405180910390fd5b6001600160a01b0392831660805290821660a0521660c0523360e052610114565b80516001600160a01b03811681146100cc57600080fd5b919050565b6000806000606084860312156100e657600080fd5b6100ef846100b5565b92506100fd602085016100b5565b915061010b604085016100b5565b90509250925092565b60805160a05160c05160e0516125cb6101d26000396000818161021f0152818161043b01526104d40152600081816102730152818161149f0152818161198e0152611b5001526000818161037401528181611546015281816115ed015281816116a7015281816119e70152611aa50152600081816101d301528181610ebd01528181611393015281816113cf015281816114ce0152818161162f0152818161190d01528181611949015281816119c60152611a1c01526125cb6000f3fe60806040526004361061010d5760003560e01c8063bc5e0f3011610095578063d0acdd8e11610064578063d0acdd8e1461034f578063d826492014610362578063d8bc7fff14610396578063da5f5cff146103f0578063fb479fb01461041057600080fd5b8063bc5e0f30146102b5578063c477ecab146102ec578063cf0b111714610319578063d02fa0841461032f57600080fd5b806389a30271116100dc57806389a30271146101c15780638da5cb5b1461020d5780639d07fd1314610241578063ad5c464814610261578063b74668351461029557600080fd5b806320800a00146101195780635ce9284f1461013057806386d6cfb31461017457806388e81d8a1461019457600080fd5b3661011457005b600080fd5b34801561012557600080fd5b5061012e610430565b005b34801561013c57600080fd5b5061016161014b366004611f5c565b6000908152600160208190526040909120015490565b6040519081526020015b60405180910390f35b34801561018057600080fd5b5061012e61018f366004611f5c565b61058b565b3480156101a057600080fd5b506101b46101af366004611f91565b610773565b60405161016b9190611fb3565b3480156101cd57600080fd5b506101f57f000000000000000000000000000000000000000000000000000000000000000081565b6040516001600160a01b03909116815260200161016b565b34801561021957600080fd5b506101f57f000000000000000000000000000000000000000000000000000000000000000081565b34801561024d57600080fd5b506101f561025c366004611f5c565b6107df565b34801561026d57600080fd5b506101f57f000000000000000000000000000000000000000000000000000000000000000081565b3480156102a157600080fd5b506101616102b036600461200c565b610873565b3480156102c157600080fd5b506102d56102d0366004611f5c565b610a98565b60405161016b9b9a9998979695949392919061213f565b3480156102f857600080fd5b5061030c610307366004611f5c565b610b7e565b60405161016b91906121cb565b34801561032557600080fd5b5061016160025481565b34801561033b57600080fd5b5061016161034a36600461220c565b610bec565b61012e61035d36600461224b565b610c19565b34801561036e57600080fd5b506101f57f000000000000000000000000000000000000000000000000000000000000000081565b3480156103a257600080fd5b506103e06103b136600461220c565b60008281526001602090815260408083206001600160a01b0385168452600b0190915290205460ff1692915050565b604051901515815260200161016b565b3480156103fc57600080fd5b506102d561040b366004611f5c565b610fa0565b34801561041c57600080fd5b5061012e61042b36600461229b565b6110b5565b336001600160a01b037f000000000000000000000000000000000000000000000000000000000000000016146104995760405162461bcd60e51b81526020600482015260096024820152682737ba1037bbb732b960b91b60448201526064015b60405180910390fd5b47806104d05760405162461bcd60e51b815260206004820152600660248201526509cde408aa8960d31b6044820152606401610490565b60007f00000000000000000000000000000000000000000000000000000000000000006001600160a01b03168260405160006040518083038185875af1925050503d806000811461053d576040519150601f19603f3d011682016040523d82523d6000602084013e610542565b606091505b50509050806105875760405162461bcd60e51b8152602060048201526011602482015270115512081c995cd8dd594819985a5b1959607a1b6044820152606401610490565b5050565b60008181526001602081905260409091206002810154918101549091116105e55760405162461bcd60e51b815260206004820152600e60248201526d10da5c98db19481a5cc8199d5b1b60921b6044820152606401610490565b6000600982015460ff16600281111561060057610600612129565b1461063e5760405162461bcd60e51b815260206004820152600e60248201526d4e6f742072656372756974696e6760901b6044820152606401610490565b336000908152600c82016020526040902054156106905760405162461bcd60e51b815260206004820152601060248201526f20b63932b0b23c90309036b2b6b132b960811b6044820152606401610490565b6001808201805480830182556000828152602080822090920180546001600160a01b031916339081179091559254838252600c860183526040808320919091556004835280822080549586018155825291812090930185905551909184917f78da64a590c3052953ad9e0a5546bbf12bb68ae7634e3fb2a774e22a8c6557c19190a360028101546001820154036105875760098101805460ff19166001179055600881015461073f90426122f7565b600782015560405182907faa8b7289f77c0a8b226248e26401151f4903884ab85ba3decb12926f4c7c3acc90600090a25050565b6001600160a01b0381166000908152600460209081526040918290208054835181840281018401909452808452606093928301828280156107d357602002820191906000526020600020905b8154815260200190600101908083116107bf575b50505050509050919050565b60008181526001602052604081206009810154610100900460ff16158061080857506004810154155b156108165750600092915050565b600060018260040154610829919061230a565b60018301549091508110610841575060009392505050565b8160010181815481106108565761085661231d565b6000918252602090912001546001600160a01b0316949350505050565b6000808551116108b25760405162461bcd60e51b815260206004820152600a602482015269456d707479206e616d6560b01b6044820152606401610490565b600284101580156108c4575060328411155b6109005760405162461bcd60e51b815260206004820152600d60248201526c04d656d626572733a20322d353609c1b6044820152606401610490565b600083116109445760405162461bcd60e51b81526020600482015260116024820152702d32b9379031b7b73a3934b13aba34b7b760791b6044820152606401610490565b600082116109855760405162461bcd60e51b815260206004820152600e60248201526d5a65726f206672657175656e637960901b6044820152606401610490565b61098d6112b4565b6000818152600160205260409020909150806109a987826123b4565b506002810185905560038101849055600581018590556008810183905560098101805460ff191690556001808201805480830182556000918252602080832090910180546001600160a01b03191633908117909155808352600c8501825260408084208590556004835280842080549586018155845291909220909201849055905183907f6f657d36deb3b1aa2e949c5df40eac9d79359a73c2402cefa7aee870f9ceafc090610a5a908a90612473565b60405180910390a3604051339083907f78da64a590c3052953ad9e0a5546bbf12bb68ae7634e3fb2a774e22a8c6557c190600090a350949350505050565b600160205260009081526040902080548190610ab390612333565b80601f0160208091040260200160405190810160405280929190818152602001828054610adf90612333565b8015610b2c5780601f10610b0157610100808354040283529160200191610b2c565b820191906000526020600020905b815481529060010190602001808311610b0f57829003601f168201915b50505060028401546003850154600486015460058701546006880154600789015460088a015460098b0154600a909b0154999a96999598509396509194909391929160ff80831692610100900416908b565b6000818152600160208181526040928390209091018054835181840281018401909452808452606093928301828280156107d357602002820191906000526020600020905b81546001600160a01b03168152600190910190602001808311610bc35750505050509050919050565b60008281526001602090815260408083206001600160a01b0385168452600c019091529020545b92915050565b600260005403610c6b5760405162461bcd60e51b815260206004820152601f60248201527f5265656e7472616e637947756172643a207265656e7472616e742063616c6c006044820152606401610490565b60026000556001600160a01b03841615610ccd573415610ccd5760405162461bcd60e51b815260206004820152601f60248201527f455448206e6f7420616363657074656420666f722045524332302070617468006044820152606401610490565b600085815260016020819052604090912090600982015460ff166002811115610cf857610cf8612129565b14610d395760405162461bcd60e51b8152602060048201526011602482015270436972636c65206e6f742061637469766560781b6044820152606401610490565b6009810154610100900460ff1615610d8b5760405162461bcd60e51b81526020600482015260156024820152744177616974696e67207061796f757420636c61696d60581b6044820152606401610490565b336000908152600c82016020526040902054610dd85760405162461bcd60e51b815260206004820152600c60248201526b2737ba10309036b2b6b132b960a11b6044820152606401610490565b336000908152600b8201602052604090205460ff1615610e3a5760405162461bcd60e51b815260206004820152601e60248201527f416c726561647920636f6e7472696275746564207468697320726f756e6400006044820152606401610490565b6000610e488686868661138f565b90508160030154811015610e9e5760405162461bcd60e51b815260206004820152601c60248201527f496e73756666696369656e7420555344432061667465722073776170000000006044820152606401610490565b6000826003015482610eb0919061230a565b90508015610ee357610ee37f00000000000000000000000000000000000000000000000000000000000000003383611741565b336000908152600b840160205260408120805460ff19166001179055600a8401805491610f0f83612486565b91905055508260030154836006016000828254610f2c91906122f7565b90915550506003830154600484015460408051928352602083019190915233918a917ff9b7589b7a8d939b9da5dae90770378fe5fd7802be5d66432e85bedbdbfbcb7a910160405180910390a3826002015483600a015403610f9157610f918861184e565b50506001600055505050505050565b600081815260016020526040812060028101546003820154600483015460058401546006850154600786015460088701546009880154600a890154895460609b9a8b9a8b9a8b9a8b9a8b9a8b9a8b9a8b9a8b9a98998a9960ff80841693610100900416918b9061100f90612333565b80601f016020809104026020016040519081016040528092919081815260200182805461103b90612333565b80156110885780601f1061105d57610100808354040283529160200191611088565b820191906000526020600020905b81548152906001019060200180831161106b57829003601f168201915b50505050509a509b509b509b509b509b509b509b509b509b509b509b505091939597999b90929496989a50565b6002600054036111075760405162461bcd60e51b815260206004820152601f60248201527f5265656e7472616e637947756172643a207265656e7472616e742063616c6c006044820152606401610490565b600260009081558481526001602052604090206009810154610100900460ff166111675760405162461bcd60e51b81526020600482015260116024820152704e6f207061796f75742070656e64696e6760781b6044820152606401610490565b60006001826004015461117a919061230a565b905060008260010182815481106111935761119361231d565b6000918252602090912001546001600160a01b031690503381146111f15760405162461bcd60e51b8152602060048201526015602482015274139bdd0818dd5c9c995b9d081c9958da5c1a595b9d605a1b6044820152606401610490565b600683018054600090915560098401805461ff001916905560408051828152602081018590526001600160a01b038416918a917f5fee043a0db2f303c5be0b8f554d0f9e91efc1e74fe501166969ffc487e3b25b910160405180910390a361125c878288888661190b565b8360050154846004015403610f915760098401805460ff1916600217905560405188907ffccd3901546cfbb42742cac2c7335bce34f1f8d9844f4f4b53640f79e310108790600090a250506001600055505050505050565b6000620dbba04433600260008154809291906112cf90612486565b919050556040516020016113089392919092835260609190911b6bffffffffffffffffffffffff19166020830152603482015260540190565b6040516020818303038152906040528051906020012060001c61132b919061249f565b61133890620186a06122f7565b90505b60008181526003602052604090205460ff16156113735761135f620f423f8261249f565b61136c90620186a06122f7565b905061133b565b6000818152600360205260409020805460ff1916600117905590565b60007f00000000000000000000000000000000000000000000000000000000000000006001600160a01b0316856001600160a01b0316036113fd576113f67f0000000000000000000000000000000000000000000000000000000000000000333087611c5b565b5082611739565b6040805161010081018252600080825260208201819052918101829052606081018290526080810182905260a0810182905260c0810182905260e08101919091526001600160a01b0386166115db578434146114915760405162461bcd60e51b815260206004820152601360248201527208aa89040c2dadeeadce840dad2e6dac2e8c6d606b1b6044820152606401610490565b6040518061010001604052807f00000000000000000000000000000000000000000000000000000000000000006001600160a01b031681526020017f00000000000000000000000000000000000000000000000000000000000000006001600160a01b031681526020018462ffffff168152602001306001600160a01b031681526020014261038461152391906122f7565b815260200186815260200185815260200160006001600160a01b031681525090507f00000000000000000000000000000000000000000000000000000000000000006001600160a01b031663414bf38986836040518363ffffffff1660e01b815260040161159191906124c1565b60206040518083038185885af11580156115af573d6000803e3d6000fd5b50505050506040513d601f19601f820116820180604052508101906115d4919061253e565b9150611737565b6115e786333088611c5b565b611612867f000000000000000000000000000000000000000000000000000000000000000087611d75565b604051806101000160405280876001600160a01b031681526020017f00000000000000000000000000000000000000000000000000000000000000006001600160a01b031681526020018462ffffff168152602001306001600160a01b031681526020014261038461168491906122f7565b815260200186815260200185815260200160006001600160a01b031681525090507f00000000000000000000000000000000000000000000000000000000000000006001600160a01b031663414bf389826040518263ffffffff1660e01b81526004016116f191906124c1565b6020604051808303816000875af1158015611710573d6000803e3d6000fd5b505050506040513d601f19601f82011682018060405250810190611734919061253e565b91505b505b949350505050565b604080516001600160a01b038481166024830152604480830185905283518084039091018152606490920183526020820180516001600160e01b031663a9059cbb60e01b179052915160009283929087169161179d9190612557565b6000604051808303816000865af19150503d80600081146117da576040519150601f19603f3d011682016040523d82523d6000602084013e6117df565b606091505b50915091508180156118095750805115806118095750808060200190518101906118099190612573565b6118475760405162461bcd60e51b815260206004820152600f60248201526e151c985b9cd9995c8819985a5b1959608a1b6044820152606401610490565b5050505050565b600081815260016020526040812060098101805461ff001916610100179055600481018054919261187e83612486565b90915550506000600a820155600881015461189990426122f7565b600782015560005b600182015481101561190657600082600b0160008460010184815481106118ca576118ca61231d565b6000918252602080832091909101546001600160a01b031683528201929092526040019020805460ff19169115159190911790556001016118a1565b505050565b7f00000000000000000000000000000000000000000000000000000000000000006001600160a01b0316856001600160a01b0316036119745761196f7f00000000000000000000000000000000000000000000000000000000000000008286611741565b611847565b6001600160a01b0385161560008161198c57866119ae565b7f00000000000000000000000000000000000000000000000000000000000000005b90506000826119bd57836119bf565b305b9050611a0c7f00000000000000000000000000000000000000000000000000000000000000007f000000000000000000000000000000000000000000000000000000000000000089611d75565b60006040518061010001604052807f00000000000000000000000000000000000000000000000000000000000000006001600160a01b03168152602001846001600160a01b031681526020018762ffffff168152602001836001600160a01b0316815260200142610384611a8091906122f7565b815260200189815260200188815260200160006001600160a01b0316815250905060007f00000000000000000000000000000000000000000000000000000000000000006001600160a01b031663414bf389836040518263ffffffff1660e01b8152600401611aef91906124c1565b6020604051808303816000875af1158015611b0e573d6000803e3d6000fd5b505050506040513d601f19601f82011682018060405250810190611b32919061253e565b90508415611c4f57604051632e1a7d4d60e01b8152600481018290527f00000000000000000000000000000000000000000000000000000000000000006001600160a01b031690632e1a7d4d90602401600060405180830381600087803b158015611b9c57600080fd5b505af1158015611bb0573d6000803e3d6000fd5b505050506000866001600160a01b03168260405160006040518083038185875af1925050503d8060008114611c01576040519150601f19603f3d011682016040523d82523d6000602084013e611c06565b606091505b5050905080611c4d5760405162461bcd60e51b8152602060048201526013602482015272115512081d1c985b9cd9995c8819985a5b1959606a1b6044820152606401610490565b505b50505050505050505050565b604080516001600160a01b0385811660248301528481166044830152606480830185905283518084039091018152608490920183526020820180516001600160e01b03166323b872dd60e01b1790529151600092839290881691611cbf9190612557565b6000604051808303816000865af19150503d8060008114611cfc576040519150601f19603f3d011682016040523d82523d6000602084013e611d01565b606091505b5091509150818015611d2b575080511580611d2b575080806020019051810190611d2b9190612573565b611d6d5760405162461bcd60e51b8152602060048201526013602482015272151c985b9cd9995c919c9bdb4819985a5b1959606a1b6044820152606401610490565b505050505050565b604080516001600160a01b0384811660248301526000604480840182905284518085039091018152606490930184526020830180516001600160e01b031663095ea7b360e01b179052925190861691611dcd91612557565b6000604051808303816000865af19150503d8060008114611e0a576040519150601f19603f3d011682016040523d82523d6000602084013e611e0f565b606091505b5050905080611e575760405162461bcd60e51b8152602060048201526014602482015273105c1c1c9bdd99481c995cd95d0819985a5b195960621b6044820152606401610490565b604080516001600160a01b038581166024830152604480830186905283518084039091018152606490920183526020820180516001600160e01b031663095ea7b360e01b1790529151600092839290881691611eb39190612557565b6000604051808303816000865af19150503d8060008114611ef0576040519150601f19603f3d011682016040523d82523d6000602084013e611ef5565b606091505b5091509150818015611f1f575080511580611f1f575080806020019051810190611f1f9190612573565b611d6d5760405162461bcd60e51b815260206004820152600e60248201526d105c1c1c9bdd994819985a5b195960921b6044820152606401610490565b600060208284031215611f6e57600080fd5b5035919050565b80356001600160a01b0381168114611f8c57600080fd5b919050565b600060208284031215611fa357600080fd5b611fac82611f75565b9392505050565b602080825282518282018190526000918401906040840190835b81811015611feb578351835260209384019390920191600101611fcd565b509095945050505050565b634e487b7160e01b600052604160045260246000fd5b6000806000806080858703121561202257600080fd5b843567ffffffffffffffff81111561203957600080fd5b8501601f8101871361204a57600080fd5b803567ffffffffffffffff81111561206457612064611ff6565b604051601f8201601f19908116603f0116810167ffffffffffffffff8111828210171561209357612093611ff6565b6040528181528282016020018910156120ab57600080fd5b8160208401602083013760006020928201830152989087013597506040870135966060013595509350505050565b60005b838110156120f45781810151838201526020016120dc565b50506000910152565b600081518084526121158160208601602086016120d9565b601f01601f19169290920160200192915050565b634e487b7160e01b600052602160045260246000fd5b6101608152600061215461016083018e6120fd565b90508b60208301528a60408301528960608301528860808301528760a08301528660c08301528560e08301526003851061219e57634e487b7160e01b600052602160045260246000fd5b846101008301526121b461012083018515159052565b826101408301529c9b505050505050505050505050565b602080825282518282018190526000918401906040840190835b81811015611feb5783516001600160a01b03168352602093840193909201916001016121e5565b6000806040838503121561221f57600080fd5b8235915061222f60208401611f75565b90509250929050565b803562ffffff81168114611f8c57600080fd5b600080600080600060a0868803121561226357600080fd5b8535945061227360208701611f75565b9350604086013592506060860135915061228f60808701612238565b90509295509295909350565b600080600080608085870312156122b157600080fd5b843593506122c160208601611f75565b9250604085013591506122d660608601612238565b905092959194509250565b634e487b7160e01b600052601160045260246000fd5b80820180821115610c1357610c136122e1565b81810381811115610c1357610c136122e1565b634e487b7160e01b600052603260045260246000fd5b600181811c9082168061234757607f821691505b60208210810361236757634e487b7160e01b600052602260045260246000fd5b50919050565b601f82111561190657806000526020600020601f840160051c810160208510156123945750805b601f840160051c820191505b8181101561184757600081556001016123a0565b815167ffffffffffffffff8111156123ce576123ce611ff6565b6123e2816123dc8454612333565b8461236d565b6020601f82116001811461241657600083156123fe5750848201515b600019600385901b1c1916600184901b178455611847565b600084815260208120601f198516915b828110156124465787850151825560209485019460019092019101612426565b50848210156124645786840151600019600387901b60f8161c191681555b50505050600190811b01905550565b602081526000611fac60208301846120fd565b600060018201612498576124986122e1565b5060010190565b6000826124bc57634e487b7160e01b600052601260045260246000fd5b500690565b81516001600160a01b03908116825260208084015182169083015260408084015162ffffff169083015260608084015191821690830152610100820190506080830151608083015260a083015160a083015260c083015160c083015260e083015161253760e08401826001600160a01b03169052565b5092915050565b60006020828403121561255057600080fd5b5051919050565b600082516125698184602087016120d9565b9190910192915050565b60006020828403121561258557600080fd5b81518015158114611fac57600080fdfea26469706673582212208f5af7f30b1be77cd7f31fa9bfcca04e8bde7fe1acc4dd82250963bf8051d92964736f6c634300081c0033",
          "opcodes": "PUSH2 0x100 PUSH1 0x40 MSTORE CALLVALUE DUP1 ISZERO PUSH2 0x11 JUMPI PUSH1 0x0 DUP1 REVERT JUMPDEST POP PUSH1 0x40 MLOAD PUSH2 0x279D CODESIZE SUB DUP1 PUSH2 0x279D DUP4 CODECOPY DUP2 ADD PUSH1 0x40 DUP2 SWAP1 MSTORE PUSH2 0x30 SWAP2 PUSH2 0xD1 JUMP JUMPDEST PUSH1 0x1 PUSH1 0x0 SSTORE PUSH1 0x1 PUSH1 0x1 PUSH1 0xA0 SHL SUB DUP4 AND ISZERO DUP1 ISZERO SWAP1 PUSH2 0x55 JUMPI POP PUSH1 0x1 PUSH1 0x1 PUSH1 0xA0 SHL SUB DUP3 AND ISZERO ISZERO JUMPDEST PUSH2 0x94 JUMPI PUSH1 0x40 MLOAD PUSH3 0x461BCD PUSH1 0xE5 SHL DUP2 MSTORE PUSH1 0x20 PUSH1 0x4 DUP3 ADD MSTORE PUSH1 0xC PUSH1 0x24 DUP3 ADD MSTORE PUSH12 0x5A65726F2061646472657373 PUSH1 0xA0 SHL PUSH1 0x44 DUP3 ADD MSTORE PUSH1 0x64 ADD PUSH1 0x40 MLOAD DUP1 SWAP2 SUB SWAP1 REVERT JUMPDEST PUSH1 0x1 PUSH1 0x1 PUSH1 0xA0 SHL SUB SWAP3 DUP4 AND PUSH1 0x80 MSTORE SWAP1 DUP3 AND PUSH1 0xA0 MSTORE AND PUSH1 0xC0 MSTORE CALLER PUSH1 0xE0 MSTORE PUSH2 0x114 JUMP JUMPDEST DUP1 MLOAD PUSH1 0x1 PUSH1 0x1 PUSH1 0xA0 SHL SUB DUP2 AND DUP2 EQ PUSH2 0xCC JUMPI PUSH1 0x0 DUP1 REVERT JUMPDEST SWAP2 SWAP1 POP JUMP JUMPDEST PUSH1 0x0 DUP1 PUSH1 0x0 PUSH1 0x60 DUP5 DUP7 SUB SLT ISZERO PUSH2 0xE6 JUMPI PUSH1 0x0 DUP1 REVERT JUMPDEST PUSH2 0xEF DUP5 PUSH2 0xB5 JUMP JUMPDEST SWAP3 POP PUSH2 0xFD PUSH1 0x20 DUP6 ADD PUSH2 0xB5 JUMP JUMPDEST SWAP2 POP PUSH2 0x10B PUSH1 0x40 DUP6 ADD PUSH2 0xB5 JUMP JUMPDEST SWAP1 POP SWAP3 POP SWAP3 POP SWAP3 JUMP JUMPDEST PUSH1 0x80 MLOAD PUSH1 0xA0 MLOAD PUSH1 0xC0 MLOAD PUSH1 0xE0 MLOAD PUSH2 0x25CB PUSH2 0x1D2 PUSH1 0x0 CODECOPY PUSH1 0x0 DUP2 DUP2 PUSH2 0x21F ADD MSTORE DUP2 DUP2 PUSH2 0x43B ADD MSTORE PUSH2 0x4D4 ADD MSTORE PUSH1 0x0 DUP2 DUP2 PUSH2 0x273 ADD MSTORE DUP2 DUP2 PUSH2 0x149F ADD MSTORE DUP2 DUP2 PUSH2 0x198E ADD MSTORE PUSH2 0x1B50 ADD MSTORE PUSH1 0x0 DUP2 DUP2 PUSH2 0x374 ADD MSTORE DUP2 DUP2 PUSH2 0x1546 ADD MSTORE DUP2 DUP2 PUSH2 0x15ED ADD MSTORE DUP2 DUP2 PUSH2 0x16A7 ADD MSTORE DUP2 DUP2 PUSH2 0x19E7 ADD MSTORE PUSH2 0x1AA5 ADD MSTORE PUSH1 0x0 DUP2 DUP2 PUSH2 0x1D3 ADD MSTORE DUP2 DUP2 PUSH2 0xEBD ADD MSTORE DUP2 DUP2 PUSH2 0x1393 ADD MSTORE DUP2 DUP2 PUSH2 0x13CF ADD MSTORE DUP2 DUP2 PUSH2 0x14CE ADD MSTORE DUP2 DUP2 PUSH2 0x162F ADD MSTORE DUP2 DUP2 PUSH2 0x190D ADD MSTORE DUP2 DUP2 PUSH2 0x1949 ADD MSTORE DUP2 DUP2 PUSH2 0x19C6 ADD MSTORE PUSH2 0x1A1C ADD MSTORE PUSH2 0x25CB PUSH1 0x0 RETURN INVALID PUSH1 0x80 PUSH1 0x40 MSTORE PUSH1 0x4 CALLDATASIZE LT PUSH2 0x10D JUMPI PUSH1 0x0 CALLDATALOAD PUSH1 0xE0 SHR DUP1 PUSH4 0xBC5E0F30 GT PUSH2 0x95 JUMPI DUP1 PUSH4 0xD0ACDD8E GT PUSH2 0x64 JUMPI DUP1 PUSH4 0xD0ACDD8E EQ PUSH2 0x34F JUMPI DUP1 PUSH4 0xD8264920 EQ PUSH2 0x362 JUMPI DUP1 PUSH4 0xD8BC7FFF EQ PUSH2 0x396 JUMPI DUP1 PUSH4 0xDA5F5CFF EQ PUSH2 0x3F0 JUMPI DUP1 PUSH4 0xFB479FB0 EQ PUSH2 0x410 JUMPI PUSH1 0x0 DUP1 REVERT JUMPDEST DUP1 PUSH4 0xBC5E0F30 EQ PUSH2 0x2B5 JUMPI DUP1 PUSH4 0xC477ECAB EQ PUSH2 0x2EC JUMPI DUP1 PUSH4 0xCF0B1117 EQ PUSH2 0x319 JUMPI DUP1 PUSH4 0xD02FA084 EQ PUSH2 0x32F JUMPI PUSH1 0x0 DUP1 REVERT JUMPDEST DUP1 PUSH4 0x89A30271 GT PUSH2 0xDC JUMPI DUP1 PUSH4 0x89A30271 EQ PUSH2 0x1C1 JUMPI DUP1 PUSH4 0x8DA5CB5B EQ PUSH2 0x20D JUMPI DUP1 PUSH4 0x9D07FD13 EQ PUSH2 0x241 JUMPI DUP1 PUSH4 0xAD5C4648 EQ PUSH2 0x261 JUMPI DUP1 PUSH4 0xB7466835 EQ PUSH2 0x295 JUMPI PUSH1 0x0 DUP1 REVERT JUMPDEST DUP1 PUSH4 0x20800A00 EQ PUSH2 0x119 JUMPI DUP1 PUSH4 0x5CE9284F EQ PUSH2 0x130 JUMPI DUP1 PUSH4 0x86D6CFB3 EQ PUSH2 0x174 JUMPI DUP1 PUSH4 0x88E81D8A EQ PUSH2 0x194 JUMPI PUSH1 0x0 DUP1 REVERT JUMPDEST CALLDATASIZE PUSH2 0x114 JUMPI STOP JUMPDEST PUSH1 0x0 DUP1 REVERT JUMPDEST CALLVALUE DUP1 ISZERO PUSH2 0x125 JUMPI PUSH1 0x0 DUP1 REVERT JUMPDEST POP PUSH2 0x12E PUSH2 0x430 JUMP JUMPDEST STOP JUMPDEST CALLVALUE DUP1 ISZERO PUSH2 0x13C JUMPI PUSH1 0x0 DUP1 REVERT JUMPDEST POP PUSH2 0x161 PUSH2 0x14B CALLDATASIZE PUSH1 0x4 PUSH2 0x1F5C JUMP JUMPDEST PUSH1 0x0 SWAP1 DUP2 MSTORE PUSH1 0x1 PUSH1 0x20 DUP2 SWAP1 MSTORE PUSH1 0x40 SWAP1 SWAP2 KECCAK256 ADD SLOAD SWAP1 JUMP JUMPDEST PUSH1 0x40 MLOAD SWAP1 DUP2 MSTORE PUSH1 0x20 ADD JUMPDEST PUSH1 0x40 MLOAD DUP1 SWAP2 SUB SWAP1 RETURN JUMPDEST CALLVALUE DUP1 ISZERO PUSH2 0x180 JUMPI PUSH1 0x0 DUP1 REVERT JUMPDEST POP PUSH2 0x12E PUSH2 0x18F CALLDATASIZE PUSH1 0x4 PUSH2 0x1F5C JUMP JUMPDEST PUSH2 0x58B JUMP JUMPDEST CALLVALUE DUP1 ISZERO PUSH2 0x1A0 JUMPI PUSH1 0x0 DUP1 REVERT JUMPDEST POP PUSH2 0x1B4 PUSH2 0x1AF CALLDATASIZE PUSH1 0x4 PUSH2 0x1F91 JUMP JUMPDEST PUSH2 0x773 JUMP JUMPDEST PUSH1 0x40 MLOAD PUSH2 0x16B SWAP2 SWAP1 PUSH2 0x1FB3 JUMP JUMPDEST CALLVALUE DUP1 ISZERO PUSH2 0x1CD JUMPI PUSH1 0x0 DUP1 REVERT JUMPDEST POP PUSH2 0x1F5 PUSH32 0x0 DUP2 JUMP JUMPDEST PUSH1 0x40 MLOAD PUSH1 0x1 PUSH1 0x1 PUSH1 0xA0 SHL SUB SWAP1 SWAP2 AND DUP2 MSTORE PUSH1 0x20 ADD PUSH2 0x16B JUMP JUMPDEST CALLVALUE DUP1 ISZERO PUSH2 0x219 JUMPI PUSH1 0x0 DUP1 REVERT JUMPDEST POP PUSH2 0x1F5 PUSH32 0x0 DUP2 JUMP JUMPDEST CALLVALUE DUP1 ISZERO PUSH2 0x24D JUMPI PUSH1 0x0 DUP1 REVERT JUMPDEST POP PUSH2 0x1F5 PUSH2 0x25C CALLDATASIZE PUSH1 0x4 PUSH2 0x1F5C JUMP JUMPDEST PUSH2 0x7DF JUMP JUMPDEST CALLVALUE DUP1 ISZERO PUSH2 0x26D JUMPI PUSH1 0x0 DUP1 REVERT JUMPDEST POP PUSH2 0x1F5 PUSH32 0x0 DUP2 JUMP JUMPDEST CALLVALUE DUP1 ISZERO PUSH2 0x2A1 JUMPI PUSH1 0x0 DUP1 REVERT JUMPDEST POP PUSH2 0x161 PUSH2 0x2B0 CALLDATASIZE PUSH1 0x4 PUSH2 0x200C JUMP JUMPDEST PUSH2 0x873 JUMP JUMPDEST CALLVALUE DUP1 ISZERO PUSH2 0x2C1 JUMPI PUSH1 0x0 DUP1 REVERT JUMPDEST POP PUSH2 0x2D5 PUSH2 0x2D0 CALLDATASIZE PUSH1 0x4 PUSH2 0x1F5C JUMP JUMPDEST PUSH2 0xA98 JUMP JUMPDEST PUSH1 0x40 MLOAD PUSH2 0x16B SWAP12 SWAP11 SWAP10 SWAP9 SWAP8 SWAP7 SWAP6 SWAP5 SWAP4 SWAP3 SWAP2 SWAP1 PUSH2 0x213F JUMP JUMPDEST CALLVALUE DUP1 ISZERO PUSH2 0x2F8 JUMPI PUSH1 0x0 DUP1 REVERT JUMPDEST POP PUSH2 0x30C PUSH2 0x307 CALLDATASIZE PUSH1 0x4 PUSH2 0x1F5C JUMP JUMPDEST PUSH2 0xB7E JUMP JUMPDEST PUSH1 0x40 MLOAD PUSH2 0x16B SWAP2 SWAP1 PUSH2 0x21CB JUMP JUMPDEST CALLVALUE DUP1 ISZERO PUSH2 0x325 JUMPI PUSH1 0x0 DUP1 REVERT JUMPDEST POP PUSH2 0x161 PUSH1 0x2 SLOAD DUP2 JUMP JUMPDEST CALLVALUE DUP1 ISZERO PUSH2 0x33B JUMPI PUSH1 0x0 DUP1 REVERT JUMPDEST POP PUSH2 0x161 PUSH2 0x34A CALLDATASIZE PUSH1 0x4 PUSH2 0x220C JUMP JUMPDEST PUSH2 0xBEC JUMP JUMPDEST PUSH2 0x12E PUSH2 0x35D CALLDATASIZE PUSH1 0x4 PUSH2 0x224B JUMP JUMPDEST PUSH2 0xC19 JUMP JUMPDEST CALLVALUE DUP1 ISZERO PUSH2 0x36E JUMPI PUSH1 0x0 DUP1 REVERT JUMPDEST POP PUSH2 0x1F5 PUSH32 0x0 DUP2 JUMP JUMPDEST CALLVALUE DUP1 ISZERO PUSH2 0x3A2 JUMPI PUSH1 0x0 DUP1 REVERT JUMPDEST POP PUSH2 0x3E0 PUSH2 0x3B1 CALLDATASIZE PUSH1 0x4 PUSH2 0x220C JUMP JUMPDEST PUSH1 0x0 DUP3 DUP2 MSTORE PUSH1 0x1 PUSH1 0x20 SWAP1 DUP2 MSTORE PUSH1 0x40 DUP1 DUP4 KECCAK256 PUSH1 0x1 PUSH1 0x1 PUSH1 0xA0 SHL SUB DUP6 AND DUP5 MSTORE PUSH1 0xB ADD SWAP1 SWAP2 MSTORE SWAP1 KECCAK256 SLOAD PUSH1 0xFF AND SWAP3 SWAP2 POP POP JUMP JUMPDEST PUSH1 0x40 MLOAD SWAP1 ISZERO ISZERO DUP2 MSTORE PUSH1 0x20 ADD PUSH2 0x16B JUMP JUMPDEST CALLVALUE DUP1 ISZERO PUSH2 0x3FC JUMPI PUSH1 0x0 DUP1 REVERT JUMPDEST POP PUSH2 0x2D5 PUSH2 0x40B CALLDATASIZE PUSH1 0x4 PUSH2 0x1F5C JUMP JUMPDEST PUSH2 0xFA0 JUMP JUMPDEST CALLVALUE DUP1 ISZERO PUSH2 0x41C JUMPI PUSH1 0x0 DUP1 REVERT JUMPDEST POP PUSH2 0x12E PUSH2 0x42B CALLDATASIZE PUSH1 0x4 PUSH2 0x229B JUMP JUMPDEST PUSH2 0x10B5 JUMP JUMPDEST CALLER PUSH1 0x1 PUSH1 0x1 PUSH1 0xA0 SHL SUB PUSH32 0x0 AND EQ PUSH2 0x499 JUMPI PUSH1 0x40 MLOAD PUSH3 0x461BCD PUSH1 0xE5 SHL DUP2 MSTORE PUSH1 0x20 PUSH1 0x4 DUP3 ADD MSTORE PUSH1 0x9 PUSH1 0x24 DUP3 ADD MSTORE PUSH9 0x2737BA1037BBB732B9 PUSH1 0xB9 SHL PUSH1 0x44 DUP3 ADD MSTORE PUSH1 0x64 ADD JUMPDEST PUSH1 0x40 MLOAD DUP1 SWAP2 SUB SWAP1 REVERT JUMPDEST SELFBALANCE DUP1 PUSH2 0x4D0 JUMPI PUSH1 0x40 MLOAD PUSH3 0x461BCD PUSH1 0xE5 SHL DUP2 MSTORE PUSH1 0x20 PUSH1 0x4 DUP3 ADD MSTORE PUSH1 0x6 PUSH1 0x24 DUP3 ADD MSTORE PUSH6 0x9CDE408AA89 PUSH1 0xD3 SHL PUSH1 0x44 DUP3 ADD MSTORE PUSH1 0x64 ADD PUSH2 0x490 JUMP JUMPDEST PUSH1 0x0 PUSH32 0x0 PUSH1 0x1 PUSH1 0x1 PUSH1 0xA0 SHL SUB AND DUP3 PUSH1 0x40 MLOAD PUSH1 0x0 PUSH1 0x40 MLOAD DUP1 DUP4 SUB DUP2 DUP6 DUP8 GAS CALL SWAP3 POP POP POP RETURNDATASIZE DUP1 PUSH1 0x0 DUP2 EQ PUSH2 0x53D JUMPI PUSH1 0x40 MLOAD SWAP2 POP PUSH1 0x1F NOT PUSH1 0x3F RETURNDATASIZE ADD AND DUP3 ADD PUSH1 0x40 MSTORE RETURNDATASIZE DUP3 MSTORE RETURNDATASIZE PUSH1 0x0 PUSH1 0x20 DUP5 ADD RETURNDATACOPY PUSH2 0x542 JUMP JUMPDEST PUSH1 0x60 SWAP2 POP JUMPDEST POP POP SWAP1 POP DUP1 PUSH2 0x587 JUMPI PUSH1 0x40 MLOAD PUSH3 0x461BCD PUSH1 0xE5 SHL DUP2 MSTORE PUSH1 0x20 PUSH1 0x4 DUP3 ADD MSTORE PUSH1 0x11 PUSH1 0x24 DUP3 ADD MSTORE PUSH17 0x115512081C995CD8DD594819985A5B1959 PUSH1 0x7A SHL PUSH1 0x44 DUP3 ADD MSTORE PUSH1 0x64 ADD PUSH2 0x490 JUMP JUMPDEST POP POP JUMP JUMPDEST PUSH1 0x0 DUP2 DUP2 MSTORE PUSH1 0x1 PUSH1 0x20 DUP2 SWAP1 MSTORE PUSH1 0x40 SWAP1 SWAP2 KECCAK256 PUSH1 0x2 DUP2 ADD SLOAD SWAP2 DUP2 ADD SLOAD SWAP1 SWAP2 GT PUSH2 0x5E5 JUMPI PUSH1 0x40 MLOAD PUSH3 0x461BCD PUSH1 0xE5 SHL DUP2 MSTORE PUSH1 0x20 PUSH1 0x4 DUP3 ADD MSTORE PUSH1 0xE PUSH1 0x24 DUP3 ADD MSTORE PUSH14 0x10DA5C98DB19481A5CC8199D5B1B PUSH1 0x92 SHL PUSH1 0x44 DUP3 ADD MSTORE PUSH1 0x64 ADD PUSH2 0x490 JUMP JUMPDEST PUSH1 0x0 PUSH1 0x9 DUP3 ADD SLOAD PUSH1 0xFF AND PUSH1 0x2 DUP2 GT ISZERO PUSH2 0x600 JUMPI PUSH2 0x600 PUSH2 0x2129 JUMP JUMPDEST EQ PUSH2 0x63E JUMPI PUSH1 0x40 MLOAD PUSH3 0x461BCD PUSH1 0xE5 SHL DUP2 MSTORE PUSH1 0x20 PUSH1 0x4 DUP3 ADD MSTORE PUSH1 0xE PUSH1 0x24 DUP3 ADD MSTORE PUSH14 0x4E6F742072656372756974696E67 PUSH1 0x90 SHL PUSH1 0x44 DUP3 ADD MSTORE PUSH1 0x64 ADD PUSH2 0x490 JUMP JUMPDEST CALLER PUSH1 0x0 SWAP1 DUP2 MSTORE PUSH1 0xC DUP3 ADD PUSH1 0x20 MSTORE PUSH1 0x40 SWAP1 KECCAK256 SLOAD ISZERO PUSH2 0x690 JUMPI PUSH1 0x40 MLOAD PUSH3 0x461BCD PUSH1 0xE5 SHL DUP2 MSTORE PUSH1 0x20 PUSH1 0x4 DUP3 ADD MSTORE PUSH1 0x10 PUSH1 0x24 DUP3 ADD MSTORE PUSH16 0x20B63932B0B23C90309036B2B6B132B9 PUSH1 0x81 SHL PUSH1 0x44 DUP3 ADD MSTORE PUSH1 0x64 ADD PUSH2 0x490 JUMP JUMPDEST PUSH1 0x1 DUP1 DUP3 ADD DUP1 SLOAD DUP1 DUP4 ADD DUP3 SSTORE PUSH1 0x0 DUP3 DUP2 MSTORE PUSH1 0x20 DUP1 DUP3 KECCAK256 SWAP1 SWAP3 ADD DUP1 SLOAD PUSH1 0x1 PUSH1 0x1 PUSH1 0xA0 SHL SUB NOT AND CALLER SWAP1 DUP2 OR SWAP1 SWAP2 SSTORE SWAP3 SLOAD DUP4 DUP3 MSTORE PUSH1 0xC DUP7 ADD DUP4 MSTORE PUSH1 0x40 DUP1 DUP4 KECCAK256 SWAP2 SWAP1 SWAP2 SSTORE PUSH1 0x4 DUP4 MSTORE DUP1 DUP3 KECCAK256 DUP1 SLOAD SWAP6 DUP7 ADD DUP2 SSTORE DUP3 MSTORE SWAP2 DUP2 KECCAK256 SWAP1 SWAP4 ADD DUP6 SWAP1 SSTORE MLOAD SWAP1 SWAP2 DUP5 SWAP2 PUSH32 0x78DA64A590C3052953AD9E0A5546BBF12BB68AE7634E3FB2A774E22A8C6557C1 SWAP2 SWAP1 LOG3 PUSH1 0x2 DUP2 ADD SLOAD PUSH1 0x1 DUP3 ADD SLOAD SUB PUSH2 0x587 JUMPI PUSH1 0x9 DUP2 ADD DUP1 SLOAD PUSH1 0xFF NOT AND PUSH1 0x1 OR SWAP1 SSTORE PUSH1 0x8 DUP2 ADD SLOAD PUSH2 0x73F SWAP1 TIMESTAMP PUSH2 0x22F7 JUMP JUMPDEST PUSH1 0x7 DUP3 ADD SSTORE PUSH1 0x40 MLOAD DUP3 SWAP1 PUSH32 0xAA8B7289F77C0A8B226248E26401151F4903884AB85BA3DECB12926F4C7C3ACC SWAP1 PUSH1 0x0 SWAP1 LOG2 POP POP JUMP JUMPDEST PUSH1 0x1 PUSH1 0x1 PUSH1 0xA0 SHL SUB DUP2 AND PUSH1 0x0 SWAP1 DUP2 MSTORE PUSH1 0x4 PUSH1 0x20 SWAP1 DUP2 MSTORE PUSH1 0x40 SWAP2 DUP3 SWAP1 KECCAK256 DUP1 SLOAD DUP4 MLOAD DUP2 DUP5 MUL DUP2 ADD DUP5 ADD SWAP1 SWAP5 MSTORE DUP1 DUP5 MSTORE PUSH1 0x60 SWAP4 SWAP3 DUP4 ADD DUP3 DUP3 DUP1 ISZERO PUSH2 0x7D3 JUMPI PUSH1 0x20 MUL DUP3 ADD SWAP2 SWAP1 PUSH1 0x0 MSTORE PUSH1 0x20 PUSH1 0x0 KECCAK256 SWAP1 JUMPDEST DUP2 SLOAD DUP2 MSTORE PUSH1 0x20 ADD SWAP1 PUSH1 0x1 ADD SWAP1 DUP1 DUP4 GT PUSH2 0x7BF JUMPI JUMPDEST POP POP POP POP POP SWAP1 POP SWAP2 SWAP1 POP JUMP JUMPDEST PUSH1 0x0 DUP2 DUP2 MSTORE PUSH1 0x1 PUSH1 0x20 MSTORE PUSH1 0x40 DUP2 KECCAK256 PUSH1 0x9 DUP2 ADD SLOAD PUSH2 0x100 SWAP1 DIV PUSH1 0xFF AND ISZERO DUP1 PUSH2 0x808 JUMPI POP PUSH1 0x4 DUP2 ADD SLOAD ISZERO JUMPDEST ISZERO PUSH2 0x816 JUMPI POP PUSH1 0x0 SWAP3 SWAP2 POP POP JUMP JUMPDEST PUSH1 0x0 PUSH1 0x1 DUP3 PUSH1 0x4 ADD SLOAD PUSH2 0x829 SWAP2 SWAP1 PUSH2 0x230A JUMP JUMPDEST PUSH1 0x1 DUP4 ADD SLOAD SWAP1 SWAP2 POP DUP2 LT PUSH2 0x841 JUMPI POP PUSH1 0x0 SWAP4 SWAP3 POP POP POP JUMP JUMPDEST DUP2 PUSH1 0x1 ADD DUP2 DUP2 SLOAD DUP2 LT PUSH2 0x856 JUMPI PUSH2 0x856 PUSH2 0x231D JUMP JUMPDEST PUSH1 0x0 SWAP2 DUP3 MSTORE PUSH1 0x20 SWAP1 SWAP2 KECCAK256 ADD SLOAD PUSH1 0x1 PUSH1 0x1 PUSH1 0xA0 SHL SUB AND SWAP5 SWAP4 POP POP POP POP JUMP JUMPDEST PUSH1 0x0 DUP1 DUP6 MLOAD GT PUSH2 0x8B2 JUMPI PUSH1 0x40 MLOAD PUSH3 0x461BCD PUSH1 0xE5 SHL DUP2 MSTORE PUSH1 0x20 PUSH1 0x4 DUP3 ADD MSTORE PUSH1 0xA PUSH1 0x24 DUP3 ADD MSTORE PUSH10 0x456D707479206E616D65 PUSH1 0xB0 SHL PUSH1 0x44 DUP3 ADD MSTORE PUSH1 0x64 ADD PUSH2 0x490 JUMP JUMPDEST PUSH1 0x2 DUP5 LT ISZERO DUP1 ISZERO PUSH2 0x8C4 JUMPI POP PUSH1 0x32 DUP5 GT ISZERO JUMPDEST PUSH2 0x900 JUMPI PUSH1 0x40 MLOAD PUSH3 0x461BCD PUSH1 0xE5 SHL DUP2 MSTORE PUSH1 0x20 PUSH1 0x4 DUP3 ADD MSTORE PUSH1 0xD PUSH1 0x24 DUP3 ADD MSTORE PUSH13 0x4D656D626572733A20322D353 PUSH1 0x9C SHL PUSH1 0x44 DUP3 ADD MSTORE PUSH1 0x64 ADD PUSH2 0x490 JUMP JUMPDEST PUSH1 0x0 DUP4 GT PUSH2 0x944 JUMPI PUSH1 0x40 MLOAD PUSH3 0x461BCD PUSH1 0xE5 SHL DUP2 MSTORE PUSH1 0x20 PUSH1 0x4 DUP3 ADD MSTORE PUSH1 0x11 PUSH1 0x24 DUP3 ADD MSTORE PUSH17 0x2D32B9379031B7B73A3934B13ABA34B7B7 PUSH1 0x79 SHL PUSH1 0x44 DUP3 ADD MSTORE PUSH1 0x64 ADD PUSH2 0x490 JUMP JUMPDEST PUSH1 0x0 DUP3 GT PUSH2 0x985 JUMPI PUSH1 0x40 MLOAD PUSH3 0x461BCD PUSH1 0xE5 SHL DUP2 MSTORE PUSH1 0x20 PUSH1 0x4 DUP3 ADD MSTORE PUSH1 0xE PUSH1 0x24 DUP3 ADD MSTORE PUSH14 0x5A65726F206672657175656E6379 PUSH1 0x90 SHL PUSH1 0x44 DUP3 ADD MSTORE PUSH1 0x64 ADD PUSH2 0x490 JUMP JUMPDEST PUSH2 0x98D PUSH2 0x12B4 JUMP JUMPDEST PUSH1 0x0 DUP2 DUP2 MSTORE PUSH1 0x1 PUSH1 0x20 MSTORE PUSH1 0x40 SWAP1 KECCAK256 SWAP1 SWAP2 POP DUP1 PUSH2 0x9A9 DUP8 DUP3 PUSH2 0x23B4 JUMP JUMPDEST POP PUSH1 0x2 DUP2 ADD DUP6 SWAP1 SSTORE PUSH1 0x3 DUP2 ADD DUP5 SWAP1 SSTORE PUSH1 0x5 DUP2 ADD DUP6 SWAP1 SSTORE PUSH1 0x8 DUP2 ADD DUP4 SWAP1 SSTORE PUSH1 0x9 DUP2 ADD DUP1 SLOAD PUSH1 0xFF NOT AND SWAP1 SSTORE PUSH1 0x1 DUP1 DUP3 ADD DUP1 SLOAD DUP1 DUP4 ADD DUP3 SSTORE PUSH1 0x0 SWAP2 DUP3 MSTORE PUSH1 0x20 DUP1 DUP4 KECCAK256 SWAP1 SWAP2 ADD DUP1 SLOAD PUSH1 0x1 PUSH1 0x1 PUSH1 0xA0 SHL SUB NOT AND CALLER SWAP1 DUP2 OR SWAP1 SWAP2 SSTORE DUP1 DUP4 MSTORE PUSH1 0xC DUP6 ADD DUP3 MSTORE PUSH1 0x40 DUP1 DUP5 KECCAK256 DUP6 SWAP1 SSTORE PUSH1 0x4 DUP4 MSTORE DUP1 DUP5 KECCAK256 DUP1 SLOAD SWAP6 DUP7 ADD DUP2 SSTORE DUP5 MSTORE SWAP2 SWAP1 SWAP3 KECCAK256 SWAP1 SWAP3 ADD DUP5 SWAP1 SSTORE SWAP1 MLOAD DUP4 SWAP1 PUSH32 0x6F657D36DEB3B1AA2E949C5DF40EAC9D79359A73C2402CEFA7AEE870F9CEAFC0 SWAP1 PUSH2 0xA5A SWAP1 DUP11 SWAP1 PUSH2 0x2473 JUMP JUMPDEST PUSH1 0x40 MLOAD DUP1 SWAP2 SUB SWAP1 LOG3 PUSH1 0x40 MLOAD CALLER SWAP1 DUP4 SWAP1 PUSH32 0x78DA64A590C3052953AD9E0A5546BBF12BB68AE7634E3FB2A774E22A8C6557C1 SWAP1 PUSH1 0x0 SWAP1 LOG3 POP SWAP5 SWAP4 POP POP POP POP JUMP JUMPDEST PUSH1 0x1 PUSH1 0x20 MSTORE PUSH1 0x0 SWAP1 DUP2 MSTORE PUSH1 0x40 SWAP1 KECCAK256 DUP1 SLOAD DUP2 SWAP1 PUSH2 0xAB3 SWAP1 PUSH2 0x2333 JUMP JUMPDEST DUP1 PUSH1 0x1F ADD PUSH1 0x20 DUP1 SWAP2 DIV MUL PUSH1 0x20 ADD PUSH1 0x40 MLOAD SWAP1 DUP2 ADD PUSH1 0x40 MSTORE DUP1 SWAP3 SWAP2 SWAP1 DUP2 DUP2 MSTORE PUSH1 0x20 ADD DUP3 DUP1 SLOAD PUSH2 0xADF SWAP1 PUSH2 0x2333 JUMP JUMPDEST DUP1 ISZERO PUSH2 0xB2C JUMPI DUP1 PUSH1 0x1F LT PUSH2 0xB01 JUMPI PUSH2 0x100 DUP1 DUP4 SLOAD DIV MUL DUP4 MSTORE SWAP2 PUSH1 0x20 ADD SWAP2 PUSH2 0xB2C JUMP JUMPDEST DUP3 ADD SWAP2 SWAP1 PUSH1 0x0 MSTORE PUSH1 0x20 PUSH1 0x0 KECCAK256 SWAP1 JUMPDEST DUP2 SLOAD DUP2 MSTORE SWAP1 PUSH1 0x1 ADD SWAP1 PUSH1 0x20 ADD DUP1 DUP4 GT PUSH2 0xB0F JUMPI DUP3 SWAP1 SUB PUSH1 0x1F AND DUP3 ADD SWAP2 JUMPDEST POP POP POP PUSH1 0x2 DUP5 ADD SLOAD PUSH1 0x3 DUP6 ADD SLOAD PUSH1 0x4 DUP7 ADD SLOAD PUSH1 0x5 DUP8 ADD SLOAD PUSH1 0x6 DUP9 ADD SLOAD PUSH1 0x7 DUP10 ADD SLOAD PUSH1 0x8 DUP11 ADD SLOAD PUSH1 0x9 DUP12 ADD SLOAD PUSH1 0xA SWAP1 SWAP12 ADD SLOAD SWAP10 SWAP11 SWAP7 SWAP10 SWAP6 SWAP9 POP SWAP4 SWAP7 POP SWAP2 SWAP5 SWAP1 SWAP4 SWAP2 SWAP3 SWAP2 PUSH1 0xFF DUP1 DUP4 AND SWAP3 PUSH2 0x100 SWAP1 DIV AND SWAP1 DUP12 JUMP JUMPDEST PUSH1 0x0 DUP2 DUP2 MSTORE PUSH1 0x1 PUSH1 0x20 DUP2 DUP2 MSTORE PUSH1 0x40 SWAP3 DUP4 SWAP1 KECCAK256 SWAP1 SWAP2 ADD DUP1 SLOAD DUP4 MLOAD DUP2 DUP5 MUL DUP2 ADD DUP5 ADD SWAP1 SWAP5 MSTORE DUP1 DUP5 MSTORE PUSH1 0x60 SWAP4 SWAP3 DUP4 ADD DUP3 DUP3 DUP1 ISZERO PUSH2 0x7D3 JUMPI PUSH1 0x20 MUL DUP3 ADD SWAP2 SWAP1 PUSH1 0x0 MSTORE PUSH1 0x20 PUSH1 0x0 KECCAK256 SWAP1 JUMPDEST DUP2 SLOAD PUSH1 0x1 PUSH1 0x1 PUSH1 0xA0 SHL SUB AND DUP2 MSTORE PUSH1 0x1 SWAP1 SWAP2 ADD SWAP1 PUSH1 0x20 ADD DUP1 DUP4 GT PUSH2 0xBC3 JUMPI POP POP POP POP POP SWAP1 POP SWAP2 SWAP1 POP JUMP JUMPDEST PUSH1 0x0 DUP3 DUP2 MSTORE PUSH1 0x1 PUSH1 0x20 SWAP1 DUP2 MSTORE PUSH1 0x40 DUP1 DUP4 KECCAK256 PUSH1 0x1 PUSH1 0x1 PUSH1 0xA0 SHL SUB DUP6 AND DUP5 MSTORE PUSH1 0xC ADD SWAP1 SWAP2 MSTORE SWAP1 KECCAK256 SLOAD JUMPDEST SWAP3 SWAP2 POP POP JUMP JUMPDEST PUSH1 0x2 PUSH1 0x0 SLOAD SUB PUSH2 0xC6B JUMPI PUSH1 0x40 MLOAD PUSH3 0x461BCD PUSH1 0xE5 SHL DUP2 MSTORE PUSH1 0x20 PUSH1 0x4 DUP3 ADD MSTORE PUSH1 0x1F PUSH1 0x24 DUP3 ADD MSTORE PUSH32 0x5265656E7472616E637947756172643A207265656E7472616E742063616C6C00 PUSH1 0x44 DUP3 ADD MSTORE PUSH1 0x64 ADD PUSH2 0x490 JUMP JUMPDEST PUSH1 0x2 PUSH1 0x0 SSTORE PUSH1 0x1 PUSH1 0x1 PUSH1 0xA0 SHL SUB DUP5 AND ISZERO PUSH2 0xCCD JUMPI CALLVALUE ISZERO PUSH2 0xCCD JUMPI PUSH1 0x40 MLOAD PUSH3 0x461BCD PUSH1 0xE5 SHL DUP2 MSTORE PUSH1 0x20 PUSH1 0x4 DUP3 ADD MSTORE PUSH1 0x1F PUSH1 0x24 DUP3 ADD MSTORE PUSH32 0x455448206E6F7420616363657074656420666F72204552433230207061746800 PUSH1 0x44 DUP3 ADD MSTORE PUSH1 0x64 ADD PUSH2 0x490 JUMP JUMPDEST PUSH1 0x0 DUP6 DUP2 MSTORE PUSH1 0x1 PUSH1 0x20 DUP2 SWAP1 MSTORE PUSH1 0x40 SWAP1 SWAP2 KECCAK256 SWAP1 PUSH1 0x9 DUP3 ADD SLOAD PUSH1 0xFF AND PUSH1 0x2 DUP2 GT ISZERO PUSH2 0xCF8 JUMPI PUSH2 0xCF8 PUSH2 0x2129 JUMP JUMPDEST EQ PUSH2 0xD39 JUMPI PUSH1 0x40 MLOAD PUSH3 0x461BCD PUSH1 0xE5 SHL DUP2 MSTORE PUSH1 0x20 PUSH1 0x4 DUP3 ADD MSTORE PUSH1 0x11 PUSH1 0x24 DUP3 ADD MSTORE PUSH17 0x436972636C65206E6F7420616374697665 PUSH1 0x78 SHL PUSH1 0x44 DUP3 ADD MSTORE PUSH1 0x64 ADD PUSH2 0x490 JUMP JUMPDEST PUSH1 0x9 DUP2 ADD SLOAD PUSH2 0x100 SWAP1 DIV PUSH1 0xFF AND ISZERO PUSH2 0xD8B JUMPI PUSH1 0x40 MLOAD PUSH3 0x461BCD PUSH1 0xE5 SHL DUP2 MSTORE PUSH1 0x20 PUSH1 0x4 DUP3 ADD MSTORE PUSH1 0x15 PUSH1 0x24 DUP3 ADD MSTORE PUSH21 0x4177616974696E67207061796F757420636C61696D PUSH1 0x58 SHL PUSH1 0x44 DUP3 ADD MSTORE PUSH1 0x64 ADD PUSH2 0x490 JUMP JUMPDEST CALLER PUSH1 0x0 SWAP1 DUP2 MSTORE PUSH1 0xC DUP3 ADD PUSH1 0x20 MSTORE PUSH1 0x40 SWAP1 KECCAK256 SLOAD PUSH2 0xDD8 JUMPI PUSH1 0x40 MLOAD PUSH3 0x461BCD PUSH1 0xE5 SHL DUP2 MSTORE PUSH1 0x20 PUSH1 0x4 DUP3 ADD MSTORE PUSH1 0xC PUSH1 0x24 DUP3 ADD MSTORE PUSH12 0x2737BA10309036B2B6B132B9 PUSH1 0xA1 SHL PUSH1 0x44 DUP3 ADD MSTORE PUSH1 0x64 ADD PUSH2 0x490 JUMP JUMPDEST CALLER PUSH1 0x0 SWAP1 DUP2 MSTORE PUSH1 0xB DUP3 ADD PUSH1 0x20 MSTORE PUSH1 0x40 SWAP1 KECCAK256 SLOAD PUSH1 0xFF AND ISZERO PUSH2 0xE3A JUMPI PUSH1 0x40 MLOAD PUSH3 0x461BCD PUSH1 0xE5 SHL DUP2 MSTORE PUSH1 0x20 PUSH1 0x4 DUP3 ADD MSTORE PUSH1 0x1E PUSH1 0x24 DUP3 ADD MSTORE PUSH32 0x416C726561647920636F6E7472696275746564207468697320726F756E640000 PUSH1 0x44 DUP3 ADD MSTORE PUSH1 0x64 ADD PUSH2 0x490 JUMP JUMPDEST PUSH1 0x0 PUSH2 0xE48 DUP7 DUP7 DUP7 DUP7 PUSH2 0x138F JUMP JUMPDEST SWAP1 POP DUP2 PUSH1 0x3 ADD SLOAD DUP2 LT ISZERO PUSH2 0xE9E JUMPI PUSH1 0x40 MLOAD PUSH3 0x461BCD PUSH1 0xE5 SHL DUP2 MSTORE PUSH1 0x20 PUSH1 0x4 DUP3 ADD MSTORE PUSH1 0x1C PUSH1 0x24 DUP3 ADD MSTORE PUSH32 0x496E73756666696369656E742055534443206166746572207377617000000000 PUSH1 0x44 DUP3 ADD MSTORE PUSH1 0x64 ADD PUSH2 0x490 JUMP JUMPDEST PUSH1 0x0 DUP3 PUSH1 0x3 ADD SLOAD DUP3 PUSH2 0xEB0 SWAP2 SWAP1 PUSH2 0x230A JUMP JUMPDEST SWAP1 POP DUP1 ISZERO PUSH2 0xEE3 JUMPI PUSH2 0xEE3 PUSH32 0x0 CALLER DUP4 PUSH2 0x1741 JUMP JUMPDEST CALLER PUSH1 0x0 SWAP1 DUP2 MSTORE PUSH1 0xB DUP5 ADD PUSH1 0x20 MSTORE PUSH1 0x40 DUP2 KECCAK256 DUP1 SLOAD PUSH1 0xFF NOT AND PUSH1 0x1 OR SWAP1 SSTORE PUSH1 0xA DUP5 ADD DUP1 SLOAD SWAP2 PUSH2 0xF0F DUP4 PUSH2 0x2486 JUMP JUMPDEST SWAP2 SWAP1 POP SSTORE POP DUP3 PUSH1 0x3 ADD SLOAD DUP4 PUSH1 0x6 ADD PUSH1 0x0 DUP3 DUP3 SLOAD PUSH2 0xF2C SWAP2 SWAP1 PUSH2 0x22F7 JUMP JUMPDEST SWAP1 SWAP2 SSTORE POP POP PUSH1 0x3 DUP4 ADD SLOAD PUSH1 0x4 DUP5 ADD SLOAD PUSH1 0x40 DUP1 MLOAD SWAP3 DUP4 MSTORE PUSH1 0x20 DUP4 ADD SWAP2 SWAP1 SWAP2 MSTORE CALLER SWAP2 DUP11 SWAP2 PUSH32 0xF9B7589B7A8D939B9DA5DAE90770378FE5FD7802BE5D66432E85BEDBDBFBCB7A SWAP2 ADD PUSH1 0x40 MLOAD DUP1 SWAP2 SUB SWAP1 LOG3 DUP3 PUSH1 0x2 ADD SLOAD DUP4 PUSH1 0xA ADD SLOAD SUB PUSH2 0xF91 JUMPI PUSH2 0xF91 DUP9 PUSH2 0x184E JUMP JUMPDEST POP POP PUSH1 0x1 PUSH1 0x0 SSTORE POP POP POP POP POP POP JUMP JUMPDEST PUSH1 0x0 DUP2 DUP2 MSTORE PUSH1 0x1 PUSH1 0x20 MSTORE PUSH1 0x40 DUP2 KECCAK256 PUSH1 0x2 DUP2 ADD SLOAD PUSH1 0x3 DUP3 ADD SLOAD PUSH1 0x4 DUP4 ADD SLOAD PUSH1 0x5 DUP5 ADD SLOAD PUSH1 0x6 DUP6 ADD SLOAD PUSH1 0x7 DUP7 ADD SLOAD PUSH1 0x8 DUP8 ADD SLOAD PUSH1 0x9 DUP9 ADD SLOAD PUSH1 0xA DUP10 ADD SLOAD DUP10 SLOAD PUSH1 0x60 SWAP12 SWAP11 DUP12 SWAP11 DUP12 SWAP11 DUP12 SWAP11 DUP12 SWAP11 DUP12 SWAP11 DUP12 SWAP11 DUP12 SWAP11 DUP12 SWAP11 DUP12 SWAP11 SWAP9 SWAP10 DUP11 SWAP10 PUSH1 0xFF DUP1 DUP5 AND SWAP4 PUSH2 0x100 SWAP1 DIV AND SWAP2 DUP12 SWAP1 PUSH2 0x100F SWAP1 PUSH2 0x2333 JUMP JUMPDEST DUP1 PUSH1 0x1F ADD PUSH1 0x20 DUP1 SWAP2 DIV MUL PUSH1 0x20 ADD PUSH1 0x40 MLOAD SWAP1 DUP2 ADD PUSH1 0x40 MSTORE DUP1 SWAP3 SWAP2 SWAP1 DUP2 DUP2 MSTORE PUSH1 0x20 ADD DUP3 DUP1 SLOAD PUSH2 0x103B SWAP1 PUSH2 0x2333 JUMP JUMPDEST DUP1 ISZERO PUSH2 0x1088 JUMPI DUP1 PUSH1 0x1F LT PUSH2 0x105D JUMPI PUSH2 0x100 DUP1 DUP4 SLOAD DIV MUL DUP4 MSTORE SWAP2 PUSH1 0x20 ADD SWAP2 PUSH2 0x1088 JUMP JUMPDEST DUP3 ADD SWAP2 SWAP1 PUSH1 0x0 MSTORE PUSH1 0x20 PUSH1 0x0 KECCAK256 SWAP1 JUMPDEST DUP2 SLOAD DUP2 MSTORE SWAP1 PUSH1 0x1 ADD SWAP1 PUSH1 0x20 ADD DUP1 DUP4 GT PUSH2 0x106B JUMPI DUP3 SWAP1 SUB PUSH1 0x1F AND DUP3 ADD SWAP2 JUMPDEST POP POP POP POP POP SWAP11 POP SWAP12 POP SWAP12 POP SWAP12 POP SWAP12 POP SWAP12 POP SWAP12 POP SWAP12 POP SWAP12 POP SWAP12 POP SWAP12 POP SWAP12 POP POP SWAP2 SWAP4 SWAP6 SWAP8 SWAP10 SWAP12 SWAP1 SWAP3 SWAP5 SWAP7 SWAP9 SWAP11 POP JUMP JUMPDEST PUSH1 0x2 PUSH1 0x0 SLOAD SUB PUSH2 0x1107 JUMPI PUSH1 0x40 MLOAD PUSH3 0x461BCD PUSH1 0xE5 SHL DUP2 MSTORE PUSH1 0x20 PUSH1 0x4 DUP3 ADD MSTORE PUSH1 0x1F PUSH1 0x24 DUP3 ADD MSTORE PUSH32 0x5265656E7472616E637947756172643A207265656E7472616E742063616C6C00 PUSH1 0x44 DUP3 ADD MSTORE PUSH1 0x64 ADD PUSH2 0x490 JUMP JUMPDEST PUSH1 0x2 PUSH1 0x0 SWAP1 DUP2 SSTORE DUP5 DUP2 MSTORE PUSH1 0x1 PUSH1 0x20 MSTORE PUSH1 0x40 SWAP1 KECCAK256 PUSH1 0x9 DUP2 ADD SLOAD PUSH2 0x100 SWAP1 DIV PUSH1 0xFF AND PUSH2 0x1167 JUMPI PUSH1 0x40 MLOAD PUSH3 0x461BCD PUSH1 0xE5 SHL DUP2 MSTORE PUSH1 0x20 PUSH1 0x4 DUP3 ADD MSTORE PUSH1 0x11 PUSH1 0x24 DUP3 ADD MSTORE PUSH17 0x4E6F207061796F75742070656E64696E67 PUSH1 0x78 SHL PUSH1 0x44 DUP3 ADD MSTORE PUSH1 0x64 ADD PUSH2 0x490 JUMP JUMPDEST PUSH1 0x0 PUSH1 0x1 DUP3 PUSH1 0x4 ADD SLOAD PUSH2 0x117A SWAP2 SWAP1 PUSH2 0x230A JUMP JUMPDEST SWAP1 POP PUSH1 0x0 DUP3 PUSH1 0x1 ADD DUP3 DUP2 SLOAD DUP2 LT PUSH2 0x1193 JUMPI PUSH2 0x1193 PUSH2 0x231D JUMP JUMPDEST PUSH1 0x0 SWAP2 DUP3 MSTORE PUSH1 0x20 SWAP1 SWAP2 KECCAK256 ADD SLOAD PUSH1 0x1 PUSH1 0x1 PUSH1 0xA0 SHL SUB AND SWAP1 POP CALLER DUP2 EQ PUSH2 0x11F1 JUMPI PUSH1 0x40 MLOAD PUSH3 0x461BCD PUSH1 0xE5 SHL DUP2 MSTORE PUSH1 0x20 PUSH1 0x4 DUP3 ADD MSTORE PUSH1 0x15 PUSH1 0x24 DUP3 ADD MSTORE PUSH21 0x139BDD0818DD5C9C995B9D081C9958DA5C1A595B9D PUSH1 0x5A SHL PUSH1 0x44 DUP3 ADD MSTORE PUSH1 0x64 ADD PUSH2 0x490 JUMP JUMPDEST PUSH1 0x6 DUP4 ADD DUP1 SLOAD PUSH1 0x0 SWAP1 SWAP2 SSTORE PUSH1 0x9 DUP5 ADD DUP1 SLOAD PUSH2 0xFF00 NOT AND SWAP1 SSTORE PUSH1 0x40 DUP1 MLOAD DUP3 DUP2 MSTORE PUSH1 0x20 DUP2 ADD DUP6 SWAP1 MSTORE PUSH1 0x1 PUSH1 0x1 PUSH1 0xA0 SHL SUB DUP5 AND SWAP2 DUP11 SWAP2 PUSH32 0x5FEE043A0DB2F303C5BE0B8F554D0F9E91EFC1E74FE501166969FFC487E3B25B SWAP2 ADD PUSH1 0x40 MLOAD DUP1 SWAP2 SUB SWAP1 LOG3 PUSH2 0x125C DUP8 DUP3 DUP9 DUP9 DUP7 PUSH2 0x190B JUMP JUMPDEST DUP4 PUSH1 0x5 ADD SLOAD DUP5 PUSH1 0x4 ADD SLOAD SUB PUSH2 0xF91 JUMPI PUSH1 0x9 DUP5 ADD DUP1 SLOAD PUSH1 0xFF NOT AND PUSH1 0x2 OR SWAP1 SSTORE PUSH1 0x40 MLOAD DUP9 SWAP1 PUSH32 0xFCCD3901546CFBB42742CAC2C7335BCE34F1F8D9844F4F4B53640F79E3101087 SWAP1 PUSH1 0x0 SWAP1 LOG2 POP POP PUSH1 0x1 PUSH1 0x0 SSTORE POP POP POP POP POP POP JUMP JUMPDEST PUSH1 0x0 PUSH3 0xDBBA0 PREVRANDAO CALLER PUSH1 0x2 PUSH1 0x0 DUP2 SLOAD DUP1 SWAP3 SWAP2 SWAP1 PUSH2 0x12CF SWAP1 PUSH2 0x2486 JUMP JUMPDEST SWAP2 SWAP1 POP SSTORE PUSH1 0x40 MLOAD PUSH1 0x20 ADD PUSH2 0x1308 SWAP4 SWAP3 SWAP2 SWAP1 SWAP3 DUP4 MSTORE PUSH1 0x60 SWAP2 SWAP1 SWAP2 SHL PUSH12 0xFFFFFFFFFFFFFFFFFFFFFFFF NOT AND PUSH1 0x20 DUP4 ADD MSTORE PUSH1 0x34 DUP3 ADD MSTORE PUSH1 0x54 ADD SWAP1 JUMP JUMPDEST PUSH1 0x40 MLOAD PUSH1 0x20 DUP2 DUP4 SUB SUB DUP2 MSTORE SWAP1 PUSH1 0x40 MSTORE DUP1 MLOAD SWAP1 PUSH1 0x20 ADD KECCAK256 PUSH1 0x0 SHR PUSH2 0x132B SWAP2 SWAP1 PUSH2 0x249F JUMP JUMPDEST PUSH2 0x1338 SWAP1 PUSH3 0x186A0 PUSH2 0x22F7 JUMP JUMPDEST SWAP1 POP JUMPDEST PUSH1 0x0 DUP2 DUP2 MSTORE PUSH1 0x3 PUSH1 0x20 MSTORE PUSH1 0x40 SWAP1 KECCAK256 SLOAD PUSH1 0xFF AND ISZERO PUSH2 0x1373 JUMPI PUSH2 0x135F PUSH3 0xF423F DUP3 PUSH2 0x249F JUMP JUMPDEST PUSH2 0x136C SWAP1 PUSH3 0x186A0 PUSH2 0x22F7 JUMP JUMPDEST SWAP1 POP PUSH2 0x133B JUMP JUMPDEST PUSH1 0x0 DUP2 DUP2 MSTORE PUSH1 0x3 PUSH1 0x20 MSTORE PUSH1 0x40 SWAP1 KECCAK256 DUP1 SLOAD PUSH1 0xFF NOT AND PUSH1 0x1 OR SWAP1 SSTORE SWAP1 JUMP JUMPDEST PUSH1 0x0 PUSH32 0x0 PUSH1 0x1 PUSH1 0x1 PUSH1 0xA0 SHL SUB AND DUP6 PUSH1 0x1 PUSH1 0x1 PUSH1 0xA0 SHL SUB AND SUB PUSH2 0x13FD JUMPI PUSH2 0x13F6 PUSH32 0x0 CALLER ADDRESS DUP8 PUSH2 0x1C5B JUMP JUMPDEST POP DUP3 PUSH2 0x1739 JUMP JUMPDEST PUSH1 0x40 DUP1 MLOAD PUSH2 0x100 DUP2 ADD DUP3 MSTORE PUSH1 0x0 DUP1 DUP3 MSTORE PUSH1 0x20 DUP3 ADD DUP2 SWAP1 MSTORE SWAP2 DUP2 ADD DUP3 SWAP1 MSTORE PUSH1 0x60 DUP2 ADD DUP3 SWAP1 MSTORE PUSH1 0x80 DUP2 ADD DUP3 SWAP1 MSTORE PUSH1 0xA0 DUP2 ADD DUP3 SWAP1 MSTORE PUSH1 0xC0 DUP2 ADD DUP3 SWAP1 MSTORE PUSH1 0xE0 DUP2 ADD SWAP2 SWAP1 SWAP2 MSTORE PUSH1 0x1 PUSH1 0x1 PUSH1 0xA0 SHL SUB DUP7 AND PUSH2 0x15DB JUMPI DUP5 CALLVALUE EQ PUSH2 0x1491 JUMPI PUSH1 0x40 MLOAD PUSH3 0x461BCD PUSH1 0xE5 SHL DUP2 MSTORE PUSH1 0x20 PUSH1 0x4 DUP3 ADD MSTORE PUSH1 0x13 PUSH1 0x24 DUP3 ADD MSTORE PUSH19 0x8AA89040C2DADEEADCE840DAD2E6DAC2E8C6D PUSH1 0x6B SHL PUSH1 0x44 DUP3 ADD MSTORE PUSH1 0x64 ADD PUSH2 0x490 JUMP JUMPDEST PUSH1 0x40 MLOAD DUP1 PUSH2 0x100 ADD PUSH1 0x40 MSTORE DUP1 PUSH32 0x0 PUSH1 0x1 PUSH1 0x1 PUSH1 0xA0 SHL SUB AND DUP2 MSTORE PUSH1 0x20 ADD PUSH32 0x0 PUSH1 0x1 PUSH1 0x1 PUSH1 0xA0 SHL SUB AND DUP2 MSTORE PUSH1 0x20 ADD DUP5 PUSH3 0xFFFFFF AND DUP2 MSTORE PUSH1 0x20 ADD ADDRESS PUSH1 0x1 PUSH1 0x1 PUSH1 0xA0 SHL SUB AND DUP2 MSTORE PUSH1 0x20 ADD TIMESTAMP PUSH2 0x384 PUSH2 0x1523 SWAP2 SWAP1 PUSH2 0x22F7 JUMP JUMPDEST DUP2 MSTORE PUSH1 0x20 ADD DUP7 DUP2 MSTORE PUSH1 0x20 ADD DUP6 DUP2 MSTORE PUSH1 0x20 ADD PUSH1 0x0 PUSH1 0x1 PUSH1 0x1 PUSH1 0xA0 SHL SUB AND DUP2 MSTORE POP SWAP1 POP PUSH32 0x0 PUSH1 0x1 PUSH1 0x1 PUSH1 0xA0 SHL SUB AND PUSH4 0x414BF389 DUP7 DUP4 PUSH1 0x40 MLOAD DUP4 PUSH4 0xFFFFFFFF AND PUSH1 0xE0 SHL DUP2 MSTORE PUSH1 0x4 ADD PUSH2 0x1591 SWAP2 SWAP1 PUSH2 0x24C1 JUMP JUMPDEST PUSH1 0x20 PUSH1 0x40 MLOAD DUP1 DUP4 SUB DUP2 DUP6 DUP9 GAS CALL ISZERO DUP1 ISZERO PUSH2 0x15AF JUMPI RETURNDATASIZE PUSH1 0x0 DUP1 RETURNDATACOPY RETURNDATASIZE PUSH1 0x0 REVERT JUMPDEST POP POP POP POP POP PUSH1 0x40 MLOAD RETURNDATASIZE PUSH1 0x1F NOT PUSH1 0x1F DUP3 ADD AND DUP3 ADD DUP1 PUSH1 0x40 MSTORE POP DUP2 ADD SWAP1 PUSH2 0x15D4 SWAP2 SWAP1 PUSH2 0x253E JUMP JUMPDEST SWAP2 POP PUSH2 0x1737 JUMP JUMPDEST PUSH2 0x15E7 DUP7 CALLER ADDRESS DUP9 PUSH2 0x1C5B JUMP JUMPDEST PUSH2 0x1612 DUP7 PUSH32 0x0 DUP8 PUSH2 0x1D75 JUMP JUMPDEST PUSH1 0x40 MLOAD DUP1 PUSH2 0x100 ADD PUSH1 0x40 MSTORE DUP1 DUP8 PUSH1 0x1 PUSH1 0x1 PUSH1 0xA0 SHL SUB AND DUP2 MSTORE PUSH1 0x20 ADD PUSH32 0x0 PUSH1 0x1 PUSH1 0x1 PUSH1 0xA0 SHL SUB AND DUP2 MSTORE PUSH1 0x20 ADD DUP5 PUSH3 0xFFFFFF AND DUP2 MSTORE PUSH1 0x20 ADD ADDRESS PUSH1 0x1 PUSH1 0x1 PUSH1 0xA0 SHL SUB AND DUP2 MSTORE PUSH1 0x20 ADD TIMESTAMP PUSH2 0x384 PUSH2 0x1684 SWAP2 SWAP1 PUSH2 0x22F7 JUMP JUMPDEST DUP2 MSTORE PUSH1 0x20 ADD DUP7 DUP2 MSTORE PUSH1 0x20 ADD DUP6 DUP2 MSTORE PUSH1 0x20 ADD PUSH1 0x0 PUSH1 0x1 PUSH1 0x1 PUSH1 0xA0 SHL SUB AND DUP2 MSTORE POP SWAP1 POP PUSH32 0x0 PUSH1 0x1 PUSH1 0x1 PUSH1 0xA0 SHL SUB AND PUSH4 0x414BF389 DUP3 PUSH1 0x40 MLOAD DUP3 PUSH4 0xFFFFFFFF AND PUSH1 0xE0 SHL DUP2 MSTORE PUSH1 0x4 ADD PUSH2 0x16F1 SWAP2 SWAP1 PUSH2 0x24C1 JUMP JUMPDEST PUSH1 0x20 PUSH1 0x40 MLOAD DUP1 DUP4 SUB DUP2 PUSH1 0x0 DUP8 GAS CALL ISZERO DUP1 ISZERO PUSH2 0x1710 JUMPI RETURNDATASIZE PUSH1 0x0 DUP1 RETURNDATACOPY RETURNDATASIZE PUSH1 0x0 REVERT JUMPDEST POP POP POP POP PUSH1 0x40 MLOAD RETURNDATASIZE PUSH1 0x1F NOT PUSH1 0x1F DUP3 ADD AND DUP3 ADD DUP1 PUSH1 0x40 MSTORE POP DUP2 ADD SWAP1 PUSH2 0x1734 SWAP2 SWAP1 PUSH2 0x253E JUMP JUMPDEST SWAP2 POP JUMPDEST POP JUMPDEST SWAP5 SWAP4 POP POP POP POP JUMP JUMPDEST PUSH1 0x40 DUP1 MLOAD PUSH1 0x1 PUSH1 0x1 PUSH1 0xA0 SHL SUB DUP5 DUP2 AND PUSH1 0x24 DUP4 ADD MSTORE PUSH1 0x44 DUP1 DUP4 ADD DUP6 SWAP1 MSTORE DUP4 MLOAD DUP1 DUP5 SUB SWAP1 SWAP2 ADD DUP2 MSTORE PUSH1 0x64 SWAP1 SWAP3 ADD DUP4 MSTORE PUSH1 0x20 DUP3 ADD DUP1 MLOAD PUSH1 0x1 PUSH1 0x1 PUSH1 0xE0 SHL SUB AND PUSH4 0xA9059CBB PUSH1 0xE0 SHL OR SWAP1 MSTORE SWAP2 MLOAD PUSH1 0x0 SWAP3 DUP4 SWAP3 SWAP1 DUP8 AND SWAP2 PUSH2 0x179D SWAP2 SWAP1 PUSH2 0x2557 JUMP JUMPDEST PUSH1 0x0 PUSH1 0x40 MLOAD DUP1 DUP4 SUB DUP2 PUSH1 0x0 DUP7 GAS CALL SWAP2 POP POP RETURNDATASIZE DUP1 PUSH1 0x0 DUP2 EQ PUSH2 0x17DA JUMPI PUSH1 0x40 MLOAD SWAP2 POP PUSH1 0x1F NOT PUSH1 0x3F RETURNDATASIZE ADD AND DUP3 ADD PUSH1 0x40 MSTORE RETURNDATASIZE DUP3 MSTORE RETURNDATASIZE PUSH1 0x0 PUSH1 0x20 DUP5 ADD RETURNDATACOPY PUSH2 0x17DF JUMP JUMPDEST PUSH1 0x60 SWAP2 POP JUMPDEST POP SWAP2 POP SWAP2 POP DUP2 DUP1 ISZERO PUSH2 0x1809 JUMPI POP DUP1 MLOAD ISZERO DUP1 PUSH2 0x1809 JUMPI POP DUP1 DUP1 PUSH1 0x20 ADD SWAP1 MLOAD DUP2 ADD SWAP1 PUSH2 0x1809 SWAP2 SWAP1 PUSH2 0x2573 JUMP JUMPDEST PUSH2 0x1847 JUMPI PUSH1 0x40 MLOAD PUSH3 0x461BCD PUSH1 0xE5 SHL DUP2 MSTORE PUSH1 0x20 PUSH1 0x4 DUP3 ADD MSTORE PUSH1 0xF PUSH1 0x24 DUP3 ADD MSTORE PUSH15 0x151C985B9CD9995C8819985A5B1959 PUSH1 0x8A SHL PUSH1 0x44 DUP3 ADD MSTORE PUSH1 0x64 ADD PUSH2 0x490 JUMP JUMPDEST POP POP POP POP POP JUMP JUMPDEST PUSH1 0x0 DUP2 DUP2 MSTORE PUSH1 0x1 PUSH1 0x20 MSTORE PUSH1 0x40 DUP2 KECCAK256 PUSH1 0x9 DUP2 ADD DUP1 SLOAD PUSH2 0xFF00 NOT AND PUSH2 0x100 OR SWAP1 SSTORE PUSH1 0x4 DUP2 ADD DUP1 SLOAD SWAP2 SWAP3 PUSH2 0x187E DUP4 PUSH2 0x2486 JUMP JUMPDEST SWAP1 SWAP2 SSTORE POP POP PUSH1 0x0 PUSH1 0xA DUP3 ADD SSTORE PUSH1 0x8 DUP2 ADD SLOAD PUSH2 0x1899 SWAP1 TIMESTAMP PUSH2 0x22F7 JUMP JUMPDEST PUSH1 0x7 DUP3 ADD SSTORE PUSH1 0x0 JUMPDEST PUSH1 0x1 DUP3 ADD SLOAD DUP2 LT ISZERO PUSH2 0x1906 JUMPI PUSH1 0x0 DUP3 PUSH1 0xB ADD PUSH1 0x0 DUP5 PUSH1 0x1 ADD DUP5 DUP2 SLOAD DUP2 LT PUSH2 0x18CA JUMPI PUSH2 0x18CA PUSH2 0x231D JUMP JUMPDEST PUSH1 0x0 SWAP2 DUP3 MSTORE PUSH1 0x20 DUP1 DUP4 KECCAK256 SWAP2 SWAP1 SWAP2 ADD SLOAD PUSH1 0x1 PUSH1 0x1 PUSH1 0xA0 SHL SUB AND DUP4 MSTORE DUP3 ADD SWAP3 SWAP1 SWAP3 MSTORE PUSH1 0x40 ADD SWAP1 KECCAK256 DUP1 SLOAD PUSH1 0xFF NOT AND SWAP2 ISZERO ISZERO SWAP2 SWAP1 SWAP2 OR SWAP1 SSTORE PUSH1 0x1 ADD PUSH2 0x18A1 JUMP JUMPDEST POP POP POP JUMP JUMPDEST PUSH32 0x0 PUSH1 0x1 PUSH1 0x1 PUSH1 0xA0 SHL SUB AND DUP6 PUSH1 0x1 PUSH1 0x1 PUSH1 0xA0 SHL SUB AND SUB PUSH2 0x1974 JUMPI PUSH2 0x196F PUSH32 0x0 DUP3 DUP7 PUSH2 0x1741 JUMP JUMPDEST PUSH2 0x1847 JUMP JUMPDEST PUSH1 0x1 PUSH1 0x1 PUSH1 0xA0 SHL SUB DUP6 AND ISZERO PUSH1 0x0 DUP2 PUSH2 0x198C JUMPI DUP7 PUSH2 0x19AE JUMP JUMPDEST PUSH32 0x0 JUMPDEST SWAP1 POP PUSH1 0x0 DUP3 PUSH2 0x19BD JUMPI DUP4 PUSH2 0x19BF JUMP JUMPDEST ADDRESS JUMPDEST SWAP1 POP PUSH2 0x1A0C PUSH32 0x0 PUSH32 0x0 DUP10 PUSH2 0x1D75 JUMP JUMPDEST PUSH1 0x0 PUSH1 0x40 MLOAD DUP1 PUSH2 0x100 ADD PUSH1 0x40 MSTORE DUP1 PUSH32 0x0 PUSH1 0x1 PUSH1 0x1 PUSH1 0xA0 SHL SUB AND DUP2 MSTORE PUSH1 0x20 ADD DUP5 PUSH1 0x1 PUSH1 0x1 PUSH1 0xA0 SHL SUB AND DUP2 MSTORE PUSH1 0x20 ADD DUP8 PUSH3 0xFFFFFF AND DUP2 MSTORE PUSH1 0x20 ADD DUP4 PUSH1 0x1 PUSH1 0x1 PUSH1 0xA0 SHL SUB AND DUP2 MSTORE PUSH1 0x20 ADD TIMESTAMP PUSH2 0x384 PUSH2 0x1A80 SWAP2 SWAP1 PUSH2 0x22F7 JUMP JUMPDEST DUP2 MSTORE PUSH1 0x20 ADD DUP10 DUP2 MSTORE PUSH1 0x20 ADD DUP9 DUP2 MSTORE PUSH1 0x20 ADD PUSH1 0x0 PUSH1 0x1 PUSH1 0x1 PUSH1 0xA0 SHL SUB AND DUP2 MSTORE POP SWAP1 POP PUSH1 0x0 PUSH32 0x0 PUSH1 0x1 PUSH1 0x1 PUSH1 0xA0 SHL SUB AND PUSH4 0x414BF389 DUP4 PUSH1 0x40 MLOAD DUP3 PUSH4 0xFFFFFFFF AND PUSH1 0xE0 SHL DUP2 MSTORE PUSH1 0x4 ADD PUSH2 0x1AEF SWAP2 SWAP1 PUSH2 0x24C1 JUMP JUMPDEST PUSH1 0x20 PUSH1 0x40 MLOAD DUP1 DUP4 SUB DUP2 PUSH1 0x0 DUP8 GAS CALL ISZERO DUP1 ISZERO PUSH2 0x1B0E JUMPI RETURNDATASIZE PUSH1 0x0 DUP1 RETURNDATACOPY RETURNDATASIZE PUSH1 0x0 REVERT JUMPDEST POP POP POP POP PUSH1 0x40 MLOAD RETURNDATASIZE PUSH1 0x1F NOT PUSH1 0x1F DUP3 ADD AND DUP3 ADD DUP1 PUSH1 0x40 MSTORE POP DUP2 ADD SWAP1 PUSH2 0x1B32 SWAP2 SWAP1 PUSH2 0x253E JUMP JUMPDEST SWAP1 POP DUP5 ISZERO PUSH2 0x1C4F JUMPI PUSH1 0x40 MLOAD PUSH4 0x2E1A7D4D PUSH1 0xE0 SHL DUP2 MSTORE PUSH1 0x4 DUP2 ADD DUP3 SWAP1 MSTORE PUSH32 0x0 PUSH1 0x1 PUSH1 0x1 PUSH1 0xA0 SHL SUB AND SWAP1 PUSH4 0x2E1A7D4D SWAP1 PUSH1 0x24 ADD PUSH1 0x0 PUSH1 0x40 MLOAD DUP1 DUP4 SUB DUP2 PUSH1 0x0 DUP8 DUP1 EXTCODESIZE ISZERO DUP1 ISZERO PUSH2 0x1B9C JUMPI PUSH1 0x0 DUP1 REVERT JUMPDEST POP GAS CALL ISZERO DUP1 ISZERO PUSH2 0x1BB0 JUMPI RETURNDATASIZE PUSH1 0x0 DUP1 RETURNDATACOPY RETURNDATASIZE PUSH1 0x0 REVERT JUMPDEST POP POP POP POP PUSH1 0x0 DUP7 PUSH1 0x1 PUSH1 0x1 PUSH1 0xA0 SHL SUB AND DUP3 PUSH1 0x40 MLOAD PUSH1 0x0 PUSH1 0x40 MLOAD DUP1 DUP4 SUB DUP2 DUP6 DUP8 GAS CALL SWAP3 POP POP POP RETURNDATASIZE DUP1 PUSH1 0x0 DUP2 EQ PUSH2 0x1C01 JUMPI PUSH1 0x40 MLOAD SWAP2 POP PUSH1 0x1F NOT PUSH1 0x3F RETURNDATASIZE ADD AND DUP3 ADD PUSH1 0x40 MSTORE RETURNDATASIZE DUP3 MSTORE RETURNDATASIZE PUSH1 0x0 PUSH1 0x20 DUP5 ADD RETURNDATACOPY PUSH2 0x1C06 JUMP JUMPDEST PUSH1 0x60 SWAP2 POP JUMPDEST POP POP SWAP1 POP DUP1 PUSH2 0x1C4D JUMPI PUSH1 0x40 MLOAD PUSH3 0x461BCD PUSH1 0xE5 SHL DUP2 MSTORE PUSH1 0x20 PUSH1 0x4 DUP3 ADD MSTORE PUSH1 0x13 PUSH1 0x24 DUP3 ADD MSTORE PUSH19 0x115512081D1C985B9CD9995C8819985A5B1959 PUSH1 0x6A SHL PUSH1 0x44 DUP3 ADD MSTORE PUSH1 0x64 ADD PUSH2 0x490 JUMP JUMPDEST POP JUMPDEST POP POP POP POP POP POP POP POP POP POP JUMP JUMPDEST PUSH1 0x40 DUP1 MLOAD PUSH1 0x1 PUSH1 0x1 PUSH1 0xA0 SHL SUB DUP6 DUP2 AND PUSH1 0x24 DUP4 ADD MSTORE DUP5 DUP2 AND PUSH1 0x44 DUP4 ADD MSTORE PUSH1 0x64 DUP1 DUP4 ADD DUP6 SWAP1 MSTORE DUP4 MLOAD DUP1 DUP5 SUB SWAP1 SWAP2 ADD DUP2 MSTORE PUSH1 0x84 SWAP1 SWAP3 ADD DUP4 MSTORE PUSH1 0x20 DUP3 ADD DUP1 MLOAD PUSH1 0x1 PUSH1 0x1 PUSH1 0xE0 SHL SUB AND PUSH4 0x23B872DD PUSH1 0xE0 SHL OR SWAP1 MSTORE SWAP2 MLOAD PUSH1 0x0 SWAP3 DUP4 SWAP3 SWAP1 DUP9 AND SWAP2 PUSH2 0x1CBF SWAP2 SWAP1 PUSH2 0x2557 JUMP JUMPDEST PUSH1 0x0 PUSH1 0x40 MLOAD DUP1 DUP4 SUB DUP2 PUSH1 0x0 DUP7 GAS CALL SWAP2 POP POP RETURNDATASIZE DUP1 PUSH1 0x0 DUP2 EQ PUSH2 0x1CFC JUMPI PUSH1 0x40 MLOAD SWAP2 POP PUSH1 0x1F NOT PUSH1 0x3F RETURNDATASIZE ADD AND DUP3 ADD PUSH1 0x40 MSTORE RETURNDATASIZE DUP3 MSTORE RETURNDATASIZE PUSH1 0x0 PUSH1 0x20 DUP5 ADD RETURNDATACOPY PUSH2 0x1D01 JUMP JUMPDEST PUSH1 0x60 SWAP2 POP JUMPDEST POP SWAP2 POP SWAP2 POP DUP2 DUP1 ISZERO PUSH2 0x1D2B JUMPI POP DUP1 MLOAD ISZERO DUP1 PUSH2 0x1D2B JUMPI POP DUP1 DUP1 PUSH1 0x20 ADD SWAP1 MLOAD DUP2 ADD SWAP1 PUSH2 0x1D2B SWAP2 SWAP1 PUSH2 0x2573 JUMP JUMPDEST PUSH2 0x1D6D JUMPI PUSH1 0x40 MLOAD PUSH3 0x461BCD PUSH1 0xE5 SHL DUP2 MSTORE PUSH1 0x20 PUSH1 0x4 DUP3 ADD MSTORE PUSH1 0x13 PUSH1 0x24 DUP3 ADD MSTORE PUSH19 0x151C985B9CD9995C919C9BDB4819985A5B1959 PUSH1 0x6A SHL PUSH1 0x44 DUP3 ADD MSTORE PUSH1 0x64 ADD PUSH2 0x490 JUMP JUMPDEST POP POP POP POP POP POP JUMP JUMPDEST PUSH1 0x40 DUP1 MLOAD PUSH1 0x1 PUSH1 0x1 PUSH1 0xA0 SHL SUB DUP5 DUP2 AND PUSH1 0x24 DUP4 ADD MSTORE PUSH1 0x0 PUSH1 0x44 DUP1 DUP5 ADD DUP3 SWAP1 MSTORE DUP5 MLOAD DUP1 DUP6 SUB SWAP1 SWAP2 ADD DUP2 MSTORE PUSH1 0x64 SWAP1 SWAP4 ADD DUP5 MSTORE PUSH1 0x20 DUP4 ADD DUP1 MLOAD PUSH1 0x1 PUSH1 0x1 PUSH1 0xE0 SHL SUB AND PUSH4 0x95EA7B3 PUSH1 0xE0 SHL OR SWAP1 MSTORE SWAP3 MLOAD SWAP1 DUP7 AND SWAP2 PUSH2 0x1DCD SWAP2 PUSH2 0x2557 JUMP JUMPDEST PUSH1 0x0 PUSH1 0x40 MLOAD DUP1 DUP4 SUB DUP2 PUSH1 0x0 DUP7 GAS CALL SWAP2 POP POP RETURNDATASIZE DUP1 PUSH1 0x0 DUP2 EQ PUSH2 0x1E0A JUMPI PUSH1 0x40 MLOAD SWAP2 POP PUSH1 0x1F NOT PUSH1 0x3F RETURNDATASIZE ADD AND DUP3 ADD PUSH1 0x40 MSTORE RETURNDATASIZE DUP3 MSTORE RETURNDATASIZE PUSH1 0x0 PUSH1 0x20 DUP5 ADD RETURNDATACOPY PUSH2 0x1E0F JUMP JUMPDEST PUSH1 0x60 SWAP2 POP JUMPDEST POP POP SWAP1 POP DUP1 PUSH2 0x1E57 JUMPI PUSH1 0x40 MLOAD PUSH3 0x461BCD PUSH1 0xE5 SHL DUP2 MSTORE PUSH1 0x20 PUSH1 0x4 DUP3 ADD MSTORE PUSH1 0x14 PUSH1 0x24 DUP3 ADD MSTORE PUSH20 0x105C1C1C9BDD99481C995CD95D0819985A5B1959 PUSH1 0x62 SHL PUSH1 0x44 DUP3 ADD MSTORE PUSH1 0x64 ADD PUSH2 0x490 JUMP JUMPDEST PUSH1 0x40 DUP1 MLOAD PUSH1 0x1 PUSH1 0x1 PUSH1 0xA0 SHL SUB DUP6 DUP2 AND PUSH1 0x24 DUP4 ADD MSTORE PUSH1 0x44 DUP1 DUP4 ADD DUP7 SWAP1 MSTORE DUP4 MLOAD DUP1 DUP5 SUB SWAP1 SWAP2 ADD DUP2 MSTORE PUSH1 0x64 SWAP1 SWAP3 ADD DUP4 MSTORE PUSH1 0x20 DUP3 ADD DUP1 MLOAD PUSH1 0x1 PUSH1 0x1 PUSH1 0xE0 SHL SUB AND PUSH4 0x95EA7B3 PUSH1 0xE0 SHL OR SWAP1 MSTORE SWAP2 MLOAD PUSH1 0x0 SWAP3 DUP4 SWAP3 SWAP1 DUP9 AND SWAP2 PUSH2 0x1EB3 SWAP2 SWAP1 PUSH2 0x2557 JUMP JUMPDEST PUSH1 0x0 PUSH1 0x40 MLOAD DUP1 DUP4 SUB DUP2 PUSH1 0x0 DUP7 GAS CALL SWAP2 POP POP RETURNDATASIZE DUP1 PUSH1 0x0 DUP2 EQ PUSH2 0x1EF0 JUMPI PUSH1 0x40 MLOAD SWAP2 POP PUSH1 0x1F NOT PUSH1 0x3F RETURNDATASIZE ADD AND DUP3 ADD PUSH1 0x40 MSTORE RETURNDATASIZE DUP3 MSTORE RETURNDATASIZE PUSH1 0x0 PUSH1 0x20 DUP5 ADD RETURNDATACOPY PUSH2 0x1EF5 JUMP JUMPDEST PUSH1 0x60 SWAP2 POP JUMPDEST POP SWAP2 POP SWAP2 POP DUP2 DUP1 ISZERO PUSH2 0x1F1F JUMPI POP DUP1 MLOAD ISZERO DUP1 PUSH2 0x1F1F JUMPI POP DUP1 DUP1 PUSH1 0x20 ADD SWAP1 MLOAD DUP2 ADD SWAP1 PUSH2 0x1F1F SWAP2 SWAP1 PUSH2 0x2573 JUMP JUMPDEST PUSH2 0x1D6D JUMPI PUSH1 0x40 MLOAD PUSH3 0x461BCD PUSH1 0xE5 SHL DUP2 MSTORE PUSH1 0x20 PUSH1 0x4 DUP3 ADD MSTORE PUSH1 0xE PUSH1 0x24 DUP3 ADD MSTORE PUSH14 0x105C1C1C9BDD994819985A5B1959 PUSH1 0x92 SHL PUSH1 0x44 DUP3 ADD MSTORE PUSH1 0x64 ADD PUSH2 0x490 JUMP JUMPDEST PUSH1 0x0 PUSH1 0x20 DUP3 DUP5 SUB SLT ISZERO PUSH2 0x1F6E JUMPI PUSH1 0x0 DUP1 REVERT JUMPDEST POP CALLDATALOAD SWAP2 SWAP1 POP JUMP JUMPDEST DUP1 CALLDATALOAD PUSH1 0x1 PUSH1 0x1 PUSH1 0xA0 SHL SUB DUP2 AND DUP2 EQ PUSH2 0x1F8C JUMPI PUSH1 0x0 DUP1 REVERT JUMPDEST SWAP2 SWAP1 POP JUMP JUMPDEST PUSH1 0x0 PUSH1 0x20 DUP3 DUP5 SUB SLT ISZERO PUSH2 0x1FA3 JUMPI PUSH1 0x0 DUP1 REVERT JUMPDEST PUSH2 0x1FAC DUP3 PUSH2 0x1F75 JUMP JUMPDEST SWAP4 SWAP3 POP POP POP JUMP JUMPDEST PUSH1 0x20 DUP1 DUP3 MSTORE DUP3 MLOAD DUP3 DUP3 ADD DUP2 SWAP1 MSTORE PUSH1 0x0 SWAP2 DUP5 ADD SWAP1 PUSH1 0x40 DUP5 ADD SWAP1 DUP4 JUMPDEST DUP2 DUP2 LT ISZERO PUSH2 0x1FEB JUMPI DUP4 MLOAD DUP4 MSTORE PUSH1 0x20 SWAP4 DUP5 ADD SWAP4 SWAP1 SWAP3 ADD SWAP2 PUSH1 0x1 ADD PUSH2 0x1FCD JUMP JUMPDEST POP SWAP1 SWAP6 SWAP5 POP POP POP POP POP JUMP JUMPDEST PUSH4 0x4E487B71 PUSH1 0xE0 SHL PUSH1 0x0 MSTORE PUSH1 0x41 PUSH1 0x4 MSTORE PUSH1 0x24 PUSH1 0x0 REVERT JUMPDEST PUSH1 0x0 DUP1 PUSH1 0x0 DUP1 PUSH1 0x80 DUP6 DUP8 SUB SLT ISZERO PUSH2 0x2022 JUMPI PUSH1 0x0 DUP1 REVERT JUMPDEST DUP5 CALLDATALOAD PUSH8 0xFFFFFFFFFFFFFFFF DUP2 GT ISZERO PUSH2 0x2039 JUMPI PUSH1 0x0 DUP1 REVERT JUMPDEST DUP6 ADD PUSH1 0x1F DUP2 ADD DUP8 SGT PUSH2 0x204A JUMPI PUSH1 0x0 DUP1 REVERT JUMPDEST DUP1 CALLDATALOAD PUSH8 0xFFFFFFFFFFFFFFFF DUP2 GT ISZERO PUSH2 0x2064 JUMPI PUSH2 0x2064 PUSH2 0x1FF6 JUMP JUMPDEST PUSH1 0x40 MLOAD PUSH1 0x1F DUP3 ADD PUSH1 0x1F NOT SWAP1 DUP2 AND PUSH1 0x3F ADD AND DUP2 ADD PUSH8 0xFFFFFFFFFFFFFFFF DUP2 GT DUP3 DUP3 LT OR ISZERO PUSH2 0x2093 JUMPI PUSH2 0x2093 PUSH2 0x1FF6 JUMP JUMPDEST PUSH1 0x40 MSTORE DUP2 DUP2 MSTORE DUP3 DUP3 ADD PUSH1 0x20 ADD DUP10 LT ISZERO PUSH2 0x20AB JUMPI PUSH1 0x0 DUP1 REVERT JUMPDEST DUP2 PUSH1 0x20 DUP5 ADD PUSH1 0x20 DUP4 ADD CALLDATACOPY PUSH1 0x0 PUSH1 0x20 SWAP3 DUP3 ADD DUP4 ADD MSTORE SWAP9 SWAP1 DUP8 ADD CALLDATALOAD SWAP8 POP PUSH1 0x40 DUP8 ADD CALLDATALOAD SWAP7 PUSH1 0x60 ADD CALLDATALOAD SWAP6 POP SWAP4 POP POP POP POP JUMP JUMPDEST PUSH1 0x0 JUMPDEST DUP4 DUP2 LT ISZERO PUSH2 0x20F4 JUMPI DUP2 DUP2 ADD MLOAD DUP4 DUP3 ADD MSTORE PUSH1 0x20 ADD PUSH2 0x20DC JUMP JUMPDEST POP POP PUSH1 0x0 SWAP2 ADD MSTORE JUMP JUMPDEST PUSH1 0x0 DUP2 MLOAD DUP1 DUP5 MSTORE PUSH2 0x2115 DUP2 PUSH1 0x20 DUP7 ADD PUSH1 0x20 DUP7 ADD PUSH2 0x20D9 JUMP JUMPDEST PUSH1 0x1F ADD PUSH1 0x1F NOT AND SWAP3 SWAP1 SWAP3 ADD PUSH1 0x20 ADD SWAP3 SWAP2 POP POP JUMP JUMPDEST PUSH4 0x4E487B71 PUSH1 0xE0 SHL PUSH1 0x0 MSTORE PUSH1 0x21 PUSH1 0x4 MSTORE PUSH1 0x24 PUSH1 0x0 REVERT JUMPDEST PUSH2 0x160 DUP2 MSTORE PUSH1 0x0 PUSH2 0x2154 PUSH2 0x160 DUP4 ADD DUP15 PUSH2 0x20FD JUMP JUMPDEST SWAP1 POP DUP12 PUSH1 0x20 DUP4 ADD MSTORE DUP11 PUSH1 0x40 DUP4 ADD MSTORE DUP10 PUSH1 0x60 DUP4 ADD MSTORE DUP9 PUSH1 0x80 DUP4 ADD MSTORE DUP8 PUSH1 0xA0 DUP4 ADD MSTORE DUP7 PUSH1 0xC0 DUP4 ADD MSTORE DUP6 PUSH1 0xE0 DUP4 ADD MSTORE PUSH1 0x3 DUP6 LT PUSH2 0x219E JUMPI PUSH4 0x4E487B71 PUSH1 0xE0 SHL PUSH1 0x0 MSTORE PUSH1 0x21 PUSH1 0x4 MSTORE PUSH1 0x24 PUSH1 0x0 REVERT JUMPDEST DUP5 PUSH2 0x100 DUP4 ADD MSTORE PUSH2 0x21B4 PUSH2 0x120 DUP4 ADD DUP6 ISZERO ISZERO SWAP1 MSTORE JUMP JUMPDEST DUP3 PUSH2 0x140 DUP4 ADD MSTORE SWAP13 SWAP12 POP POP POP POP POP POP POP POP POP POP POP POP JUMP JUMPDEST PUSH1 0x20 DUP1 DUP3 MSTORE DUP3 MLOAD DUP3 DUP3 ADD DUP2 SWAP1 MSTORE PUSH1 0x0 SWAP2 DUP5 ADD SWAP1 PUSH1 0x40 DUP5 ADD SWAP1 DUP4 JUMPDEST DUP2 DUP2 LT ISZERO PUSH2 0x1FEB JUMPI DUP4 MLOAD PUSH1 0x1 PUSH1 0x1 PUSH1 0xA0 SHL SUB AND DUP4 MSTORE PUSH1 0x20 SWAP4 DUP5 ADD SWAP4 SWAP1 SWAP3 ADD SWAP2 PUSH1 0x1 ADD PUSH2 0x21E5 JUMP JUMPDEST PUSH1 0x0 DUP1 PUSH1 0x40 DUP4 DUP6 SUB SLT ISZERO PUSH2 0x221F JUMPI PUSH1 0x0 DUP1 REVERT JUMPDEST DUP3 CALLDATALOAD SWAP2 POP PUSH2 0x222F PUSH1 0x20 DUP5 ADD PUSH2 0x1F75 JUMP JUMPDEST SWAP1 POP SWAP3 POP SWAP3 SWAP1 POP JUMP JUMPDEST DUP1 CALLDATALOAD PUSH3 0xFFFFFF DUP2 AND DUP2 EQ PUSH2 0x1F8C JUMPI PUSH1 0x0 DUP1 REVERT JUMPDEST PUSH1 0x0 DUP1 PUSH1 0x0 DUP1 PUSH1 0x0 PUSH1 0xA0 DUP7 DUP9 SUB SLT ISZERO PUSH2 0x2263 JUMPI PUSH1 0x0 DUP1 REVERT JUMPDEST DUP6 CALLDATALOAD SWAP5 POP PUSH2 0x2273 PUSH1 0x20 DUP8 ADD PUSH2 0x1F75 JUMP JUMPDEST SWAP4 POP PUSH1 0x40 DUP7 ADD CALLDATALOAD SWAP3 POP PUSH1 0x60 DUP7 ADD CALLDATALOAD SWAP2 POP PUSH2 0x228F PUSH1 0x80 DUP8 ADD PUSH2 0x2238 JUMP JUMPDEST SWAP1 POP SWAP3 SWAP6 POP SWAP3 SWAP6 SWAP1 SWAP4 POP JUMP JUMPDEST PUSH1 0x0 DUP1 PUSH1 0x0 DUP1 PUSH1 0x80 DUP6 DUP8 SUB SLT ISZERO PUSH2 0x22B1 JUMPI PUSH1 0x0 DUP1 REVERT JUMPDEST DUP5 CALLDATALOAD SWAP4 POP PUSH2 0x22C1 PUSH1 0x20 DUP7 ADD PUSH2 0x1F75 JUMP JUMPDEST SWAP3 POP PUSH1 0x40 DUP6 ADD CALLDATALOAD SWAP2 POP PUSH2 0x22D6 PUSH1 0x60 DUP7 ADD PUSH2 0x2238 JUMP JUMPDEST SWAP1 POP SWAP3 SWAP6 SWAP2 SWAP5 POP SWAP3 POP JUMP JUMPDEST PUSH4 0x4E487B71 PUSH1 0xE0 SHL PUSH1 0x0 MSTORE PUSH1 0x11 PUSH1 0x4 MSTORE PUSH1 0x24 PUSH1 0x0 REVERT JUMPDEST DUP1 DUP3 ADD DUP1 DUP3 GT ISZERO PUSH2 0xC13 JUMPI PUSH2 0xC13 PUSH2 0x22E1 JUMP JUMPDEST DUP2 DUP2 SUB DUP2 DUP2 GT ISZERO PUSH2 0xC13 JUMPI PUSH2 0xC13 PUSH2 0x22E1 JUMP JUMPDEST PUSH4 0x4E487B71 PUSH1 0xE0 SHL PUSH1 0x0 MSTORE PUSH1 0x32 PUSH1 0x4 MSTORE PUSH1 0x24 PUSH1 0x0 REVERT JUMPDEST PUSH1 0x1 DUP2 DUP2 SHR SWAP1 DUP3 AND DUP1 PUSH2 0x2347 JUMPI PUSH1 0x7F DUP3 AND SWAP2 POP JUMPDEST PUSH1 0x20 DUP3 LT DUP2 SUB PUSH2 0x2367 JUMPI PUSH4 0x4E487B71 PUSH1 0xE0 SHL PUSH1 0x0 MSTORE PUSH1 0x22 PUSH1 0x4 MSTORE PUSH1 0x24 PUSH1 0x0 REVERT JUMPDEST POP SWAP2 SWAP1 POP JUMP JUMPDEST PUSH1 0x1F DUP3 GT ISZERO PUSH2 0x1906 JUMPI DUP1 PUSH1 0x0 MSTORE PUSH1 0x20 PUSH1 0x0 KECCAK256 PUSH1 0x1F DUP5 ADD PUSH1 0x5 SHR DUP2 ADD PUSH1 0x20 DUP6 LT ISZERO PUSH2 0x2394 JUMPI POP DUP1 JUMPDEST PUSH1 0x1F DUP5 ADD PUSH1 0x5 SHR DUP3 ADD SWAP2 POP JUMPDEST DUP2 DUP2 LT ISZERO PUSH2 0x1847 JUMPI PUSH1 0x0 DUP2 SSTORE PUSH1 0x1 ADD PUSH2 0x23A0 JUMP JUMPDEST DUP2 MLOAD PUSH8 0xFFFFFFFFFFFFFFFF DUP2 GT ISZERO PUSH2 0x23CE JUMPI PUSH2 0x23CE PUSH2 0x1FF6 JUMP JUMPDEST PUSH2 0x23E2 DUP2 PUSH2 0x23DC DUP5 SLOAD PUSH2 0x2333 JUMP JUMPDEST DUP5 PUSH2 0x236D JUMP JUMPDEST PUSH1 0x20 PUSH1 0x1F DUP3 GT PUSH1 0x1 DUP2 EQ PUSH2 0x2416 JUMPI PUSH1 0x0 DUP4 ISZERO PUSH2 0x23FE JUMPI POP DUP5 DUP3 ADD MLOAD JUMPDEST PUSH1 0x0 NOT PUSH1 0x3 DUP6 SWAP1 SHL SHR NOT AND PUSH1 0x1 DUP5 SWAP1 SHL OR DUP5 SSTORE PUSH2 0x1847 JUMP JUMPDEST PUSH1 0x0 DUP5 DUP2 MSTORE PUSH1 0x20 DUP2 KECCAK256 PUSH1 0x1F NOT DUP6 AND SWAP2 JUMPDEST DUP3 DUP2 LT ISZERO PUSH2 0x2446 JUMPI DUP8 DUP6 ADD MLOAD DUP3 SSTORE PUSH1 0x20 SWAP5 DUP6 ADD SWAP5 PUSH1 0x1 SWAP1 SWAP3 ADD SWAP2 ADD PUSH2 0x2426 JUMP JUMPDEST POP DUP5 DUP3 LT ISZERO PUSH2 0x2464 JUMPI DUP7 DUP5 ADD MLOAD PUSH1 0x0 NOT PUSH1 0x3 DUP8 SWAP1 SHL PUSH1 0xF8 AND SHR NOT AND DUP2 SSTORE JUMPDEST POP POP POP POP PUSH1 0x1 SWAP1 DUP2 SHL ADD SWAP1 SSTORE POP JUMP JUMPDEST PUSH1 0x20 DUP2 MSTORE PUSH1 0x0 PUSH2 0x1FAC PUSH1 0x20 DUP4 ADD DUP5 PUSH2 0x20FD JUMP JUMPDEST PUSH1 0x0 PUSH1 0x1 DUP3 ADD PUSH2 0x2498 JUMPI PUSH2 0x2498 PUSH2 0x22E1 JUMP JUMPDEST POP PUSH1 0x1 ADD SWAP1 JUMP JUMPDEST PUSH1 0x0 DUP3 PUSH2 0x24BC JUMPI PUSH4 0x4E487B71 PUSH1 0xE0 SHL PUSH1 0x0 MSTORE PUSH1 0x12 PUSH1 0x4 MSTORE PUSH1 0x24 PUSH1 0x0 REVERT JUMPDEST POP MOD SWAP1 JUMP JUMPDEST DUP2 MLOAD PUSH1 0x1 PUSH1 0x1 PUSH1 0xA0 SHL SUB SWAP1 DUP2 AND DUP3 MSTORE PUSH1 0x20 DUP1 DUP5 ADD MLOAD DUP3 AND SWAP1 DUP4 ADD MSTORE PUSH1 0x40 DUP1 DUP5 ADD MLOAD PUSH3 0xFFFFFF AND SWAP1 DUP4 ADD MSTORE PUSH1 0x60 DUP1 DUP5 ADD MLOAD SWAP2 DUP3 AND SWAP1 DUP4 ADD MSTORE PUSH2 0x100 DUP3 ADD SWAP1 POP PUSH1 0x80 DUP4 ADD MLOAD PUSH1 0x80 DUP4 ADD MSTORE PUSH1 0xA0 DUP4 ADD MLOAD PUSH1 0xA0 DUP4 ADD MSTORE PUSH1 0xC0 DUP4 ADD MLOAD PUSH1 0xC0 DUP4 ADD MSTORE PUSH1 0xE0 DUP4 ADD MLOAD PUSH2 0x2537 PUSH1 0xE0 DUP5 ADD DUP3 PUSH1 0x1 PUSH1 0x1 PUSH1 0xA0 SHL SUB AND SWAP1 MSTORE JUMP JUMPDEST POP SWAP3 SWAP2 POP POP JUMP JUMPDEST PUSH1 0x0 PUSH1 0x20 DUP3 DUP5 SUB SLT ISZERO PUSH2 0x2550 JUMPI PUSH1 0x0 DUP1 REVERT JUMPDEST POP MLOAD SWAP2 SWAP1 POP JUMP JUMPDEST PUSH1 0x0 DUP3 MLOAD PUSH2 0x2569 DUP2 DUP5 PUSH1 0x20 DUP8 ADD PUSH2 0x20D9 JUMP JUMPDEST SWAP2 SWAP1 SWAP2 ADD SWAP3 SWAP2 POP POP JUMP JUMPDEST PUSH1 0x0 PUSH1 0x20 DUP3 DUP5 SUB SLT ISZERO PUSH2 0x2585 JUMPI PUSH1 0x0 DUP1 REVERT JUMPDEST DUP2 MLOAD DUP1 ISZERO ISZERO DUP2 EQ PUSH2 0x1FAC JUMPI PUSH1 0x0 DUP1 REVERT INVALID LOG2 PUSH5 0x6970667358 0x22 SLT KECCAK256 DUP16 GAS 0xF7 RETURN SIGNEXTEND SHL 0xE7 PUSH29 0xD7F31FA9BFCCA04E8BDE7FE1ACC4DD82250963BF8051D92964736F6C63 NUMBER STOP ADDMOD SHR STOP CALLER "
        },
        "methodIdentifiers": {
          "UNISWAP_ROUTER()": "d8264920",
          "USDC()": "89a30271",
          "WETH()": "ad5c4648",
          "circleCount()": "cf0b1117",
          "circles(uint256)": "bc5e0f30",
          "claimPayout(uint256,address,uint256,uint24)": "fb479fb0",
          "contribute(uint256,address,uint256,uint256,uint24)": "d0acdd8e",
          "createCircle(string,uint256,uint256,uint256)": "b7466835",
          "getCircleInfo(uint256)": "da5f5cff",
          "getCurrentRecipient(uint256)": "9d07fd13",
          "getMemberCount(uint256)": "5ce9284f",
          "getMemberPosition(uint256,address)": "d02fa084",
          "getMembers(uint256)": "c477ecab",
          "getUserCircles(address)": "88e81d8a",
          "hasPaid(uint256,address)": "d8bc7fff",
          "joinCircle(uint256)": "86d6cfb3",
          "owner()": "8da5cb5b",
          "rescueETH()": "20800a00"
        }
      }
    }
  }
}