{
  "_format": "hh-sol-artifact-1",
  "contractName": "AjoCircle",
  "sourceName": "contracts/AjoCircle.sol",
  "abi": [
    {
      "inputs": [
        {
          "internalType": "address",
          "name": "_usdt",
          "type": "address"
        },
        {
          "internalType": "address",
          "name": "_router",
          "type": "address"
        },
        {
          "internalType": "address",
          "name": "_weth",
          "type": "address"
        }
      ],
      "stateMutability": "nonpayable",
      "type": "constructor"
    },
    {
      "anonymous": false,
      "inputs": [
        {
          "indexed": true,
          "internalType": "uint256",
          "name": "circleId",
          "type": "uint256"
        }
      ],
      "name": "CircleActivated",
      "type": "event"
    },
    {
      "anonymous": false,
      "inputs": [
        {
          "indexed": true,
          "internalType": "uint256",
          "name": "circleId",
          "type": "uint256"
        }
      ],
      "name": "CircleCompleted",
      "type": "event"
    },
    {
      "anonymous": false,
      "inputs": [
        {
          "indexed": true,
          "internalType": "uint256",
          "name": "circleId",
          "type": "uint256"
        },
        {
          "indexed": true,
          "internalType": "address",
          "name": "creator",
          "type": "address"
        },
        {
          "indexed": false,
          "internalType": "string",
          "name": "name",
          "type": "string"
        }
      ],
      "name": "CircleCreated",
      "type": "event"
    },
    {
      "anonymous": false,
      "inputs": [
        {
          "indexed": true,
          "internalType": "uint256",
          "name": "circleId",
          "type": "uint256"
        },
        {
          "indexed": true,
          "internalType": "address",
          "name": "member",
          "type": "address"
        },
        {
          "indexed": false,
          "internalType": "uint256",
          "name": "usdtAmount",
          "type": "uint256"
        },
        {
          "indexed": false,
          "internalType": "uint256",
          "name": "round",
          "type": "uint256"
        }
      ],
      "name": "ContributionMade",
      "type": "event"
    },
    {
      "anonymous": false,
      "inputs": [
        {
          "indexed": true,
          "internalType": "uint256",
          "name": "circleId",
          "type": "uint256"
        },
        {
          "indexed": true,
          "internalType": "address",
          "name": "member",
          "type": "address"
        }
      ],
      "name": "MemberJoined",
      "type": "event"
    },
    {
      "anonymous": false,
      "inputs": [
        {
          "indexed": true,
          "internalType": "uint256",
          "name": "circleId",
          "type": "uint256"
        },
        {
          "indexed": true,
          "internalType": "address",
          "name": "recipient",
          "type": "address"
        },
        {
          "indexed": false,
          "internalType": "uint256",
          "name": "amount",
          "type": "uint256"
        },
        {
          "indexed": false,
          "internalType": "uint256",
          "name": "round",
          "type": "uint256"
        }
      ],
      "name": "PayoutReleased",
      "type": "event"
    },
    {
      "inputs": [],
      "name": "UNISWAP_ROUTER",
      "outputs": [
        {
          "internalType": "address",
          "name": "",
          "type": "address"
        }
      ],
      "stateMutability": "view",
      "type": "function"
    },
    {
      "inputs": [],
      "name": "USDT",
      "outputs": [
        {
          "internalType": "address",
          "name": "",
          "type": "address"
        }
      ],
      "stateMutability": "view",
      "type": "function"
    },
    {
      "inputs": [],
      "name": "WETH",
      "outputs": [
        {
          "internalType": "address",
          "name": "",
          "type": "address"
        }
      ],
      "stateMutability": "view",
      "type": "function"
    },
    {
      "inputs": [],
      "name": "circleCount",
      "outputs": [
        {
          "internalType": "uint256",
          "name": "",
          "type": "uint256"
        }
      ],
      "stateMutability": "view",
      "type": "function"
    },
    {
      "inputs": [
        {
          "internalType": "uint256",
          "name": "",
          "type": "uint256"
        }
      ],
      "name": "circles",
      "outputs": [
        {
          "internalType": "string",
          "name": "name",
          "type": "string"
        },
        {
          "internalType": "uint256",
          "name": "maxMembers",
          "type": "uint256"
        },
        {
          "internalType": "uint256",
          "name": "contributionAmount",
          "type": "uint256"
        },
        {
          "internalType": "uint256",
          "name": "currentRound",
          "type": "uint256"
        },
        {
          "internalType": "uint256",
          "name": "totalRounds",
          "type": "uint256"
        },
        {
          "internalType": "uint256",
          "name": "poolBalance",
          "type": "uint256"
        },
        {
          "internalType": "uint256",
          "name": "nextPayoutTimestamp",
          "type": "uint256"
        },
        {
          "internalType": "uint256",
          "name": "frequency",
          "type": "uint256"
        },
        {
          "internalType": "enum AjoCircle.CircleStatus",
          "name": "status",
          "type": "uint8"
        },
        {
          "internalType": "bool",
          "name": "payoutPending",
          "type": "bool"
        },
        {
          "internalType": "uint8",
          "name": "paidCount",
          "type": "uint8"
        }
      ],
      "stateMutability": "view",
      "type": "function"
    },
    {
      "inputs": [
        {
          "internalType": "uint256",
          "name": "circleId",
          "type": "uint256"
        },
        {
          "internalType": "address",
          "name": "tokenOut",
          "type": "address"
        },
        {
          "internalType": "uint256",
          "name": "amountOutMinimum",
          "type": "uint256"
        },
        {
          "internalType": "uint24",
          "name": "poolFee",
          "type": "uint24"
        }
      ],
      "name": "claimPayout",
      "outputs": [],
      "stateMutability": "nonpayable",
      "type": "function"
    },
    {
      "inputs": [
        {
          "internalType": "uint256",
          "name": "circleId",
          "type": "uint256"
        },
        {
          "internalType": "address",
          "name": "tokenIn",
          "type": "address"
        },
        {
          "internalType": "uint256",
          "name": "amountIn",
          "type": "uint256"
        },
        {
          "internalType": "uint256",
          "name": "amountOutMinimum",
          "type": "uint256"
        },
        {
          "internalType": "uint24",
          "name": "poolFee",
          "type": "uint24"
        }
      ],
      "name": "contribute",
      "outputs": [],
      "stateMutability": "payable",
      "type": "function"
    },
    {
      "inputs": [
        {
          "internalType": "string",
          "name": "name",
          "type": "string"
        },
        {
          "internalType": "uint256",
          "name": "maxMembers",
          "type": "uint256"
        },
        {
          "internalType": "uint256",
          "name": "contributionAmountUSDT",
          "type": "uint256"
        },
        {
          "internalType": "uint256",
          "name": "frequencyInSeconds",
          "type": "uint256"
        }
      ],
      "name": "createCircle",
      "outputs": [
        {
          "internalType": "uint256",
          "name": "circleId",
          "type": "uint256"
        }
      ],
      "stateMutability": "nonpayable",
      "type": "function"
    },
    {
      "inputs": [
        {
          "internalType": "uint256",
          "name": "circleId",
          "type": "uint256"
        }
      ],
      "name": "getCircleInfo",
      "outputs": [
        {
          "internalType": "string",
          "name": "name",
          "type": "string"
        },
        {
          "internalType": "uint256",
          "name": "maxMembers",
          "type": "uint256"
        },
        {
          "internalType": "uint256",
          "name": "contributionAmount",
          "type": "uint256"
        },
        {
          "internalType": "uint256",
          "name": "currentRound",
          "type": "uint256"
        },
        {
          "internalType": "uint256",
          "name": "totalRounds",
          "type": "uint256"
        },
        {
          "internalType": "uint256",
          "name": "poolBalance",
          "type": "uint256"
        },
        {
          "internalType": "uint256",
          "name": "nextPayoutTimestamp",
          "type": "uint256"
        },
        {
          "internalType": "uint256",
          "name": "frequency",
          "type": "uint256"
        },
        {
          "internalType": "enum AjoCircle.CircleStatus",
          "name": "status",
          "type": "uint8"
        },
        {
          "internalType": "bool",
          "name": "payoutPending",
          "type": "bool"
        },
        {
          "internalType": "uint8",
          "name": "paidCount",
          "type": "uint8"
        }
      ],
      "stateMutability": "view",
      "type": "function"
    },
    {
      "inputs": [
        {
          "internalType": "uint256",
          "name": "circleId",
          "type": "uint256"
        }
      ],
      "name": "getCurrentRecipient",
      "outputs": [
        {
          "internalType": "address",
          "name": "",
          "type": "address"
        }
      ],
      "stateMutability": "view",
      "type": "function"
    },
    {
      "inputs": [
        {
          "internalType": "uint256",
          "name": "circleId",
          "type": "uint256"
        }
      ],
      "name": "getMemberCount",
      "outputs": [
        {
          "internalType": "uint256",
          "name": "",
          "type": "uint256"
        }
      ],
      "stateMutability": "view",
      "type": "function"
    },
    {
      "inputs": [
        {
          "internalType": "uint256",
          "name": "circleId",
          "type": "uint256"
        },
        {
          "internalType": "address",
          "name": "member",
          "type": "address"
        }
      ],
      "name": "getMemberPosition",
      "outputs": [
        {
          "internalType": "uint256",
          "name": "",
          "type": "uint256"
        }
      ],
      "stateMutability": "view",
      "type": "function"
    },
    {
      "inputs": [
        {
          "internalType": "uint256",
          "name": "circleId",
          "type": "uint256"
        }
      ],
      "name": "getMembers",
      "outputs": [
        {
          "internalType": "address[]",
          "name": "",
          "type": "address[]"
        }
      ],
      "stateMutability": "view",
      "type": "function"
    },
    {
      "inputs": [
        {
          "internalType": "uint256",
          "name": "circleId",
          "type": "uint256"
        },
        {
          "internalType": "address",
          "name": "member",
          "type": "address"
        }
      ],
      "name": "hasPaid",
      "outputs": [
        {
          "internalType": "bool",
          "name": "",
          "type": "bool"
        }
      ],
      "stateMutability": "view",
      "type": "function"
    },
    {
      "inputs": [
        {
          "internalType": "uint256",
          "name": "circleId",
          "type": "uint256"
        }
      ],
      "name": "joinCircle",
      "outputs": [],
      "stateMutability": "nonpayable",
      "type": "function"
    },
    {
      "stateMutability": "payable",
      "type": "receive"
    }
  ],
  "bytecode": "0x60e060405234801561001057600080fd5b506040516123bc3803806123bc83398101604081905261002f916100cc565b60016000556001600160a01b0383161580159061005457506001600160a01b03821615155b6100935760405162461bcd60e51b815260206004820152600c60248201526b5a65726f206164647265737360a01b604482015260640160405180910390fd5b6001600160a01b0392831660805290821660a0521660c05261010f565b80516001600160a01b03811681146100c757600080fd5b919050565b6000806000606084860312156100e157600080fd5b6100ea846100b0565b92506100f8602085016100b0565b9150610106604085016100b0565b90509250925092565b60805160a05160c0516122076101b5600039600081816101a8015281816111270152818161161d01526117df0152600081816102dd015281816111ce015281816112750152818161132f01528181611676015261173401526000818161026001528181610be70152818161101b0152818161105701528181611156015281816112b70152818161159c015281816115d80152818161165501526116ab01526122076000f3fe6080604052600436106100ec5760003560e01c8063c54e44eb1161008a578063d826492011610059578063d8264920146102cb578063d8bc7fff146102ff578063da5f5cff14610359578063fb479fb01461037957600080fd5b8063c54e44eb1461024e578063cf0b111714610282578063d02fa08414610298578063d0acdd8e146102b857600080fd5b8063ad5c4648116100c6578063ad5c464814610196578063b7466835146101ca578063bc5e0f30146101ea578063c477ecab1461022157600080fd5b80635ce9284f146100f857806386d6cfb31461013c5780639d07fd131461015e57600080fd5b366100f357005b600080fd5b34801561010457600080fd5b50610129610113366004611beb565b6000908152600160208190526040909120015490565b6040519081526020015b60405180910390f35b34801561014857600080fd5b5061015c610157366004611beb565b610399565b005b34801561016a57600080fd5b5061017e610179366004611beb565b610570565b6040516001600160a01b039091168152602001610133565b3480156101a257600080fd5b5061017e7f000000000000000000000000000000000000000000000000000000000000000081565b3480156101d657600080fd5b506101296101e5366004611c1a565b610604565b3480156101f657600080fd5b5061020a610205366004611beb565b61081d565b6040516101339b9a99989796959493929190611d4d565b34801561022d57600080fd5b5061024161023c366004611beb565b610904565b6040516101339190611ddc565b34801561025a57600080fd5b5061017e7f000000000000000000000000000000000000000000000000000000000000000081565b34801561028e57600080fd5b5061012960025481565b3480156102a457600080fd5b506101296102b3366004611e44565b610973565b61015c6102c6366004611e83565b6109a0565b3480156102d757600080fd5b5061017e7f000000000000000000000000000000000000000000000000000000000000000081565b34801561030b57600080fd5b5061034961031a366004611e44565b60008281526001602090815260408083206001600160a01b0385168452600a0190915290205460ff1692915050565b6040519015158152602001610133565b34801561036557600080fd5b5061020a610374366004611beb565b610cf8565b34801561038557600080fd5b5061015c610394366004611ed3565b610e18565b60008181526001602081905260409091206002810154918101549091116103f85760405162461bcd60e51b815260206004820152600e60248201526d10da5c98db19481a5cc8199d5b1b60921b60448201526064015b60405180910390fd5b6000600982015460ff16600281111561041357610413611d37565b146104515760405162461bcd60e51b815260206004820152600e60248201526d4e6f742072656372756974696e6760901b60448201526064016103ef565b336000908152600b82016020526040902054156104a35760405162461bcd60e51b815260206004820152601060248201526f20b63932b0b23c90309036b2b6b132b960811b60448201526064016103ef565b6001808201805491820181556000818152602080822090930180546001600160a01b031916339081179091559154828252600b85019093526040808220939093559151909184917f78da64a590c3052953ad9e0a5546bbf12bb68ae7634e3fb2a774e22a8c6557c19190a3600281015460018201540361056c5760098101805460ff19166001179055600881015461053b9042611f2f565b600782015560405182907faa8b7289f77c0a8b226248e26401151f4903884ab85ba3decb12926f4c7c3acc90600090a25b5050565b60008181526001602052604081206009810154610100900460ff16158061059957506004810154155b156105a75750600092915050565b6000600182600401546105ba9190611f42565b600183015490915081106105d2575060009392505050565b8160010181815481106105e7576105e7611f55565b6000918252602090912001546001600160a01b0316949350505050565b6000808551116106435760405162461bcd60e51b815260206004820152600a602482015269456d707479206e616d6560b01b60448201526064016103ef565b60028410158015610655575060328411155b6106915760405162461bcd60e51b815260206004820152600d60248201526c04d656d626572733a20322d353609c1b60448201526064016103ef565b600083116106d55760405162461bcd60e51b81526020600482015260116024820152702d32b9379031b7b73a3934b13aba34b7b760791b60448201526064016103ef565b600082116107165760405162461bcd60e51b815260206004820152600e60248201526d5a65726f206672657175656e637960901b60448201526064016103ef565b6002805490600061072683611f6b565b909155506000818152600160205260409020909150806107468782612005565b506002810185905560038101849055600581018590556008810183905560098101805460ff191690556001808201805480830182556000918252602080832090910180546001600160a01b03191633908117909155808352600b8501909152604091829020929092555183907f6f657d36deb3b1aa2e949c5df40eac9d79359a73c2402cefa7aee870f9ceafc0906107df908a906120c4565b60405180910390a3604051339083907f78da64a590c3052953ad9e0a5546bbf12bb68ae7634e3fb2a774e22a8c6557c190600090a350949350505050565b60016020526000908152604090208054819061083890611f84565b80601f016020809104026020016040519081016040528092919081815260200182805461086490611f84565b80156108b15780601f10610886576101008083540402835291602001916108b1565b820191906000526020600020905b81548152906001019060200180831161089457829003601f168201915b50505060028401546003850154600486015460058701546006880154600789015460088a01546009909a0154989995989497509295509093909260ff80821691610100810482169162010000909104168b565b60008181526001602081815260409283902090910180548351818402810184019094528084526060939283018282801561096757602002820191906000526020600020905b81546001600160a01b03168152600190910190602001808311610949575b50505050509050919050565b60008281526001602090815260408083206001600160a01b0385168452600b019091529020545b92915050565b6002600054036109f25760405162461bcd60e51b815260206004820152601f60248201527f5265656e7472616e637947756172643a207265656e7472616e742063616c6c0060448201526064016103ef565b6002600090815585815260016020819052604090912090600982015460ff166002811115610a2257610a22611d37565b14610a635760405162461bcd60e51b8152602060048201526011602482015270436972636c65206e6f742061637469766560781b60448201526064016103ef565b6009810154610100900460ff1615610ab55760405162461bcd60e51b81526020600482015260156024820152744177616974696e67207061796f757420636c61696d60581b60448201526064016103ef565b336000908152600b82016020526040902054610b025760405162461bcd60e51b815260206004820152600c60248201526b2737ba10309036b2b6b132b960a11b60448201526064016103ef565b336000908152600a8201602052604090205460ff1615610b645760405162461bcd60e51b815260206004820152601e60248201527f416c726561647920636f6e7472696275746564207468697320726f756e64000060448201526064016103ef565b6000610b7286868686611017565b90508160030154811015610bc85760405162461bcd60e51b815260206004820152601c60248201527f496e73756666696369656e74205553445420616674657220737761700000000060448201526064016103ef565b6000826003015482610bda9190611f42565b90508015610c0d57610c0d7f000000000000000000000000000000000000000000000000000000000000000033836113c9565b336000908152600a840160205260409020805460ff1916600117905560098301805462010000900460ff16906002610c44836120de565b91906101000a81548160ff021916908360ff160217905550508260030154836006016000828254610c759190611f2f565b90915550506003830154600484015460408051928352602083019190915233918a917ff9b7589b7a8d939b9da5dae90770378fe5fd7802be5d66432e85bedbdbfbcb7a910160405180910390a36002830154600984015460ff9182166201000090910490911603610ce957610ce9886114d6565b50506001600055505050505050565b600081815260016020526040812060028101546003820154600483015460058401546006850154600786015460088701546009880154885460609a998a998a998a998a998a998a998a998a998a9989989796959493929160ff808216926101008304821692620100009004909116908b90610d7290611f84565b80601f0160208091040260200160405190810160405280929190818152602001828054610d9e90611f84565b8015610deb5780601f10610dc057610100808354040283529160200191610deb565b820191906000526020600020905b815481529060010190602001808311610dce57829003601f168201915b50505050509a509b509b509b509b509b509b509b509b509b509b509b505091939597999b90929496989a50565b600260005403610e6a5760405162461bcd60e51b815260206004820152601f60248201527f5265656e7472616e637947756172643a207265656e7472616e742063616c6c0060448201526064016103ef565b600260009081558481526001602052604090206009810154610100900460ff16610eca5760405162461bcd60e51b81526020600482015260116024820152704e6f207061796f75742070656e64696e6760781b60448201526064016103ef565b600060018260040154610edd9190611f42565b90506000826001018281548110610ef657610ef6611f55565b6000918252602090912001546001600160a01b03169050338114610f545760405162461bcd60e51b8152602060048201526015602482015274139bdd0818dd5c9c995b9d081c9958da5c1a595b9d605a1b60448201526064016103ef565b600683018054600090915560098401805461ff001916905560408051828152602081018590526001600160a01b038416918a917f5fee043a0db2f303c5be0b8f554d0f9e91efc1e74fe501166969ffc487e3b25b910160405180910390a3610fbf878288888661159a565b8360050154846004015403610ce95760098401805460ff1916600217905560405188907ffccd3901546cfbb42742cac2c7335bce34f1f8d9844f4f4b53640f79e310108790600090a250506001600055505050505050565b60007f00000000000000000000000000000000000000000000000000000000000000006001600160a01b0316856001600160a01b0316036110855761107e7f00000000000000000000000000000000000000000000000000000000000000003330876118ea565b50826113c1565b6040805161010081018252600080825260208201819052918101829052606081018290526080810182905260a0810182905260c0810182905260e08101919091526001600160a01b038616611263578434146111195760405162461bcd60e51b815260206004820152601360248201527208aa89040c2dadeeadce840dad2e6dac2e8c6d606b1b60448201526064016103ef565b6040518061010001604052807f00000000000000000000000000000000000000000000000000000000000000006001600160a01b031681526020017f00000000000000000000000000000000000000000000000000000000000000006001600160a01b031681526020018462ffffff168152602001306001600160a01b03168152602001426103846111ab9190611f2f565b815260200186815260200185815260200160006001600160a01b031681525090507f00000000000000000000000000000000000000000000000000000000000000006001600160a01b031663414bf38986836040518363ffffffff1660e01b815260040161121991906120fd565b60206040518083038185885af1158015611237573d6000803e3d6000fd5b50505050506040513d601f19601f8201168201806040525081019061125c919061217a565b91506113bf565b61126f863330886118ea565b61129a867f000000000000000000000000000000000000000000000000000000000000000087611a04565b604051806101000160405280876001600160a01b031681526020017f00000000000000000000000000000000000000000000000000000000000000006001600160a01b031681526020018462ffffff168152602001306001600160a01b031681526020014261038461130c9190611f2f565b815260200186815260200185815260200160006001600160a01b031681525090507f00000000000000000000000000000000000000000000000000000000000000006001600160a01b031663414bf389826040518263ffffffff1660e01b815260040161137991906120fd565b6020604051808303816000875af1158015611398573d6000803e3d6000fd5b505050506040513d601f19601f820116820180604052508101906113bc919061217a565b91505b505b949350505050565b604080516001600160a01b038481166024830152604480830185905283518084039091018152606490920183526020820180516001600160e01b031663a9059cbb60e01b17905291516000928392908716916114259190612193565b6000604051808303816000865af19150503d8060008114611462576040519150601f19603f3d011682016040523d82523d6000602084013e611467565b606091505b509150915081801561149157508051158061149157508080602001905181019061149191906121af565b6114cf5760405162461bcd60e51b815260206004820152600f60248201526e151c985b9cd9995c8819985a5b1959608a1b60448201526064016103ef565b5050505050565b600081815260016020526040812060098101805461ff001916610100179055600481018054919261150683611f6b565b909155505060098101805462ff00001916905560088101546115289042611f2f565b600782015560005b600182015481101561159557600082600a01600084600101848154811061155957611559611f55565b6000918252602080832091909101546001600160a01b031683528201929092526040019020805460ff1916911515919091179055600101611530565b505050565b7f00000000000000000000000000000000000000000000000000000000000000006001600160a01b0316856001600160a01b031603611603576115fe7f000000000000000000000000000000000000000000000000000000000000000082866113c9565b6114cf565b6001600160a01b0385161560008161161b578661163d565b7f00000000000000000000000000000000000000000000000000000000000000005b905060008261164c578361164e565b305b905061169b7f00000000000000000000000000000000000000000000000000000000000000007f000000000000000000000000000000000000000000000000000000000000000089611a04565b60006040518061010001604052807f00000000000000000000000000000000000000000000000000000000000000006001600160a01b03168152602001846001600160a01b031681526020018762ffffff168152602001836001600160a01b031681526020014261038461170f9190611f2f565b815260200189815260200188815260200160006001600160a01b0316815250905060007f00000000000000000000000000000000000000000000000000000000000000006001600160a01b031663414bf389836040518263ffffffff1660e01b815260040161177e91906120fd565b6020604051808303816000875af115801561179d573d6000803e3d6000fd5b505050506040513d601f19601f820116820180604052508101906117c1919061217a565b905084156118de57604051632e1a7d4d60e01b8152600481018290527f00000000000000000000000000000000000000000000000000000000000000006001600160a01b031690632e1a7d4d90602401600060405180830381600087803b15801561182b57600080fd5b505af115801561183f573d6000803e3d6000fd5b505050506000866001600160a01b03168260405160006040518083038185875af1925050503d8060008114611890576040519150601f19603f3d011682016040523d82523d6000602084013e611895565b606091505b50509050806118dc5760405162461bcd60e51b8152602060048201526013602482015272115512081d1c985b9cd9995c8819985a5b1959606a1b60448201526064016103ef565b505b50505050505050505050565b604080516001600160a01b0385811660248301528481166044830152606480830185905283518084039091018152608490920183526020820180516001600160e01b03166323b872dd60e01b179052915160009283929088169161194e9190612193565b6000604051808303816000865af19150503d806000811461198b576040519150601f19603f3d011682016040523d82523d6000602084013e611990565b606091505b50915091508180156119ba5750805115806119ba5750808060200190518101906119ba91906121af565b6119fc5760405162461bcd60e51b8152602060048201526013602482015272151c985b9cd9995c919c9bdb4819985a5b1959606a1b60448201526064016103ef565b505050505050565b604080516001600160a01b0384811660248301526000604480840182905284518085039091018152606490930184526020830180516001600160e01b031663095ea7b360e01b179052925190861691611a5c91612193565b6000604051808303816000865af19150503d8060008114611a99576040519150601f19603f3d011682016040523d82523d6000602084013e611a9e565b606091505b5050905080611ae65760405162461bcd60e51b8152602060048201526014602482015273105c1c1c9bdd99481c995cd95d0819985a5b195960621b60448201526064016103ef565b604080516001600160a01b038581166024830152604480830186905283518084039091018152606490920183526020820180516001600160e01b031663095ea7b360e01b1790529151600092839290881691611b429190612193565b6000604051808303816000865af19150503d8060008114611b7f576040519150601f19603f3d011682016040523d82523d6000602084013e611b84565b606091505b5091509150818015611bae575080511580611bae575080806020019051810190611bae91906121af565b6119fc5760405162461bcd60e51b815260206004820152600e60248201526d105c1c1c9bdd994819985a5b195960921b60448201526064016103ef565b600060208284031215611bfd57600080fd5b5035919050565b634e487b7160e01b600052604160045260246000fd5b60008060008060808587031215611c3057600080fd5b843567ffffffffffffffff811115611c4757600080fd5b8501601f81018713611c5857600080fd5b803567ffffffffffffffff811115611c7257611c72611c04565b604051601f8201601f19908116603f0116810167ffffffffffffffff81118282101715611ca157611ca1611c04565b604052818152828201602001891015611cb957600080fd5b8160208401602083013760006020928201830152989087013597506040870135966060013595509350505050565b60005b83811015611d02578181015183820152602001611cea565b50506000910152565b60008151808452611d23816020860160208601611ce7565b601f01601f19169290920160200192915050565b634e487b7160e01b600052602160045260246000fd5b61016081526000611d6261016083018e611d0b565b90508b60208301528a60408301528960608301528860808301528760a08301528660c08301528560e083015260038510611dac57634e487b7160e01b600052602160045260246000fd5b84610100830152611dc261012083018515159052565b60ff83166101408301529c9b505050505050505050505050565b602080825282518282018190526000918401906040840190835b81811015611e1d5783516001600160a01b0316835260209384019390920191600101611df6565b509095945050505050565b80356001600160a01b0381168114611e3f57600080fd5b919050565b60008060408385031215611e5757600080fd5b82359150611e6760208401611e28565b90509250929050565b803562ffffff81168114611e3f57600080fd5b600080600080600060a08688031215611e9b57600080fd5b85359450611eab60208701611e28565b93506040860135925060608601359150611ec760808701611e70565b90509295509295909350565b60008060008060808587031215611ee957600080fd5b84359350611ef960208601611e28565b925060408501359150611f0e60608601611e70565b905092959194509250565b634e487b7160e01b600052601160045260246000fd5b8082018082111561099a5761099a611f19565b8181038181111561099a5761099a611f19565b634e487b7160e01b600052603260045260246000fd5b600060018201611f7d57611f7d611f19565b5060010190565b600181811c90821680611f9857607f821691505b602082108103611fb857634e487b7160e01b600052602260045260246000fd5b50919050565b601f82111561159557806000526020600020601f840160051c81016020851015611fe55750805b601f840160051c820191505b818110156114cf5760008155600101611ff1565b815167ffffffffffffffff81111561201f5761201f611c04565b6120338161202d8454611f84565b84611fbe565b6020601f821160018114612067576000831561204f5750848201515b600019600385901b1c1916600184901b1784556114cf565b600084815260208120601f198516915b828110156120975787850151825560209485019460019092019101612077565b50848210156120b55786840151600019600387901b60f8161c191681555b50505050600190811b01905550565b6020815260006120d76020830184611d0b565b9392505050565b600060ff821660ff81036120f4576120f4611f19565b60010192915050565b81516001600160a01b03908116825260208084015182169083015260408084015162ffffff169083015260608084015191821690830152610100820190506080830151608083015260a083015160a083015260c083015160c083015260e083015161217360e08401826001600160a01b03169052565b5092915050565b60006020828403121561218c57600080fd5b5051919050565b600082516121a5818460208701611ce7565b9190910192915050565b6000602082840312156121c157600080fd5b815180151581146120d757600080fdfea2646970667358221220347b88885a3e5a9f3c13091d44c6a2af8df81c337989aeff12cb7c70b67557b664736f6c634300081c0033",
  "linkReferences": {},
  "deployedLinkReferences": {}
}