{
  "_format": "hh-sol-artifact-1",
  "contractName": "RollaVault",
  "sourceName": "contracts/RollaVault.sol",
  "abi": [
    {
      "inputs": [
        {
          "internalType": "address",
          "name": "_usdc",
          "type": "address"
        },
        {
          "internalType": "address",
          "name": "_router",
          "type": "address"
        },
        {
          "internalType": "address",
          "name": "_weth",
          "type": "address"
        }
      ],
      "stateMutability": "nonpayable",
      "type": "constructor"
    },
    {
      "anonymous": false,
      "inputs": [
        {
          "indexed": true,
          "internalType": "uint256",
          "name": "vaultId",
          "type": "uint256"
        },
        {
          "indexed": true,
          "internalType": "address",
          "name": "owner",
          "type": "address"
        },
        {
          "indexed": false,
          "internalType": "uint256",
          "name": "usdcValue",
          "type": "uint256"
        },
        {
          "indexed": false,
          "internalType": "address",
          "name": "tokenOut",
          "type": "address"
        }
      ],
      "name": "VaultClaimed",
      "type": "event"
    },
    {
      "anonymous": false,
      "inputs": [
        {
          "indexed": true,
          "internalType": "uint256",
          "name": "vaultId",
          "type": "uint256"
        },
        {
          "indexed": true,
          "internalType": "address",
          "name": "owner",
          "type": "address"
        },
        {
          "indexed": false,
          "internalType": "enum RollaVault.VaultTier",
          "name": "tier",
          "type": "uint8"
        },
        {
          "indexed": false,
          "internalType": "uint256",
          "name": "usdcDeposited",
          "type": "uint256"
        }
      ],
      "name": "VaultCreated",
      "type": "event"
    },
    {
      "inputs": [],
      "name": "UNISWAP_ROUTER",
      "outputs": [
        {
          "internalType": "address",
          "name": "",
          "type": "address"
        }
      ],
      "stateMutability": "view",
      "type": "function"
    },
    {
      "inputs": [],
      "name": "USDC",
      "outputs": [
        {
          "internalType": "address",
          "name": "",
          "type": "address"
        }
      ],
      "stateMutability": "view",
      "type": "function"
    },
    {
      "inputs": [],
      "name": "WETH",
      "outputs": [
        {
          "internalType": "address",
          "name": "",
          "type": "address"
        }
      ],
      "stateMutability": "view",
      "type": "function"
    },
    {
      "inputs": [
        {
          "internalType": "uint256",
          "name": "",
          "type": "uint256"
        }
      ],
      "name": "aprBps",
      "outputs": [
        {
          "internalType": "uint256",
          "name": "",
          "type": "uint256"
        }
      ],
      "stateMutability": "view",
      "type": "function"
    },
    {
      "inputs": [
        {
          "internalType": "uint256",
          "name": "vaultId",
          "type": "uint256"
        },
        {
          "internalType": "address",
          "name": "tokenOut",
          "type": "address"
        },
        {
          "internalType": "uint256",
          "name": "amountOutMinimum",
          "type": "uint256"
        },
        {
          "internalType": "uint24",
          "name": "poolFee",
          "type": "uint24"
        }
      ],
      "name": "claim",
      "outputs": [],
      "stateMutability": "nonpayable",
      "type": "function"
    },
    {
      "inputs": [
        {
          "internalType": "enum RollaVault.VaultTier",
          "name": "tier",
          "type": "uint8"
        },
        {
          "internalType": "address",
          "name": "tokenIn",
          "type": "address"
        },
        {
          "internalType": "uint256",
          "name": "amountIn",
          "type": "uint256"
        },
        {
          "internalType": "uint256",
          "name": "amountOutMinimum",
          "type": "uint256"
        },
        {
          "internalType": "uint24",
          "name": "poolFee",
          "type": "uint24"
        }
      ],
      "name": "deposit",
      "outputs": [
        {
          "internalType": "uint256",
          "name": "vaultId",
          "type": "uint256"
        }
      ],
      "stateMutability": "payable",
      "type": "function"
    },
    {
      "inputs": [
        {
          "internalType": "uint256",
          "name": "vaultId",
          "type": "uint256"
        },
        {
          "internalType": "uint256",
          "name": "atTimestamp",
          "type": "uint256"
        }
      ],
      "name": "getProjectedEarnings",
      "outputs": [
        {
          "internalType": "uint256",
          "name": "",
          "type": "uint256"
        }
      ],
      "stateMutability": "view",
      "type": "function"
    },
    {
      "inputs": [
        {
          "internalType": "address",
          "name": "user",
          "type": "address"
        }
      ],
      "name": "getUserVaults",
      "outputs": [
        {
          "internalType": "uint256[]",
          "name": "",
          "type": "uint256[]"
        }
      ],
      "stateMutability": "view",
      "type": "function"
    },
    {
      "inputs": [
        {
          "internalType": "uint256",
          "name": "vaultId",
          "type": "uint256"
        }
      ],
      "name": "getVaultBalance",
      "outputs": [
        {
          "internalType": "uint256",
          "name": "",
          "type": "uint256"
        }
      ],
      "stateMutability": "view",
      "type": "function"
    },
    {
      "inputs": [
        {
          "internalType": "uint256",
          "name": "vaultId",
          "type": "uint256"
        }
      ],
      "name": "isMatured",
      "outputs": [
        {
          "internalType": "bool",
          "name": "",
          "type": "bool"
        }
      ],
      "stateMutability": "view",
      "type": "function"
    },
    {
      "inputs": [
        {
          "internalType": "uint256",
          "name": "",
          "type": "uint256"
        }
      ],
      "name": "lockDurations",
      "outputs": [
        {
          "internalType": "uint256",
          "name": "",
          "type": "uint256"
        }
      ],
      "stateMutability": "view",
      "type": "function"
    },
    {
      "inputs": [
        {
          "internalType": "uint256",
          "name": "",
          "type": "uint256"
        }
      ],
      "name": "minDeposits",
      "outputs": [
        {
          "internalType": "uint256",
          "name": "",
          "type": "uint256"
        }
      ],
      "stateMutability": "view",
      "type": "function"
    },
    {
      "inputs": [],
      "name": "owner",
      "outputs": [
        {
          "internalType": "address",
          "name": "",
          "type": "address"
        }
      ],
      "stateMutability": "view",
      "type": "function"
    },
    {
      "inputs": [],
      "name": "rescueETH",
      "outputs": [],
      "stateMutability": "nonpayable",
      "type": "function"
    },
    {
      "inputs": [],
      "name": "vaultCount",
      "outputs": [
        {
          "internalType": "uint256",
          "name": "",
          "type": "uint256"
        }
      ],
      "stateMutability": "view",
      "type": "function"
    },
    {
      "inputs": [
        {
          "internalType": "uint256",
          "name": "",
          "type": "uint256"
        }
      ],
      "name": "vaults",
      "outputs": [
        {
          "internalType": "address",
          "name": "owner",
          "type": "address"
        },
        {
          "internalType": "enum RollaVault.VaultTier",
          "name": "tier",
          "type": "uint8"
        },
        {
          "internalType": "uint256",
          "name": "principalUSDC",
          "type": "uint256"
        },
        {
          "internalType": "uint256",
          "name": "aTokenShares",
          "type": "uint256"
        },
        {
          "internalType": "uint256",
          "name": "depositTimestamp",
          "type": "uint256"
        },
        {
          "internalType": "uint256",
          "name": "maturityTimestamp",
          "type": "uint256"
        },
        {
          "internalType": "uint256",
          "name": "lockDuration",
          "type": "uint256"
        },
        {
          "internalType": "bool",
          "name": "claimed",
          "type": "bool"
        }
      ],
      "stateMutability": "view",
      "type": "function"
    },
    {
      "stateMutability": "payable",
      "type": "receive"
    }
  ],
  "bytecode": "0x610160604052629896806101009081526305f5e10061012052631dcd65006101405261002f906001906003610142565b5060408051606081018252600081526276a70060208201526301e1338091810191909152610061906004906003610142565b50604080516060810182526101c2815261039860208201526105c891810191909152610091906007906003610188565b5034801561009e57600080fd5b50604051611d67380380611d678339810160408190526100bd916101ed565b60016000556001600160a01b038316158015906100e257506001600160a01b03821615155b6101215760405162461bcd60e51b815260206004820152600c60248201526b5a65726f206164647265737360a01b604482015260640160405180910390fd5b6001600160a01b0392831660805290821660a0521660c0523360e052610230565b8260038101928215610178579160200282015b82811115610178578251829063ffffffff16905591602001919060010190610155565b506101849291506101bc565b5090565b8260038101928215610178579160200282015b82811115610178578251829061ffff1690559160200191906001019061019b565b5b8082111561018457600081556001016101bd565b80516001600160a01b03811681146101e857600080fd5b919050565b60008060006060848603121561020257600080fd5b61020b846101d1565b9250610219602085016101d1565b9150610227604085016101d1565b90509250925092565b60805160a05160c05160e051611a806102e7600039600081816102970152818161042701526104c001526000818161032101528181610c2201528181610de4015261100001526000818161038801528181610c7b01528181610d39015281816110a70152818161114e01526112080152600081816101cf01528181610ba101528181610bdd01528181610c5a01528181610cb001528181610ef401528181610f300152818161102f01526111900152611a806000f3fe6080604052600436106100f75760003560e01c8063a0a36e651161008a578063d0744a0a11610059578063d0744a0a14610343578063d180bd2414610356578063d826492014610376578063e7f3c69c146103aa57600080fd5b8063a0a36e65146102b9578063a7c6a100146102d9578063a849cef8146102ef578063ad5c46481461030f57600080fd5b806363108990116100c6578063631089901461018d57806389a30271146101bd5780638c64ea4a146102095780638da5cb5b1461028557600080fd5b8063190ef5c4146101035780631daa34e71461013657806320800a001461015657806332298be11461016d57600080fd5b366100fe57005b600080fd5b34801561010f57600080fd5b5061012361011e3660046116a9565b6103d7565b6040519081526020015b60405180910390f35b34801561014257600080fd5b506101236101513660046116a9565b610405565b34801561016257600080fd5b5061016b61041c565b005b34801561017957600080fd5b506101236101883660046116a9565b610577565b34801561019957600080fd5b506101ad6101a83660046116a9565b610587565b604051901515815260200161012d565b3480156101c957600080fd5b506101f17f000000000000000000000000000000000000000000000000000000000000000081565b6040516001600160a01b03909116815260200161012d565b34801561021557600080fd5b506102716102243660046116a9565b600a6020526000908152604090208054600182015460028301546003840154600485015460058601546006909601546001600160a01b0386169660ff600160a01b90970487169690911688565b60405161012d9897969594939291906116fa565b34801561029157600080fd5b506101f17f000000000000000000000000000000000000000000000000000000000000000081565b3480156102c557600080fd5b5061016b6102d436600461177a565b6105f4565b3480156102e557600080fd5b50610123600c5481565b3480156102fb57600080fd5b5061012361030a3660046116a9565b610813565b34801561031b57600080fd5b506101f17f000000000000000000000000000000000000000000000000000000000000000081565b6101236103513660046117c0565b610823565b34801561036257600080fd5b5061012361037136600461181d565b610a81565b34801561038257600080fd5b506101f17f000000000000000000000000000000000000000000000000000000000000000081565b3480156103b657600080fd5b506103ca6103c536600461183f565b610b33565b60405161012d9190611861565b6000818152600a60205260408120600681015460ff16156103fb5750600092915050565b6001015492915050565b6007816003811061041557600080fd5b0154905081565b336001600160a01b037f000000000000000000000000000000000000000000000000000000000000000016146104855760405162461bcd60e51b81526020600482015260096024820152682737ba1037bbb732b960b91b60448201526064015b60405180910390fd5b47806104bc5760405162461bcd60e51b815260206004820152600660248201526509cde408aa8960d31b604482015260640161047c565b60007f00000000000000000000000000000000000000000000000000000000000000006001600160a01b03168260405160006040518083038185875af1925050503d8060008114610529576040519150601f19603f3d011682016040523d82523d6000602084013e61052e565b606091505b50509050806105735760405162461bcd60e51b8152602060048201526011602482015270115512081c995cd8dd594819985a5b1959607a1b604482015260640161047c565b5050565b6004816003811061041557600080fd5b6000818152600a60205260408120600681015460ff16806105b0575080546001600160a01b0316155b156105be5750600092915050565b806003015442116105d25750600092915050565b80600501546000036105e75750600192915050565b6004015442101592915050565b6002600054036106465760405162461bcd60e51b815260206004820152601f60248201527f5265656e7472616e637947756172643a207265656e7472616e742063616c6c00604482015260640161047c565b60026000908155848152600a6020526040902080546001600160a01b031633146106a45760405162461bcd60e51b815260206004820152600f60248201526e2737ba103b30bab63a1037bbb732b960891b604482015260640161047c565b600681015460ff16156106eb5760405162461bcd60e51b815260206004820152600f60248201526e105b1c9958591e4818db185a5b5959608a1b604482015260640161047c565b806003015442116107495760405162461bcd60e51b815260206004820152602260248201527f43616e6e6f7420636c61696d2073616d6520626c6f636b206173206465706f736044820152611a5d60f21b606482015260840161047c565b60058101541561079f57806004015442101561079f5760405162461bcd60e51b815260206004820152601560248201527415985d5b1d081b9bdd081e595d081b585d1d5c9959605a1b604482015260640161047c565b60068101805460ff19166001908117909155810154604080518281526001600160a01b0387166020820152339188917fcf17c0bbe006e888b4962be938e38550aac52f85e17960a935257944b121eaf8910160405180910390a36108068582868633610b9f565b5050600160005550505050565b6001816003811061041557600080fd5b60006002600054036108775760405162461bcd60e51b815260206004820152601f60248201527f5265656e7472616e637947756172643a207265656e7472616e742063616c6c00604482015260640161047c565b60026000556001600160a01b038516156108d95734156108d95760405162461bcd60e51b815260206004820152601f60248201527f455448206e6f7420616363657074656420666f72204552433230207061746800604482015260640161047c565b60008660028111156108ed576108ed6116c2565b905060006108fd87878787610ef0565b905060018260038110610912576109126118a4565b01548110156109585760405162461bcd60e51b815260206004820152601260248201527142656c6f772074696572206d696e696d756d60701b604482015260640161047c565b60006004836003811061096d5761096d6118a4565b0154600c80549192506000610981836118d0565b909155506000818152600a6020526040902080546001600160a01b0319811633908117835592965090918b91839160ff60a01b19166001600160a81b031990911617600160a01b8360028111156109da576109da6116c2565b021790555060018101839055426003820155600581018290558115610a0857610a0382426118e9565b610a0a565b425b6004820155336000818152600b60209081526040808320805460018101825590845291909220018790555186907ff05b5cfff5f684799218b8134d5d0c1cbeb310e8fc7d26e0ef92e2c792b02ec690610a66908e9088906118fc565b60405180910390a35050600160005550909695505050505050565b6000828152600a60205260408120600681015460ff1680610aa6575080600301548311155b15610ab5576000915050610b2d565b6000816003015484610ac79190611917565b825490915064496cebb800908290600790600160a01b900460ff166002811115610af357610af36116c2565b60038110610b0357610b036118a4565b01548460010154610b14919061192a565b610b1e919061192a565b610b289190611941565b925050505b92915050565b6001600160a01b0381166000908152600b6020908152604091829020805483518184028101840190945280845260609392830182828015610b9357602002820191906000526020600020905b815481526020019060010190808311610b7f575b50505050509050919050565b7f00000000000000000000000000000000000000000000000000000000000000006001600160a01b0316856001600160a01b031603610c0857610c037f000000000000000000000000000000000000000000000000000000000000000082866112a2565b610ee9565b6001600160a01b03851615600081610c205786610c42565b7f00000000000000000000000000000000000000000000000000000000000000005b9050600082610c515783610c53565b305b9050610ca07f00000000000000000000000000000000000000000000000000000000000000007f0000000000000000000000000000000000000000000000000000000000000000896113a8565b60006040518061010001604052807f00000000000000000000000000000000000000000000000000000000000000006001600160a01b03168152602001846001600160a01b031681526020018762ffffff168152602001836001600160a01b0316815260200142610384610d1491906118e9565b815260200189815260200188815260200160006001600160a01b0316815250905060007f00000000000000000000000000000000000000000000000000000000000000006001600160a01b031663414bf389836040518263ffffffff1660e01b8152600401610d839190611963565b6020604051808303816000875af1158015610da2573d6000803e3d6000fd5b505050506040513d601f19601f82011682018060405250810190610dc691906119e0565b90508415610ee357604051632e1a7d4d60e01b8152600481018290527f00000000000000000000000000000000000000000000000000000000000000006001600160a01b031690632e1a7d4d90602401600060405180830381600087803b158015610e3057600080fd5b505af1158015610e44573d6000803e3d6000fd5b505050506000866001600160a01b03168260405160006040518083038185875af1925050503d8060008114610e95576040519150601f19603f3d011682016040523d82523d6000602084013e610e9a565b606091505b5050905080610ee15760405162461bcd60e51b8152602060048201526013602482015272115512081d1c985b9cd9995c8819985a5b1959606a1b604482015260640161047c565b505b50505050505b5050505050565b60007f00000000000000000000000000000000000000000000000000000000000000006001600160a01b0316856001600160a01b031603610f5e57610f577f0000000000000000000000000000000000000000000000000000000000000000333087611597565b508261129a565b6040805161010081018252600080825260208201819052918101829052606081018290526080810182905260a0810182905260c0810182905260e08101919091526001600160a01b03861661113c57843414610ff25760405162461bcd60e51b815260206004820152601360248201527208aa89040c2dadeeadce840dad2e6dac2e8c6d606b1b604482015260640161047c565b6040518061010001604052807f00000000000000000000000000000000000000000000000000000000000000006001600160a01b031681526020017f00000000000000000000000000000000000000000000000000000000000000006001600160a01b031681526020018462ffffff168152602001306001600160a01b031681526020014261038461108491906118e9565b815260200186815260200185815260200160006001600160a01b031681525090507f00000000000000000000000000000000000000000000000000000000000000006001600160a01b031663414bf38986836040518363ffffffff1660e01b81526004016110f29190611963565b60206040518083038185885af1158015611110573d6000803e3d6000fd5b50505050506040513d601f19601f8201168201806040525081019061113591906119e0565b9150611298565b61114886333088611597565b611173867f0000000000000000000000000000000000000000000000000000000000000000876113a8565b604051806101000160405280876001600160a01b031681526020017f00000000000000000000000000000000000000000000000000000000000000006001600160a01b031681526020018462ffffff168152602001306001600160a01b03168152602001426103846111e591906118e9565b815260200186815260200185815260200160006001600160a01b031681525090507f00000000000000000000000000000000000000000000000000000000000000006001600160a01b031663414bf389826040518263ffffffff1660e01b81526004016112529190611963565b6020604051808303816000875af1158015611271573d6000803e3d6000fd5b505050506040513d601f19601f8201168201806040525081019061129591906119e0565b91505b505b949350505050565b604080516001600160a01b038481166024830152604480830185905283518084039091018152606490920183526020820180516001600160e01b031663a9059cbb60e01b17905291516000928392908716916112fe91906119f9565b6000604051808303816000865af19150503d806000811461133b576040519150601f19603f3d011682016040523d82523d6000602084013e611340565b606091505b509150915081801561136a57508051158061136a57508080602001905181019061136a9190611a28565b610ee95760405162461bcd60e51b815260206004820152600f60248201526e151c985b9cd9995c8819985a5b1959608a1b604482015260640161047c565b604080516001600160a01b0384811660248301526000604480840182905284518085039091018152606490930184526020830180516001600160e01b031663095ea7b360e01b179052925190861691611400916119f9565b6000604051808303816000865af19150503d806000811461143d576040519150601f19603f3d011682016040523d82523d6000602084013e611442565b606091505b505090508061148a5760405162461bcd60e51b8152602060048201526014602482015273105c1c1c9bdd99481c995cd95d0819985a5b195960621b604482015260640161047c565b604080516001600160a01b038581166024830152604480830186905283518084039091018152606490920183526020820180516001600160e01b031663095ea7b360e01b17905291516000928392908816916114e691906119f9565b6000604051808303816000865af19150503d8060008114611523576040519150601f19603f3d011682016040523d82523d6000602084013e611528565b606091505b50915091508180156115525750805115806115525750808060200190518101906115529190611a28565b61158f5760405162461bcd60e51b815260206004820152600e60248201526d105c1c1c9bdd994819985a5b195960921b604482015260640161047c565b505050505050565b604080516001600160a01b0385811660248301528481166044830152606480830185905283518084039091018152608490920183526020820180516001600160e01b03166323b872dd60e01b17905291516000928392908816916115fb91906119f9565b6000604051808303816000865af19150503d8060008114611638576040519150601f19603f3d011682016040523d82523d6000602084013e61163d565b606091505b50915091508180156116675750805115806116675750808060200190518101906116679190611a28565b61158f5760405162461bcd60e51b8152602060048201526013602482015272151c985b9cd9995c919c9bdb4819985a5b1959606a1b604482015260640161047c565b6000602082840312156116bb57600080fd5b5035919050565b634e487b7160e01b600052602160045260246000fd5b600381106116f657634e487b7160e01b600052602160045260246000fd5b9052565b6001600160a01b03891681526101008101611718602083018a6116d8565b8760408301528660608301528560808301528460a08301528360c083015282151560e08301529998505050505050505050565b80356001600160a01b038116811461176257600080fd5b919050565b803562ffffff8116811461176257600080fd5b6000806000806080858703121561179057600080fd5b843593506117a06020860161174b565b9250604085013591506117b560608601611767565b905092959194509250565b600080600080600060a086880312156117d857600080fd5b8535600381106117e757600080fd5b94506117f56020870161174b565b9350604086013592506060860135915061181160808701611767565b90509295509295909350565b6000806040838503121561183057600080fd5b50508035926020909101359150565b60006020828403121561185157600080fd5b61185a8261174b565b9392505050565b602080825282518282018190526000918401906040840190835b8181101561189957835183526020938401939092019160010161187b565b509095945050505050565b634e487b7160e01b600052603260045260246000fd5b634e487b7160e01b600052601160045260246000fd5b6000600182016118e2576118e26118ba565b5060010190565b80820180821115610b2d57610b2d6118ba565b6040810161190a82856116d8565b8260208301529392505050565b81810381811115610b2d57610b2d6118ba565b8082028115828204841417610b2d57610b2d6118ba565b60008261195e57634e487b7160e01b600052601260045260246000fd5b500490565b81516001600160a01b03908116825260208084015182169083015260408084015162ffffff169083015260608084015191821690830152610100820190506080830151608083015260a083015160a083015260c083015160c083015260e08301516119d960e08401826001600160a01b03169052565b5092915050565b6000602082840312156119f257600080fd5b5051919050565b6000825160005b81811015611a1a5760208186018101518583015201611a00565b506000920191825250919050565b600060208284031215611a3a57600080fd5b8151801515811461185a57600080fdfea2646970667358221220d9c567e073b8fbf02133ca14c11883a1f3b83690ca103ace22eaa1213d086f1864736f6c634300081c0033",
  "linkReferences": {},
  "deployedLinkReferences": {}
}