{
  "_format": "hh-sol-artifact-1",
  "contractName": "RollaVault",
  "sourceName": "contracts/RollaVault.sol",
  "abi": [
    {
      "inputs": [
        {
          "internalType": "address",
          "name": "_usdt",
          "type": "address"
        },
        {
          "internalType": "address",
          "name": "_router",
          "type": "address"
        },
        {
          "internalType": "address",
          "name": "_aavePool",
          "type": "address"
        },
        {
          "internalType": "address",
          "name": "_aUsdt",
          "type": "address"
        },
        {
          "internalType": "address",
          "name": "_weth",
          "type": "address"
        }
      ],
      "stateMutability": "nonpayable",
      "type": "constructor"
    },
    {
      "anonymous": false,
      "inputs": [
        {
          "indexed": true,
          "internalType": "uint256",
          "name": "vaultId",
          "type": "uint256"
        },
        {
          "indexed": true,
          "internalType": "address",
          "name": "owner",
          "type": "address"
        },
        {
          "indexed": false,
          "internalType": "uint256",
          "name": "usdtValue",
          "type": "uint256"
        },
        {
          "indexed": false,
          "internalType": "address",
          "name": "tokenOut",
          "type": "address"
        }
      ],
      "name": "VaultClaimed",
      "type": "event"
    },
    {
      "anonymous": false,
      "inputs": [
        {
          "indexed": true,
          "internalType": "uint256",
          "name": "vaultId",
          "type": "uint256"
        },
        {
          "indexed": true,
          "internalType": "address",
          "name": "owner",
          "type": "address"
        },
        {
          "indexed": false,
          "internalType": "enum RollaVault.VaultTier",
          "name": "tier",
          "type": "uint8"
        },
        {
          "indexed": false,
          "internalType": "uint256",
          "name": "usdtDeposited",
          "type": "uint256"
        }
      ],
      "name": "VaultCreated",
      "type": "event"
    },
    {
      "inputs": [],
      "name": "AAVE_POOL",
      "outputs": [
        {
          "internalType": "address",
          "name": "",
          "type": "address"
        }
      ],
      "stateMutability": "view",
      "type": "function"
    },
    {
      "inputs": [],
      "name": "A_USDT",
      "outputs": [
        {
          "internalType": "address",
          "name": "",
          "type": "address"
        }
      ],
      "stateMutability": "view",
      "type": "function"
    },
    {
      "inputs": [],
      "name": "UNISWAP_ROUTER",
      "outputs": [
        {
          "internalType": "address",
          "name": "",
          "type": "address"
        }
      ],
      "stateMutability": "view",
      "type": "function"
    },
    {
      "inputs": [],
      "name": "USDT",
      "outputs": [
        {
          "internalType": "address",
          "name": "",
          "type": "address"
        }
      ],
      "stateMutability": "view",
      "type": "function"
    },
    {
      "inputs": [],
      "name": "WETH",
      "outputs": [
        {
          "internalType": "address",
          "name": "",
          "type": "address"
        }
      ],
      "stateMutability": "view",
      "type": "function"
    },
    {
      "inputs": [
        {
          "internalType": "uint256",
          "name": "",
          "type": "uint256"
        }
      ],
      "name": "aprBps",
      "outputs": [
        {
          "internalType": "uint256",
          "name": "",
          "type": "uint256"
        }
      ],
      "stateMutability": "view",
      "type": "function"
    },
    {
      "inputs": [
        {
          "internalType": "uint256",
          "name": "vaultId",
          "type": "uint256"
        },
        {
          "internalType": "address",
          "name": "tokenOut",
          "type": "address"
        },
        {
          "internalType": "uint256",
          "name": "amountOutMinimum",
          "type": "uint256"
        },
        {
          "internalType": "uint24",
          "name": "poolFee",
          "type": "uint24"
        }
      ],
      "name": "claim",
      "outputs": [],
      "stateMutability": "nonpayable",
      "type": "function"
    },
    {
      "inputs": [
        {
          "internalType": "enum RollaVault.VaultTier",
          "name": "tier",
          "type": "uint8"
        },
        {
          "internalType": "address",
          "name": "tokenIn",
          "type": "address"
        },
        {
          "internalType": "uint256",
          "name": "amountIn",
          "type": "uint256"
        },
        {
          "internalType": "uint256",
          "name": "amountOutMinimum",
          "type": "uint256"
        },
        {
          "internalType": "uint24",
          "name": "poolFee",
          "type": "uint24"
        }
      ],
      "name": "deposit",
      "outputs": [
        {
          "internalType": "uint256",
          "name": "vaultId",
          "type": "uint256"
        }
      ],
      "stateMutability": "payable",
      "type": "function"
    },
    {
      "inputs": [
        {
          "internalType": "uint256",
          "name": "vaultId",
          "type": "uint256"
        },
        {
          "internalType": "uint256",
          "name": "atTimestamp",
          "type": "uint256"
        }
      ],
      "name": "getProjectedEarnings",
      "outputs": [
        {
          "internalType": "uint256",
          "name": "earnings",
          "type": "uint256"
        }
      ],
      "stateMutability": "view",
      "type": "function"
    },
    {
      "inputs": [
        {
          "internalType": "address",
          "name": "user",
          "type": "address"
        }
      ],
      "name": "getUserVaults",
      "outputs": [
        {
          "internalType": "uint256[]",
          "name": "",
          "type": "uint256[]"
        }
      ],
      "stateMutability": "view",
      "type": "function"
    },
    {
      "inputs": [
        {
          "internalType": "uint256",
          "name": "vaultId",
          "type": "uint256"
        }
      ],
      "name": "getVaultBalance",
      "outputs": [
        {
          "internalType": "uint256",
          "name": "",
          "type": "uint256"
        }
      ],
      "stateMutability": "view",
      "type": "function"
    },
    {
      "inputs": [
        {
          "internalType": "uint256",
          "name": "vaultId",
          "type": "uint256"
        }
      ],
      "name": "isMatured",
      "outputs": [
        {
          "internalType": "bool",
          "name": "",
          "type": "bool"
        }
      ],
      "stateMutability": "view",
      "type": "function"
    },
    {
      "inputs": [
        {
          "internalType": "uint256",
          "name": "",
          "type": "uint256"
        }
      ],
      "name": "lockDurations",
      "outputs": [
        {
          "internalType": "uint256",
          "name": "",
          "type": "uint256"
        }
      ],
      "stateMutability": "view",
      "type": "function"
    },
    {
      "inputs": [
        {
          "internalType": "uint256",
          "name": "",
          "type": "uint256"
        }
      ],
      "name": "minDeposits",
      "outputs": [
        {
          "internalType": "uint256",
          "name": "",
          "type": "uint256"
        }
      ],
      "stateMutability": "view",
      "type": "function"
    },
    {
      "inputs": [],
      "name": "owner",
      "outputs": [
        {
          "internalType": "address",
          "name": "",
          "type": "address"
        }
      ],
      "stateMutability": "view",
      "type": "function"
    },
    {
      "inputs": [],
      "name": "rescueETH",
      "outputs": [],
      "stateMutability": "nonpayable",
      "type": "function"
    },
    {
      "inputs": [],
      "name": "vaultCount",
      "outputs": [
        {
          "internalType": "uint256",
          "name": "",
          "type": "uint256"
        }
      ],
      "stateMutability": "view",
      "type": "function"
    },
    {
      "inputs": [
        {
          "internalType": "uint256",
          "name": "",
          "type": "uint256"
        }
      ],
      "name": "vaults",
      "outputs": [
        {
          "internalType": "address",
          "name": "owner",
          "type": "address"
        },
        {
          "internalType": "enum RollaVault.VaultTier",
          "name": "tier",
          "type": "uint8"
        },
        {
          "internalType": "uint256",
          "name": "principalUSDT",
          "type": "uint256"
        },
        {
          "internalType": "uint256",
          "name": "aTokenShares",
          "type": "uint256"
        },
        {
          "internalType": "uint256",
          "name": "depositTimestamp",
          "type": "uint256"
        },
        {
          "internalType": "uint256",
          "name": "maturityTimestamp",
          "type": "uint256"
        },
        {
          "internalType": "uint256",
          "name": "lockDuration",
          "type": "uint256"
        },
        {
          "internalType": "bool",
          "name": "claimed",
          "type": "bool"
        }
      ],
      "stateMutability": "view",
      "type": "function"
    },
    {
      "stateMutability": "payable",
      "type": "receive"
    }
  ],
  "bytecode": "0x6101a0604052629896806101409081526305f5e10061016052631dcd65006101805261002f906001906003610177565b5060408051606081018252600081526276a70060208201526301e1338091810191909152610061906004906003610177565b50604080516060810182526101c2815261039860208201526105c8918101919091526100919060079060036101bd565b5034801561009e57600080fd5b506040516122823803806122828339810160408190526100bd91610222565b60016000556001600160a01b038516158015906100e257506001600160a01b03841615155b80156100f657506001600160a01b03831615155b801561010a57506001600160a01b03821615155b6101495760405162461bcd60e51b815260206004820152600c60248201526b5a65726f206164647265737360a01b604482015260640160405180910390fd5b6001600160a01b0394851660805292841660a05290831660c052821660e05216610100523361012052610287565b82600381019282156101ad579160200282015b828111156101ad578251829063ffffffff1690559160200191906001019061018a565b506101b99291506101f1565b5090565b82600381019282156101ad579160200282015b828111156101ad578251829061ffff169055916020019190600101906101d0565b5b808211156101b957600081556001016101f2565b80516001600160a01b038116811461021d57600080fd5b919050565b600080600080600060a0868803121561023a57600080fd5b61024386610206565b945061025160208701610206565b935061025f60408701610206565b925061026d60608701610206565b915061027b60808701610206565b90509295509295909350565b60805160a05160c05160e0516101005161012051611ee861039a600039600081816102ad0152818161057b01526106140152600081816103370152818161108b0152818161124d015261146901526000818161043301528181610b800152610d0601526000818161012b015281816104bb0152818161095201528181610c1b0152610c930152600081816103d2015281816110e4015281816111a201528181611510015281816115b7015261167101526000818161036b015281816104900152818161091901528181610bfa01528181610c570152818161100a01528181611046015281816110c3015281816111190152818161135d015281816113990152818161149801526115f90152611ee86000f3fe60806040526004361061010d5760003560e01c8063a7c6a10011610095578063d0744a0a11610064578063d0744a0a1461038d578063d180bd24146103a0578063d8264920146103c0578063e7f3c69c146103f4578063f23620a41461042157600080fd5b8063a7c6a100146102ef578063a849cef814610305578063ad5c464814610325578063c54e44eb1461035957600080fd5b806332298be1116100dc57806332298be1146101cf57806363108990146101ef5780638c64ea4a1461021f5780638da5cb5b1461029b578063a0a36e65146102cf57600080fd5b806308a0167514610119578063190ef5c41461016a5780631daa34e71461019857806320800a00146101b857600080fd5b3661011457005b600080fd5b34801561012557600080fd5b5061014d7f000000000000000000000000000000000000000000000000000000000000000081565b6040516001600160a01b0390911681526020015b60405180910390f35b34801561017657600080fd5b5061018a610185366004611b11565b610455565b604051908152602001610161565b3480156101a457600080fd5b5061018a6101b3366004611b11565b610559565b3480156101c457600080fd5b506101cd610570565b005b3480156101db57600080fd5b5061018a6101ea366004611b11565b6106cb565b3480156101fb57600080fd5b5061020f61020a366004611b11565b6106db565b6040519015158152602001610161565b34801561022b57600080fd5b5061028761023a366004611b11565b600a6020526000908152604090208054600182015460028301546003840154600485015460058601546006909601546001600160a01b0386169660ff600160a01b90970487169690911688565b604051610161989796959493929190611b62565b3480156102a757600080fd5b5061014d7f000000000000000000000000000000000000000000000000000000000000000081565b3480156102db57600080fd5b506101cd6102ea366004611be2565b610748565b3480156102fb57600080fd5b5061018a600c5481565b34801561031157600080fd5b5061018a610320366004611b11565b610a23565b34801561033157600080fd5b5061014d7f000000000000000000000000000000000000000000000000000000000000000081565b34801561036557600080fd5b5061014d7f000000000000000000000000000000000000000000000000000000000000000081565b61018a61039b366004611c28565b610a33565b3480156103ac57600080fd5b5061018a6103bb366004611c85565b610eea565b3480156103cc57600080fd5b5061014d7f000000000000000000000000000000000000000000000000000000000000000081565b34801561040057600080fd5b5061041461040f366004611ca7565b610f9c565b6040516101619190611cc9565b34801561042d57600080fd5b5061014d7f000000000000000000000000000000000000000000000000000000000000000081565b6000818152600a60205260408120600681015460ff16156104795750600092915050565b60405163d15e005360e01b81526001600160a01b037f0000000000000000000000000000000000000000000000000000000000000000811660048301526000917f00000000000000000000000000000000000000000000000000000000000000009091169063d15e005390602401602060405180830381865afa158015610504573d6000803e3d6000fd5b505050506040513d601f19601f820116820180604052508101906105289190611d0c565b90506b033b2e3c9fd0803ce80000008183600201546105479190611d3b565b6105519190611d52565b949350505050565b6007816003811061056957600080fd5b0154905081565b336001600160a01b037f000000000000000000000000000000000000000000000000000000000000000016146105d95760405162461bcd60e51b81526020600482015260096024820152682737ba1037bbb732b960b91b60448201526064015b60405180910390fd5b47806106105760405162461bcd60e51b815260206004820152600660248201526509cde408aa8960d31b60448201526064016105d0565b60007f00000000000000000000000000000000000000000000000000000000000000006001600160a01b03168260405160006040518083038185875af1925050503d806000811461067d576040519150601f19603f3d011682016040523d82523d6000602084013e610682565b606091505b50509050806106c75760405162461bcd60e51b8152602060048201526011602482015270115512081c995cd8dd594819985a5b1959607a1b60448201526064016105d0565b5050565b6004816003811061056957600080fd5b6000818152600a60205260408120600681015460ff1680610704575080546001600160a01b0316155b156107125750600092915050565b806003015442116107265750600092915050565b806005015460000361073b5750600192915050565b6004015442101592915050565b60026000540361079a5760405162461bcd60e51b815260206004820152601f60248201527f5265656e7472616e637947756172643a207265656e7472616e742063616c6c0060448201526064016105d0565b60026000908155848152600a6020526040902080546001600160a01b031633146107f85760405162461bcd60e51b815260206004820152600f60248201526e2737ba103b30bab63a1037bbb732b960891b60448201526064016105d0565b600681015460ff161561083f5760405162461bcd60e51b815260206004820152600f60248201526e105b1c9958591e4818db185a5b5959608a1b60448201526064016105d0565b8060030154421161089d5760405162461bcd60e51b815260206004820152602260248201527f43616e6e6f7420636c61696d2073616d6520626c6f636b206173206465706f736044820152611a5d60f21b60648201526084016105d0565b6005810154156108f35780600401544210156108f35760405162461bcd60e51b815260206004820152601560248201527415985d5b1d081b9bdd081e595d081b585d1d5c9959605a1b60448201526064016105d0565b60068101805460ff19166001179055604051631a4ca37b60e21b81526001600160a01b037f00000000000000000000000000000000000000000000000000000000000000008116600483015260001960248301523060448301526000917f0000000000000000000000000000000000000000000000000000000000000000909116906369328dec906064016020604051808303816000875af115801561099d573d6000803e3d6000fd5b505050506040513d601f19601f820116820180604052508101906109c19190611d0c565b604080518281526001600160a01b0388166020820152919250339188917fcf17c0bbe006e888b4962be938e38550aac52f85e17960a935257944b121eaf8910160405180910390a3610a168582868633611008565b5050600160005550505050565b6001816003811061056957600080fd5b6000600260005403610a875760405162461bcd60e51b815260206004820152601f60248201527f5265656e7472616e637947756172643a207265656e7472616e742063616c6c0060448201526064016105d0565b60026000556001600160a01b03851615610ae9573415610ae95760405162461bcd60e51b815260206004820152601f60248201527f455448206e6f7420616363657074656420666f7220455243323020706174680060448201526064016105d0565b6000866002811115610afd57610afd611b2a565b90506000610b0d87878787611359565b905060018260038110610b2257610b22611d74565b0154811015610b685760405162461bcd60e51b815260206004820152601260248201527142656c6f772074696572206d696e696d756d60701b60448201526064016105d0565b604051630ed1279f60e11b81523060048201526000907f00000000000000000000000000000000000000000000000000000000000000006001600160a01b031690631da24f3e90602401602060405180830381865afa158015610bcf573d6000803e3d6000fd5b505050506040513d601f19601f82011682018060405250810190610bf39190611d0c565b9050610c407f00000000000000000000000000000000000000000000000000000000000000007f00000000000000000000000000000000000000000000000000000000000000008461170a565b60405163617ba03760e01b81526001600160a01b037f00000000000000000000000000000000000000000000000000000000000000008116600483015260248201849052306044830152600060648301527f0000000000000000000000000000000000000000000000000000000000000000169063617ba03790608401600060405180830381600087803b158015610cd757600080fd5b505af1158015610ceb573d6000803e3d6000fd5b5050604051630ed1279f60e11b8152306004820152600092507f00000000000000000000000000000000000000000000000000000000000000006001600160a01b03169150631da24f3e90602401602060405180830381865afa158015610d56573d6000803e3d6000fd5b505050506040513d601f19601f82011682018060405250810190610d7a9190611d0c565b9050600060048560038110610d9157610d91611d74565b0154600c80549192506000610da583611d8a565b909155506000818152600a6020526040902080546001600160a01b0319811633908117835592985090918d91839160ff60a01b19166001600160a81b031990911617600160a01b836002811115610dfe57610dfe611b2a565b021790555060018101859055610e148484611da3565b6002820155426003820155600581018290558115610e3b57610e368242611db6565b610e3d565b425b8160040181905550600b6000336001600160a01b03166001600160a01b03168152602001908152602001600020879080600181540180825580915050600190039060005260206000200160009091909190915055336001600160a01b0316877ff05b5cfff5f684799218b8134d5d0c1cbeb310e8fc7d26e0ef92e2c792b02ec68e88604051610ecd929190611dc9565b60405180910390a350506001600055509298975050505050505050565b6000828152600a60205260408120600681015460ff1680610f0f575080600301548311155b15610f1e576000915050610f96565b6000816003015484610f309190611da3565b825490915064496cebb800908290600790600160a01b900460ff166002811115610f5c57610f5c611b2a565b60038110610f6c57610f6c611d74565b01548460010154610f7d9190611d3b565b610f879190611d3b565b610f919190611d52565b925050505b92915050565b6001600160a01b0381166000908152600b6020908152604091829020805483518184028101840190945280845260609392830182828015610ffc57602002820191906000526020600020905b815481526020019060010190808311610fe8575b50505050509050919050565b7f00000000000000000000000000000000000000000000000000000000000000006001600160a01b0316856001600160a01b0316036110715761106c7f000000000000000000000000000000000000000000000000000000000000000082866118f9565b611352565b6001600160a01b0385161560008161108957866110ab565b7f00000000000000000000000000000000000000000000000000000000000000005b90506000826110ba57836110bc565b305b90506111097f00000000000000000000000000000000000000000000000000000000000000007f00000000000000000000000000000000000000000000000000000000000000008961170a565b60006040518061010001604052807f00000000000000000000000000000000000000000000000000000000000000006001600160a01b03168152602001846001600160a01b031681526020018762ffffff168152602001836001600160a01b031681526020014261038461117d9190611db6565b815260200189815260200188815260200160006001600160a01b0316815250905060007f00000000000000000000000000000000000000000000000000000000000000006001600160a01b031663414bf389836040518263ffffffff1660e01b81526004016111ec9190611de4565b6020604051808303816000875af115801561120b573d6000803e3d6000fd5b505050506040513d601f19601f8201168201806040525081019061122f9190611d0c565b9050841561134c57604051632e1a7d4d60e01b8152600481018290527f00000000000000000000000000000000000000000000000000000000000000006001600160a01b031690632e1a7d4d90602401600060405180830381600087803b15801561129957600080fd5b505af11580156112ad573d6000803e3d6000fd5b505050506000866001600160a01b03168260405160006040518083038185875af1925050503d80600081146112fe576040519150601f19603f3d011682016040523d82523d6000602084013e611303565b606091505b505090508061134a5760405162461bcd60e51b8152602060048201526013602482015272115512081d1c985b9cd9995c8819985a5b1959606a1b60448201526064016105d0565b505b50505050505b5050505050565b60007f00000000000000000000000000000000000000000000000000000000000000006001600160a01b0316856001600160a01b0316036113c7576113c07f00000000000000000000000000000000000000000000000000000000000000003330876119ff565b5082610551565b6040805161010081018252600080825260208201819052918101829052606081018290526080810182905260a0810182905260c0810182905260e08101919091526001600160a01b0386166115a55784341461145b5760405162461bcd60e51b815260206004820152601360248201527208aa89040c2dadeeadce840dad2e6dac2e8c6d606b1b60448201526064016105d0565b6040518061010001604052807f00000000000000000000000000000000000000000000000000000000000000006001600160a01b031681526020017f00000000000000000000000000000000000000000000000000000000000000006001600160a01b031681526020018462ffffff168152602001306001600160a01b03168152602001426103846114ed9190611db6565b815260200186815260200185815260200160006001600160a01b031681525090507f00000000000000000000000000000000000000000000000000000000000000006001600160a01b031663414bf38986836040518363ffffffff1660e01b815260040161155b9190611de4565b60206040518083038185885af1158015611579573d6000803e3d6000fd5b50505050506040513d601f19601f8201168201806040525081019061159e9190611d0c565b9150611701565b6115b1863330886119ff565b6115dc867f00000000000000000000000000000000000000000000000000000000000000008761170a565b604051806101000160405280876001600160a01b031681526020017f00000000000000000000000000000000000000000000000000000000000000006001600160a01b031681526020018462ffffff168152602001306001600160a01b031681526020014261038461164e9190611db6565b815260200186815260200185815260200160006001600160a01b031681525090507f00000000000000000000000000000000000000000000000000000000000000006001600160a01b031663414bf389826040518263ffffffff1660e01b81526004016116bb9190611de4565b6020604051808303816000875af11580156116da573d6000803e3d6000fd5b505050506040513d601f19601f820116820180604052508101906116fe9190611d0c565b91505b50949350505050565b604080516001600160a01b0384811660248301526000604480840182905284518085039091018152606490930184526020830180516001600160e01b031663095ea7b360e01b17905292519086169161176291611e61565b6000604051808303816000865af19150503d806000811461179f576040519150601f19603f3d011682016040523d82523d6000602084013e6117a4565b606091505b50509050806117ec5760405162461bcd60e51b8152602060048201526014602482015273105c1c1c9bdd99481c995cd95d0819985a5b195960621b60448201526064016105d0565b604080516001600160a01b038581166024830152604480830186905283518084039091018152606490920183526020820180516001600160e01b031663095ea7b360e01b17905291516000928392908816916118489190611e61565b6000604051808303816000865af19150503d8060008114611885576040519150601f19603f3d011682016040523d82523d6000602084013e61188a565b606091505b50915091508180156118b45750805115806118b45750808060200190518101906118b49190611e90565b6118f15760405162461bcd60e51b815260206004820152600e60248201526d105c1c1c9bdd994819985a5b195960921b60448201526064016105d0565b505050505050565b604080516001600160a01b038481166024830152604480830185905283518084039091018152606490920183526020820180516001600160e01b031663a9059cbb60e01b17905291516000928392908716916119559190611e61565b6000604051808303816000865af19150503d8060008114611992576040519150601f19603f3d011682016040523d82523d6000602084013e611997565b606091505b50915091508180156119c15750805115806119c15750808060200190518101906119c19190611e90565b6113525760405162461bcd60e51b815260206004820152600f60248201526e151c985b9cd9995c8819985a5b1959608a1b60448201526064016105d0565b604080516001600160a01b0385811660248301528481166044830152606480830185905283518084039091018152608490920183526020820180516001600160e01b03166323b872dd60e01b1790529151600092839290881691611a639190611e61565b6000604051808303816000865af19150503d8060008114611aa0576040519150601f19603f3d011682016040523d82523d6000602084013e611aa5565b606091505b5091509150818015611acf575080511580611acf575080806020019051810190611acf9190611e90565b6118f15760405162461bcd60e51b8152602060048201526013602482015272151c985b9cd9995c919c9bdb4819985a5b1959606a1b60448201526064016105d0565b600060208284031215611b2357600080fd5b5035919050565b634e487b7160e01b600052602160045260246000fd5b60038110611b5e57634e487b7160e01b600052602160045260246000fd5b9052565b6001600160a01b03891681526101008101611b80602083018a611b40565b8760408301528660608301528560808301528460a08301528360c083015282151560e08301529998505050505050505050565b80356001600160a01b0381168114611bca57600080fd5b919050565b803562ffffff81168114611bca57600080fd5b60008060008060808587031215611bf857600080fd5b84359350611c0860208601611bb3565b925060408501359150611c1d60608601611bcf565b905092959194509250565b600080600080600060a08688031215611c4057600080fd5b853560038110611c4f57600080fd5b9450611c5d60208701611bb3565b93506040860135925060608601359150611c7960808701611bcf565b90509295509295909350565b60008060408385031215611c9857600080fd5b50508035926020909101359150565b600060208284031215611cb957600080fd5b611cc282611bb3565b9392505050565b602080825282518282018190526000918401906040840190835b81811015611d01578351835260209384019390920191600101611ce3565b509095945050505050565b600060208284031215611d1e57600080fd5b5051919050565b634e487b7160e01b600052601160045260246000fd5b8082028115828204841417610f9657610f96611d25565b600082611d6f57634e487b7160e01b600052601260045260246000fd5b500490565b634e487b7160e01b600052603260045260246000fd5b600060018201611d9c57611d9c611d25565b5060010190565b81810381811115610f9657610f96611d25565b80820180821115610f9657610f96611d25565b60408101611dd78285611b40565b8260208301529392505050565b81516001600160a01b03908116825260208084015182169083015260408084015162ffffff169083015260608084015191821690830152610100820190506080830151608083015260a083015160a083015260c083015160c083015260e0830151611e5a60e08401826001600160a01b03169052565b5092915050565b6000825160005b81811015611e825760208186018101518583015201611e68565b506000920191825250919050565b600060208284031215611ea257600080fd5b81518015158114611cc257600080fdfea2646970667358221220336636741f856779a5e070c210fcdb3c0da37a5a90cb1bc0ff7c418b6b6e751e64736f6c634300081c0033",
  "linkReferences": {},
  "deployedLinkReferences": {}
}