{
  "_format": "hh-sol-artifact-1",
  "contractName": "AjoCircle",
  "sourceName": "contracts/AjoCircle.sol",
  "abi": [
    {
      "inputs": [
        {
          "internalType": "address",
          "name": "_usdc",
          "type": "address"
        },
        {
          "internalType": "address",
          "name": "_router",
          "type": "address"
        },
        {
          "internalType": "address",
          "name": "_weth",
          "type": "address"
        }
      ],
      "stateMutability": "nonpayable",
      "type": "constructor"
    },
    {
      "anonymous": false,
      "inputs": [
        {
          "indexed": true,
          "internalType": "uint256",
          "name": "circleId",
          "type": "uint256"
        }
      ],
      "name": "CircleActivated",
      "type": "event"
    },
    {
      "anonymous": false,
      "inputs": [
        {
          "indexed": true,
          "internalType": "uint256",
          "name": "circleId",
          "type": "uint256"
        }
      ],
      "name": "CircleCompleted",
      "type": "event"
    },
    {
      "anonymous": false,
      "inputs": [
        {
          "indexed": true,
          "internalType": "uint256",
          "name": "circleId",
          "type": "uint256"
        },
        {
          "indexed": true,
          "internalType": "address",
          "name": "creator",
          "type": "address"
        },
        {
          "indexed": false,
          "internalType": "string",
          "name": "name",
          "type": "string"
        }
      ],
      "name": "CircleCreated",
      "type": "event"
    },
    {
      "anonymous": false,
      "inputs": [
        {
          "indexed": true,
          "internalType": "uint256",
          "name": "circleId",
          "type": "uint256"
        },
        {
          "indexed": true,
          "internalType": "address",
          "name": "member",
          "type": "address"
        },
        {
          "indexed": false,
          "internalType": "uint256",
          "name": "usdcAmount",
          "type": "uint256"
        },
        {
          "indexed": false,
          "internalType": "uint256",
          "name": "round",
          "type": "uint256"
        }
      ],
      "name": "ContributionMade",
      "type": "event"
    },
    {
      "anonymous": false,
      "inputs": [
        {
          "indexed": true,
          "internalType": "uint256",
          "name": "circleId",
          "type": "uint256"
        },
        {
          "indexed": true,
          "internalType": "address",
          "name": "member",
          "type": "address"
        }
      ],
      "name": "MemberJoined",
      "type": "event"
    },
    {
      "anonymous": false,
      "inputs": [
        {
          "indexed": true,
          "internalType": "uint256",
          "name": "circleId",
          "type": "uint256"
        },
        {
          "indexed": true,
          "internalType": "address",
          "name": "recipient",
          "type": "address"
        },
        {
          "indexed": false,
          "internalType": "uint256",
          "name": "amount",
          "type": "uint256"
        },
        {
          "indexed": false,
          "internalType": "uint256",
          "name": "round",
          "type": "uint256"
        }
      ],
      "name": "PayoutReleased",
      "type": "event"
    },
    {
      "inputs": [],
      "name": "UNISWAP_ROUTER",
      "outputs": [
        {
          "internalType": "address",
          "name": "",
          "type": "address"
        }
      ],
      "stateMutability": "view",
      "type": "function"
    },
    {
      "inputs": [],
      "name": "USDC",
      "outputs": [
        {
          "internalType": "address",
          "name": "",
          "type": "address"
        }
      ],
      "stateMutability": "view",
      "type": "function"
    },
    {
      "inputs": [],
      "name": "WETH",
      "outputs": [
        {
          "internalType": "address",
          "name": "",
          "type": "address"
        }
      ],
      "stateMutability": "view",
      "type": "function"
    },
    {
      "inputs": [],
      "name": "circleCount",
      "outputs": [
        {
          "internalType": "uint256",
          "name": "",
          "type": "uint256"
        }
      ],
      "stateMutability": "view",
      "type": "function"
    },
    {
      "inputs": [
        {
          "internalType": "uint256",
          "name": "",
          "type": "uint256"
        }
      ],
      "name": "circles",
      "outputs": [
        {
          "internalType": "string",
          "name": "name",
          "type": "string"
        },
        {
          "internalType": "uint256",
          "name": "maxMembers",
          "type": "uint256"
        },
        {
          "internalType": "uint256",
          "name": "contributionAmount",
          "type": "uint256"
        },
        {
          "internalType": "uint256",
          "name": "currentRound",
          "type": "uint256"
        },
        {
          "internalType": "uint256",
          "name": "totalRounds",
          "type": "uint256"
        },
        {
          "internalType": "uint256",
          "name": "poolBalance",
          "type": "uint256"
        },
        {
          "internalType": "uint256",
          "name": "nextPayoutTimestamp",
          "type": "uint256"
        },
        {
          "internalType": "uint256",
          "name": "frequency",
          "type": "uint256"
        },
        {
          "internalType": "enum AjoCircle.CircleStatus",
          "name": "status",
          "type": "uint8"
        },
        {
          "internalType": "bool",
          "name": "payoutPending",
          "type": "bool"
        },
        {
          "internalType": "uint256",
          "name": "paidCount",
          "type": "uint256"
        }
      ],
      "stateMutability": "view",
      "type": "function"
    },
    {
      "inputs": [
        {
          "internalType": "uint256",
          "name": "circleId",
          "type": "uint256"
        },
        {
          "internalType": "address",
          "name": "tokenOut",
          "type": "address"
        },
        {
          "internalType": "uint256",
          "name": "amountOutMinimum",
          "type": "uint256"
        },
        {
          "internalType": "uint24",
          "name": "poolFee",
          "type": "uint24"
        }
      ],
      "name": "claimPayout",
      "outputs": [],
      "stateMutability": "nonpayable",
      "type": "function"
    },
    {
      "inputs": [
        {
          "internalType": "uint256",
          "name": "circleId",
          "type": "uint256"
        },
        {
          "internalType": "address",
          "name": "tokenIn",
          "type": "address"
        },
        {
          "internalType": "uint256",
          "name": "amountIn",
          "type": "uint256"
        },
        {
          "internalType": "uint256",
          "name": "amountOutMinimum",
          "type": "uint256"
        },
        {
          "internalType": "uint24",
          "name": "poolFee",
          "type": "uint24"
        }
      ],
      "name": "contribute",
      "outputs": [],
      "stateMutability": "payable",
      "type": "function"
    },
    {
      "inputs": [
        {
          "internalType": "string",
          "name": "name",
          "type": "string"
        },
        {
          "internalType": "uint256",
          "name": "maxMembers",
          "type": "uint256"
        },
        {
          "internalType": "uint256",
          "name": "contributionAmountUSDC",
          "type": "uint256"
        },
        {
          "internalType": "uint256",
          "name": "frequencyInSeconds",
          "type": "uint256"
        }
      ],
      "name": "createCircle",
      "outputs": [
        {
          "internalType": "uint256",
          "name": "circleId",
          "type": "uint256"
        }
      ],
      "stateMutability": "nonpayable",
      "type": "function"
    },
    {
      "inputs": [
        {
          "internalType": "uint256",
          "name": "circleId",
          "type": "uint256"
        }
      ],
      "name": "getCircleInfo",
      "outputs": [
        {
          "internalType": "string",
          "name": "name",
          "type": "string"
        },
        {
          "internalType": "uint256",
          "name": "maxMembers",
          "type": "uint256"
        },
        {
          "internalType": "uint256",
          "name": "contributionAmount",
          "type": "uint256"
        },
        {
          "internalType": "uint256",
          "name": "currentRound",
          "type": "uint256"
        },
        {
          "internalType": "uint256",
          "name": "totalRounds",
          "type": "uint256"
        },
        {
          "internalType": "uint256",
          "name": "poolBalance",
          "type": "uint256"
        },
        {
          "internalType": "uint256",
          "name": "nextPayoutTimestamp",
          "type": "uint256"
        },
        {
          "internalType": "uint256",
          "name": "frequency",
          "type": "uint256"
        },
        {
          "internalType": "enum AjoCircle.CircleStatus",
          "name": "status",
          "type": "uint8"
        },
        {
          "internalType": "bool",
          "name": "payoutPending",
          "type": "bool"
        },
        {
          "internalType": "uint256",
          "name": "paidCount",
          "type": "uint256"
        }
      ],
      "stateMutability": "view",
      "type": "function"
    },
    {
      "inputs": [
        {
          "internalType": "uint256",
          "name": "circleId",
          "type": "uint256"
        }
      ],
      "name": "getCurrentRecipient",
      "outputs": [
        {
          "internalType": "address",
          "name": "",
          "type": "address"
        }
      ],
      "stateMutability": "view",
      "type": "function"
    },
    {
      "inputs": [
        {
          "internalType": "uint256",
          "name": "circleId",
          "type": "uint256"
        }
      ],
      "name": "getMemberCount",
      "outputs": [
        {
          "internalType": "uint256",
          "name": "",
          "type": "uint256"
        }
      ],
      "stateMutability": "view",
      "type": "function"
    },
    {
      "inputs": [
        {
          "internalType": "uint256",
          "name": "circleId",
          "type": "uint256"
        },
        {
          "internalType": "address",
          "name": "member",
          "type": "address"
        }
      ],
      "name": "getMemberPosition",
      "outputs": [
        {
          "internalType": "uint256",
          "name": "",
          "type": "uint256"
        }
      ],
      "stateMutability": "view",
      "type": "function"
    },
    {
      "inputs": [
        {
          "internalType": "uint256",
          "name": "circleId",
          "type": "uint256"
        }
      ],
      "name": "getMembers",
      "outputs": [
        {
          "internalType": "address[]",
          "name": "",
          "type": "address[]"
        }
      ],
      "stateMutability": "view",
      "type": "function"
    },
    {
      "inputs": [
        {
          "internalType": "address",
          "name": "user",
          "type": "address"
        }
      ],
      "name": "getUserCircles",
      "outputs": [
        {
          "internalType": "uint256[]",
          "name": "",
          "type": "uint256[]"
        }
      ],
      "stateMutability": "view",
      "type": "function"
    },
    {
      "inputs": [
        {
          "internalType": "uint256",
          "name": "circleId",
          "type": "uint256"
        },
        {
          "internalType": "address",
          "name": "member",
          "type": "address"
        }
      ],
      "name": "hasPaid",
      "outputs": [
        {
          "internalType": "bool",
          "name": "",
          "type": "bool"
        }
      ],
      "stateMutability": "view",
      "type": "function"
    },
    {
      "inputs": [
        {
          "internalType": "uint256",
          "name": "circleId",
          "type": "uint256"
        }
      ],
      "name": "joinCircle",
      "outputs": [],
      "stateMutability": "nonpayable",
      "type": "function"
    },
    {
      "inputs": [],
      "name": "owner",
      "outputs": [
        {
          "internalType": "address",
          "name": "",
          "type": "address"
        }
      ],
      "stateMutability": "view",
      "type": "function"
    },
    {
      "inputs": [],
      "name": "rescueETH",
      "outputs": [],
      "stateMutability": "nonpayable",
      "type": "function"
    },
    {
      "stateMutability": "payable",
      "type": "receive"
    }
  ],
  "bytecode": "0x61010060405234801561001157600080fd5b5060405161279d38038061279d833981016040819052610030916100d1565b60016000556001600160a01b0383161580159061005557506001600160a01b03821615155b6100945760405162461bcd60e51b815260206004820152600c60248201526b5a65726f206164647265737360a01b604482015260640160405180910390fd5b6001600160a01b0392831660805290821660a0521660c0523360e052610114565b80516001600160a01b03811681146100cc57600080fd5b919050565b6000806000606084860312156100e657600080fd5b6100ef846100b5565b92506100fd602085016100b5565b915061010b604085016100b5565b90509250925092565b60805160a05160c05160e0516125cb6101d26000396000818161021f0152818161043b01526104d40152600081816102730152818161149f0152818161198e0152611b5001526000818161037401528181611546015281816115ed015281816116a7015281816119e70152611aa50152600081816101d301528181610ebd01528181611393015281816113cf015281816114ce0152818161162f0152818161190d01528181611949015281816119c60152611a1c01526125cb6000f3fe60806040526004361061010d5760003560e01c8063bc5e0f3011610095578063d0acdd8e11610064578063d0acdd8e1461034f578063d826492014610362578063d8bc7fff14610396578063da5f5cff146103f0578063fb479fb01461041057600080fd5b8063bc5e0f30146102b5578063c477ecab146102ec578063cf0b111714610319578063d02fa0841461032f57600080fd5b806389a30271116100dc57806389a30271146101c15780638da5cb5b1461020d5780639d07fd1314610241578063ad5c464814610261578063b74668351461029557600080fd5b806320800a00146101195780635ce9284f1461013057806386d6cfb31461017457806388e81d8a1461019457600080fd5b3661011457005b600080fd5b34801561012557600080fd5b5061012e610430565b005b34801561013c57600080fd5b5061016161014b366004611f5c565b6000908152600160208190526040909120015490565b6040519081526020015b60405180910390f35b34801561018057600080fd5b5061012e61018f366004611f5c565b61058b565b3480156101a057600080fd5b506101b46101af366004611f91565b610773565b60405161016b9190611fb3565b3480156101cd57600080fd5b506101f57f000000000000000000000000000000000000000000000000000000000000000081565b6040516001600160a01b03909116815260200161016b565b34801561021957600080fd5b506101f57f000000000000000000000000000000000000000000000000000000000000000081565b34801561024d57600080fd5b506101f561025c366004611f5c565b6107df565b34801561026d57600080fd5b506101f57f000000000000000000000000000000000000000000000000000000000000000081565b3480156102a157600080fd5b506101616102b036600461200c565b610873565b3480156102c157600080fd5b506102d56102d0366004611f5c565b610a98565b60405161016b9b9a9998979695949392919061213f565b3480156102f857600080fd5b5061030c610307366004611f5c565b610b7e565b60405161016b91906121cb565b34801561032557600080fd5b5061016160025481565b34801561033b57600080fd5b5061016161034a36600461220c565b610bec565b61012e61035d36600461224b565b610c19565b34801561036e57600080fd5b506101f57f000000000000000000000000000000000000000000000000000000000000000081565b3480156103a257600080fd5b506103e06103b136600461220c565b60008281526001602090815260408083206001600160a01b0385168452600b0190915290205460ff1692915050565b604051901515815260200161016b565b3480156103fc57600080fd5b506102d561040b366004611f5c565b610fa0565b34801561041c57600080fd5b5061012e61042b36600461229b565b6110b5565b336001600160a01b037f000000000000000000000000000000000000000000000000000000000000000016146104995760405162461bcd60e51b81526020600482015260096024820152682737ba1037bbb732b960b91b60448201526064015b60405180910390fd5b47806104d05760405162461bcd60e51b815260206004820152600660248201526509cde408aa8960d31b6044820152606401610490565b60007f00000000000000000000000000000000000000000000000000000000000000006001600160a01b03168260405160006040518083038185875af1925050503d806000811461053d576040519150601f19603f3d011682016040523d82523d6000602084013e610542565b606091505b50509050806105875760405162461bcd60e51b8152602060048201526011602482015270115512081c995cd8dd594819985a5b1959607a1b6044820152606401610490565b5050565b60008181526001602081905260409091206002810154918101549091116105e55760405162461bcd60e51b815260206004820152600e60248201526d10da5c98db19481a5cc8199d5b1b60921b6044820152606401610490565b6000600982015460ff16600281111561060057610600612129565b1461063e5760405162461bcd60e51b815260206004820152600e60248201526d4e6f742072656372756974696e6760901b6044820152606401610490565b336000908152600c82016020526040902054156106905760405162461bcd60e51b815260206004820152601060248201526f20b63932b0b23c90309036b2b6b132b960811b6044820152606401610490565b6001808201805480830182556000828152602080822090920180546001600160a01b031916339081179091559254838252600c860183526040808320919091556004835280822080549586018155825291812090930185905551909184917f78da64a590c3052953ad9e0a5546bbf12bb68ae7634e3fb2a774e22a8c6557c19190a360028101546001820154036105875760098101805460ff19166001179055600881015461073f90426122f7565b600782015560405182907faa8b7289f77c0a8b226248e26401151f4903884ab85ba3decb12926f4c7c3acc90600090a25050565b6001600160a01b0381166000908152600460209081526040918290208054835181840281018401909452808452606093928301828280156107d357602002820191906000526020600020905b8154815260200190600101908083116107bf575b50505050509050919050565b60008181526001602052604081206009810154610100900460ff16158061080857506004810154155b156108165750600092915050565b600060018260040154610829919061230a565b60018301549091508110610841575060009392505050565b8160010181815481106108565761085661231d565b6000918252602090912001546001600160a01b0316949350505050565b6000808551116108b25760405162461bcd60e51b815260206004820152600a602482015269456d707479206e616d6560b01b6044820152606401610490565b600284101580156108c4575060328411155b6109005760405162461bcd60e51b815260206004820152600d60248201526c04d656d626572733a20322d353609c1b6044820152606401610490565b600083116109445760405162461bcd60e51b81526020600482015260116024820152702d32b9379031b7b73a3934b13aba34b7b760791b6044820152606401610490565b600082116109855760405162461bcd60e51b815260206004820152600e60248201526d5a65726f206672657175656e637960901b6044820152606401610490565b61098d6112b4565b6000818152600160205260409020909150806109a987826123b4565b506002810185905560038101849055600581018590556008810183905560098101805460ff191690556001808201805480830182556000918252602080832090910180546001600160a01b03191633908117909155808352600c8501825260408084208590556004835280842080549586018155845291909220909201849055905183907f6f657d36deb3b1aa2e949c5df40eac9d79359a73c2402cefa7aee870f9ceafc090610a5a908a90612473565b60405180910390a3604051339083907f78da64a590c3052953ad9e0a5546bbf12bb68ae7634e3fb2a774e22a8c6557c190600090a350949350505050565b600160205260009081526040902080548190610ab390612333565b80601f0160208091040260200160405190810160405280929190818152602001828054610adf90612333565b8015610b2c5780601f10610b0157610100808354040283529160200191610b2c565b820191906000526020600020905b815481529060010190602001808311610b0f57829003601f168201915b50505060028401546003850154600486015460058701546006880154600789015460088a015460098b0154600a909b0154999a96999598509396509194909391929160ff80831692610100900416908b565b6000818152600160208181526040928390209091018054835181840281018401909452808452606093928301828280156107d357602002820191906000526020600020905b81546001600160a01b03168152600190910190602001808311610bc35750505050509050919050565b60008281526001602090815260408083206001600160a01b0385168452600c019091529020545b92915050565b600260005403610c6b5760405162461bcd60e51b815260206004820152601f60248201527f5265656e7472616e637947756172643a207265656e7472616e742063616c6c006044820152606401610490565b60026000556001600160a01b03841615610ccd573415610ccd5760405162461bcd60e51b815260206004820152601f60248201527f455448206e6f7420616363657074656420666f722045524332302070617468006044820152606401610490565b600085815260016020819052604090912090600982015460ff166002811115610cf857610cf8612129565b14610d395760405162461bcd60e51b8152602060048201526011602482015270436972636c65206e6f742061637469766560781b6044820152606401610490565b6009810154610100900460ff1615610d8b5760405162461bcd60e51b81526020600482015260156024820152744177616974696e67207061796f757420636c61696d60581b6044820152606401610490565b336000908152600c82016020526040902054610dd85760405162461bcd60e51b815260206004820152600c60248201526b2737ba10309036b2b6b132b960a11b6044820152606401610490565b336000908152600b8201602052604090205460ff1615610e3a5760405162461bcd60e51b815260206004820152601e60248201527f416c726561647920636f6e7472696275746564207468697320726f756e6400006044820152606401610490565b6000610e488686868661138f565b90508160030154811015610e9e5760405162461bcd60e51b815260206004820152601c60248201527f496e73756666696369656e7420555344432061667465722073776170000000006044820152606401610490565b6000826003015482610eb0919061230a565b90508015610ee357610ee37f00000000000000000000000000000000000000000000000000000000000000003383611741565b336000908152600b840160205260408120805460ff19166001179055600a8401805491610f0f83612486565b91905055508260030154836006016000828254610f2c91906122f7565b90915550506003830154600484015460408051928352602083019190915233918a917ff9b7589b7a8d939b9da5dae90770378fe5fd7802be5d66432e85bedbdbfbcb7a910160405180910390a3826002015483600a015403610f9157610f918861184e565b50506001600055505050505050565b600081815260016020526040812060028101546003820154600483015460058401546006850154600786015460088701546009880154600a890154895460609b9a8b9a8b9a8b9a8b9a8b9a8b9a8b9a8b9a8b9a98998a9960ff80841693610100900416918b9061100f90612333565b80601f016020809104026020016040519081016040528092919081815260200182805461103b90612333565b80156110885780601f1061105d57610100808354040283529160200191611088565b820191906000526020600020905b81548152906001019060200180831161106b57829003601f168201915b50505050509a509b509b509b509b509b509b509b509b509b509b509b505091939597999b90929496989a50565b6002600054036111075760405162461bcd60e51b815260206004820152601f60248201527f5265656e7472616e637947756172643a207265656e7472616e742063616c6c006044820152606401610490565b600260009081558481526001602052604090206009810154610100900460ff166111675760405162461bcd60e51b81526020600482015260116024820152704e6f207061796f75742070656e64696e6760781b6044820152606401610490565b60006001826004015461117a919061230a565b905060008260010182815481106111935761119361231d565b6000918252602090912001546001600160a01b031690503381146111f15760405162461bcd60e51b8152602060048201526015602482015274139bdd0818dd5c9c995b9d081c9958da5c1a595b9d605a1b6044820152606401610490565b600683018054600090915560098401805461ff001916905560408051828152602081018590526001600160a01b038416918a917f5fee043a0db2f303c5be0b8f554d0f9e91efc1e74fe501166969ffc487e3b25b910160405180910390a361125c878288888661190b565b8360050154846004015403610f915760098401805460ff1916600217905560405188907ffccd3901546cfbb42742cac2c7335bce34f1f8d9844f4f4b53640f79e310108790600090a250506001600055505050505050565b6000620dbba04433600260008154809291906112cf90612486565b919050556040516020016113089392919092835260609190911b6bffffffffffffffffffffffff19166020830152603482015260540190565b6040516020818303038152906040528051906020012060001c61132b919061249f565b61133890620186a06122f7565b90505b60008181526003602052604090205460ff16156113735761135f620f423f8261249f565b61136c90620186a06122f7565b905061133b565b6000818152600360205260409020805460ff1916600117905590565b60007f00000000000000000000000000000000000000000000000000000000000000006001600160a01b0316856001600160a01b0316036113fd576113f67f0000000000000000000000000000000000000000000000000000000000000000333087611c5b565b5082611739565b6040805161010081018252600080825260208201819052918101829052606081018290526080810182905260a0810182905260c0810182905260e08101919091526001600160a01b0386166115db578434146114915760405162461bcd60e51b815260206004820152601360248201527208aa89040c2dadeeadce840dad2e6dac2e8c6d606b1b6044820152606401610490565b6040518061010001604052807f00000000000000000000000000000000000000000000000000000000000000006001600160a01b031681526020017f00000000000000000000000000000000000000000000000000000000000000006001600160a01b031681526020018462ffffff168152602001306001600160a01b031681526020014261038461152391906122f7565b815260200186815260200185815260200160006001600160a01b031681525090507f00000000000000000000000000000000000000000000000000000000000000006001600160a01b031663414bf38986836040518363ffffffff1660e01b815260040161159191906124c1565b60206040518083038185885af11580156115af573d6000803e3d6000fd5b50505050506040513d601f19601f820116820180604052508101906115d4919061253e565b9150611737565b6115e786333088611c5b565b611612867f000000000000000000000000000000000000000000000000000000000000000087611d75565b604051806101000160405280876001600160a01b031681526020017f00000000000000000000000000000000000000000000000000000000000000006001600160a01b031681526020018462ffffff168152602001306001600160a01b031681526020014261038461168491906122f7565b815260200186815260200185815260200160006001600160a01b031681525090507f00000000000000000000000000000000000000000000000000000000000000006001600160a01b031663414bf389826040518263ffffffff1660e01b81526004016116f191906124c1565b6020604051808303816000875af1158015611710573d6000803e3d6000fd5b505050506040513d601f19601f82011682018060405250810190611734919061253e565b91505b505b949350505050565b604080516001600160a01b038481166024830152604480830185905283518084039091018152606490920183526020820180516001600160e01b031663a9059cbb60e01b179052915160009283929087169161179d9190612557565b6000604051808303816000865af19150503d80600081146117da576040519150601f19603f3d011682016040523d82523d6000602084013e6117df565b606091505b50915091508180156118095750805115806118095750808060200190518101906118099190612573565b6118475760405162461bcd60e51b815260206004820152600f60248201526e151c985b9cd9995c8819985a5b1959608a1b6044820152606401610490565b5050505050565b600081815260016020526040812060098101805461ff001916610100179055600481018054919261187e83612486565b90915550506000600a820155600881015461189990426122f7565b600782015560005b600182015481101561190657600082600b0160008460010184815481106118ca576118ca61231d565b6000918252602080832091909101546001600160a01b031683528201929092526040019020805460ff19169115159190911790556001016118a1565b505050565b7f00000000000000000000000000000000000000000000000000000000000000006001600160a01b0316856001600160a01b0316036119745761196f7f00000000000000000000000000000000000000000000000000000000000000008286611741565b611847565b6001600160a01b0385161560008161198c57866119ae565b7f00000000000000000000000000000000000000000000000000000000000000005b90506000826119bd57836119bf565b305b9050611a0c7f00000000000000000000000000000000000000000000000000000000000000007f000000000000000000000000000000000000000000000000000000000000000089611d75565b60006040518061010001604052807f00000000000000000000000000000000000000000000000000000000000000006001600160a01b03168152602001846001600160a01b031681526020018762ffffff168152602001836001600160a01b0316815260200142610384611a8091906122f7565b815260200189815260200188815260200160006001600160a01b0316815250905060007f00000000000000000000000000000000000000000000000000000000000000006001600160a01b031663414bf389836040518263ffffffff1660e01b8152600401611aef91906124c1565b6020604051808303816000875af1158015611b0e573d6000803e3d6000fd5b505050506040513d601f19601f82011682018060405250810190611b32919061253e565b90508415611c4f57604051632e1a7d4d60e01b8152600481018290527f00000000000000000000000000000000000000000000000000000000000000006001600160a01b031690632e1a7d4d90602401600060405180830381600087803b158015611b9c57600080fd5b505af1158015611bb0573d6000803e3d6000fd5b505050506000866001600160a01b03168260405160006040518083038185875af1925050503d8060008114611c01576040519150601f19603f3d011682016040523d82523d6000602084013e611c06565b606091505b5050905080611c4d5760405162461bcd60e51b8152602060048201526013602482015272115512081d1c985b9cd9995c8819985a5b1959606a1b6044820152606401610490565b505b50505050505050505050565b604080516001600160a01b0385811660248301528481166044830152606480830185905283518084039091018152608490920183526020820180516001600160e01b03166323b872dd60e01b1790529151600092839290881691611cbf9190612557565b6000604051808303816000865af19150503d8060008114611cfc576040519150601f19603f3d011682016040523d82523d6000602084013e611d01565b606091505b5091509150818015611d2b575080511580611d2b575080806020019051810190611d2b9190612573565b611d6d5760405162461bcd60e51b8152602060048201526013602482015272151c985b9cd9995c919c9bdb4819985a5b1959606a1b6044820152606401610490565b505050505050565b604080516001600160a01b0384811660248301526000604480840182905284518085039091018152606490930184526020830180516001600160e01b031663095ea7b360e01b179052925190861691611dcd91612557565b6000604051808303816000865af19150503d8060008114611e0a576040519150601f19603f3d011682016040523d82523d6000602084013e611e0f565b606091505b5050905080611e575760405162461bcd60e51b8152602060048201526014602482015273105c1c1c9bdd99481c995cd95d0819985a5b195960621b6044820152606401610490565b604080516001600160a01b038581166024830152604480830186905283518084039091018152606490920183526020820180516001600160e01b031663095ea7b360e01b1790529151600092839290881691611eb39190612557565b6000604051808303816000865af19150503d8060008114611ef0576040519150601f19603f3d011682016040523d82523d6000602084013e611ef5565b606091505b5091509150818015611f1f575080511580611f1f575080806020019051810190611f1f9190612573565b611d6d5760405162461bcd60e51b815260206004820152600e60248201526d105c1c1c9bdd994819985a5b195960921b6044820152606401610490565b600060208284031215611f6e57600080fd5b5035919050565b80356001600160a01b0381168114611f8c57600080fd5b919050565b600060208284031215611fa357600080fd5b611fac82611f75565b9392505050565b602080825282518282018190526000918401906040840190835b81811015611feb578351835260209384019390920191600101611fcd565b509095945050505050565b634e487b7160e01b600052604160045260246000fd5b6000806000806080858703121561202257600080fd5b843567ffffffffffffffff81111561203957600080fd5b8501601f8101871361204a57600080fd5b803567ffffffffffffffff81111561206457612064611ff6565b604051601f8201601f19908116603f0116810167ffffffffffffffff8111828210171561209357612093611ff6565b6040528181528282016020018910156120ab57600080fd5b8160208401602083013760006020928201830152989087013597506040870135966060013595509350505050565b60005b838110156120f45781810151838201526020016120dc565b50506000910152565b600081518084526121158160208601602086016120d9565b601f01601f19169290920160200192915050565b634e487b7160e01b600052602160045260246000fd5b6101608152600061215461016083018e6120fd565b90508b60208301528a60408301528960608301528860808301528760a08301528660c08301528560e08301526003851061219e57634e487b7160e01b600052602160045260246000fd5b846101008301526121b461012083018515159052565b826101408301529c9b505050505050505050505050565b602080825282518282018190526000918401906040840190835b81811015611feb5783516001600160a01b03168352602093840193909201916001016121e5565b6000806040838503121561221f57600080fd5b8235915061222f60208401611f75565b90509250929050565b803562ffffff81168114611f8c57600080fd5b600080600080600060a0868803121561226357600080fd5b8535945061227360208701611f75565b9350604086013592506060860135915061228f60808701612238565b90509295509295909350565b600080600080608085870312156122b157600080fd5b843593506122c160208601611f75565b9250604085013591506122d660608601612238565b905092959194509250565b634e487b7160e01b600052601160045260246000fd5b80820180821115610c1357610c136122e1565b81810381811115610c1357610c136122e1565b634e487b7160e01b600052603260045260246000fd5b600181811c9082168061234757607f821691505b60208210810361236757634e487b7160e01b600052602260045260246000fd5b50919050565b601f82111561190657806000526020600020601f840160051c810160208510156123945750805b601f840160051c820191505b8181101561184757600081556001016123a0565b815167ffffffffffffffff8111156123ce576123ce611ff6565b6123e2816123dc8454612333565b8461236d565b6020601f82116001811461241657600083156123fe5750848201515b600019600385901b1c1916600184901b178455611847565b600084815260208120601f198516915b828110156124465787850151825560209485019460019092019101612426565b50848210156124645786840151600019600387901b60f8161c191681555b50505050600190811b01905550565b602081526000611fac60208301846120fd565b600060018201612498576124986122e1565b5060010190565b6000826124bc57634e487b7160e01b600052601260045260246000fd5b500690565b81516001600160a01b03908116825260208084015182169083015260408084015162ffffff169083015260608084015191821690830152610100820190506080830151608083015260a083015160a083015260c083015160c083015260e083015161253760e08401826001600160a01b03169052565b5092915050565b60006020828403121561255057600080fd5b5051919050565b600082516125698184602087016120d9565b9190910192915050565b60006020828403121561258557600080fd5b81518015158114611fac57600080fdfea26469706673582212208f5af7f30b1be77cd7f31fa9bfcca04e8bde7fe1acc4dd82250963bf8051d92964736f6c634300081c0033",
  "linkReferences": {},
  "deployedLinkReferences": {}
}