{
  "_format": "hh-sol-artifact-1",
  "contractName": "RollaVault",
  "sourceName": "contracts/RollaVault.sol",
  "abi": [
    {
      "inputs": [
        {
          "internalType": "address",
          "name": "_usdt",
          "type": "address"
        },
        {
          "internalType": "address",
          "name": "_router",
          "type": "address"
        },
        {
          "internalType": "address",
          "name": "_aavePool",
          "type": "address"
        },
        {
          "internalType": "address",
          "name": "_aUsdt",
          "type": "address"
        },
        {
          "internalType": "address",
          "name": "_weth",
          "type": "address"
        }
      ],
      "stateMutability": "nonpayable",
      "type": "constructor"
    },
    {
      "anonymous": false,
      "inputs": [
        {
          "indexed": true,
          "internalType": "uint256",
          "name": "vaultId",
          "type": "uint256"
        },
        {
          "indexed": true,
          "internalType": "address",
          "name": "owner",
          "type": "address"
        },
        {
          "indexed": false,
          "internalType": "uint256",
          "name": "usdtValue",
          "type": "uint256"
        },
        {
          "indexed": false,
          "internalType": "address",
          "name": "tokenOut",
          "type": "address"
        }
      ],
      "name": "VaultClaimed",
      "type": "event"
    },
    {
      "anonymous": false,
      "inputs": [
        {
          "indexed": true,
          "internalType": "uint256",
          "name": "vaultId",
          "type": "uint256"
        },
        {
          "indexed": true,
          "internalType": "address",
          "name": "owner",
          "type": "address"
        },
        {
          "indexed": false,
          "internalType": "enum RollaVault.VaultTier",
          "name": "tier",
          "type": "uint8"
        },
        {
          "indexed": false,
          "internalType": "uint256",
          "name": "usdtDeposited",
          "type": "uint256"
        }
      ],
      "name": "VaultCreated",
      "type": "event"
    },
    {
      "inputs": [],
      "name": "AAVE_POOL",
      "outputs": [
        {
          "internalType": "address",
          "name": "",
          "type": "address"
        }
      ],
      "stateMutability": "view",
      "type": "function"
    },
    {
      "inputs": [],
      "name": "A_USDT",
      "outputs": [
        {
          "internalType": "address",
          "name": "",
          "type": "address"
        }
      ],
      "stateMutability": "view",
      "type": "function"
    },
    {
      "inputs": [],
      "name": "UNISWAP_ROUTER",
      "outputs": [
        {
          "internalType": "address",
          "name": "",
          "type": "address"
        }
      ],
      "stateMutability": "view",
      "type": "function"
    },
    {
      "inputs": [],
      "name": "USDT",
      "outputs": [
        {
          "internalType": "address",
          "name": "",
          "type": "address"
        }
      ],
      "stateMutability": "view",
      "type": "function"
    },
    {
      "inputs": [],
      "name": "WETH",
      "outputs": [
        {
          "internalType": "address",
          "name": "",
          "type": "address"
        }
      ],
      "stateMutability": "view",
      "type": "function"
    },
    {
      "inputs": [
        {
          "internalType": "uint256",
          "name": "",
          "type": "uint256"
        }
      ],
      "name": "aprBps",
      "outputs": [
        {
          "internalType": "uint256",
          "name": "",
          "type": "uint256"
        }
      ],
      "stateMutability": "view",
      "type": "function"
    },
    {
      "inputs": [
        {
          "internalType": "uint256",
          "name": "vaultId",
          "type": "uint256"
        },
        {
          "internalType": "address",
          "name": "tokenOut",
          "type": "address"
        },
        {
          "internalType": "uint256",
          "name": "amountOutMinimum",
          "type": "uint256"
        },
        {
          "internalType": "uint24",
          "name": "poolFee",
          "type": "uint24"
        }
      ],
      "name": "claim",
      "outputs": [],
      "stateMutability": "nonpayable",
      "type": "function"
    },
    {
      "inputs": [
        {
          "internalType": "enum RollaVault.VaultTier",
          "name": "tier",
          "type": "uint8"
        },
        {
          "internalType": "address",
          "name": "tokenIn",
          "type": "address"
        },
        {
          "internalType": "uint256",
          "name": "amountIn",
          "type": "uint256"
        },
        {
          "internalType": "uint256",
          "name": "amountOutMinimum",
          "type": "uint256"
        },
        {
          "internalType": "uint24",
          "name": "poolFee",
          "type": "uint24"
        }
      ],
      "name": "deposit",
      "outputs": [
        {
          "internalType": "uint256",
          "name": "vaultId",
          "type": "uint256"
        }
      ],
      "stateMutability": "payable",
      "type": "function"
    },
    {
      "inputs": [
        {
          "internalType": "uint256",
          "name": "vaultId",
          "type": "uint256"
        },
        {
          "internalType": "uint256",
          "name": "atTimestamp",
          "type": "uint256"
        }
      ],
      "name": "getProjectedEarnings",
      "outputs": [
        {
          "internalType": "uint256",
          "name": "earnings",
          "type": "uint256"
        }
      ],
      "stateMutability": "view",
      "type": "function"
    },
    {
      "inputs": [
        {
          "internalType": "address",
          "name": "user",
          "type": "address"
        }
      ],
      "name": "getUserVaults",
      "outputs": [
        {
          "internalType": "uint256[]",
          "name": "",
          "type": "uint256[]"
        }
      ],
      "stateMutability": "view",
      "type": "function"
    },
    {
      "inputs": [
        {
          "internalType": "uint256",
          "name": "vaultId",
          "type": "uint256"
        }
      ],
      "name": "getVaultBalance",
      "outputs": [
        {
          "internalType": "uint256",
          "name": "",
          "type": "uint256"
        }
      ],
      "stateMutability": "view",
      "type": "function"
    },
    {
      "inputs": [
        {
          "internalType": "uint256",
          "name": "vaultId",
          "type": "uint256"
        }
      ],
      "name": "isMatured",
      "outputs": [
        {
          "internalType": "bool",
          "name": "",
          "type": "bool"
        }
      ],
      "stateMutability": "view",
      "type": "function"
    },
    {
      "inputs": [
        {
          "internalType": "uint256",
          "name": "",
          "type": "uint256"
        }
      ],
      "name": "lockDurations",
      "outputs": [
        {
          "internalType": "uint256",
          "name": "",
          "type": "uint256"
        }
      ],
      "stateMutability": "view",
      "type": "function"
    },
    {
      "inputs": [
        {
          "internalType": "uint256",
          "name": "",
          "type": "uint256"
        }
      ],
      "name": "minDeposits",
      "outputs": [
        {
          "internalType": "uint256",
          "name": "",
          "type": "uint256"
        }
      ],
      "stateMutability": "view",
      "type": "function"
    },
    {
      "inputs": [],
      "name": "vaultCount",
      "outputs": [
        {
          "internalType": "uint256",
          "name": "",
          "type": "uint256"
        }
      ],
      "stateMutability": "view",
      "type": "function"
    },
    {
      "inputs": [
        {
          "internalType": "uint256",
          "name": "",
          "type": "uint256"
        }
      ],
      "name": "vaults",
      "outputs": [
        {
          "internalType": "address",
          "name": "owner",
          "type": "address"
        },
        {
          "internalType": "enum RollaVault.VaultTier",
          "name": "tier",
          "type": "uint8"
        },
        {
          "internalType": "uint256",
          "name": "principalUSDT",
          "type": "uint256"
        },
        {
          "internalType": "uint256",
          "name": "aTokenShares",
          "type": "uint256"
        },
        {
          "internalType": "uint256",
          "name": "depositTimestamp",
          "type": "uint256"
        },
        {
          "internalType": "uint256",
          "name": "maturityTimestamp",
          "type": "uint256"
        },
        {
          "internalType": "uint256",
          "name": "lockDuration",
          "type": "uint256"
        },
        {
          "internalType": "bool",
          "name": "claimed",
          "type": "bool"
        }
      ],
      "stateMutability": "view",
      "type": "function"
    },
    {
      "stateMutability": "payable",
      "type": "receive"
    }
  ],
  "bytecode": "0x610180604052629896806101209081526305f5e10061014052631dcd65006101605261002f906001906003610172565b5060408051606081018252600081526276a70060208201526301e1338091810191909152610061906004906003610172565b50604080516060810182526101c2815261039860208201526105c8918101919091526100919060079060036101b8565b5034801561009e57600080fd5b5060405161213c38038061213c8339810160408190526100bd9161021d565b60016000556001600160a01b038516158015906100e257506001600160a01b03841615155b80156100f657506001600160a01b03831615155b801561010a57506001600160a01b03821615155b6101495760405162461bcd60e51b815260206004820152600c60248201526b5a65726f206164647265737360a01b604482015260640160405180910390fd5b6001600160a01b0394851660805292841660a05290831660c052821660e0521661010052610282565b82600381019282156101a8579160200282015b828111156101a8578251829063ffffffff16905591602001919060010190610185565b506101b49291506101ec565b5090565b82600381019282156101a8579160200282015b828111156101a8578251829061ffff169055916020019190600101906101cb565b5b808211156101b457600081556001016101ed565b80516001600160a01b038116811461021857600080fd5b919050565b600080600080600060a0868803121561023557600080fd5b61023e86610201565b945061024c60208701610201565b935061025a60408701610201565b925061026860608701610201565b915061027660808701610201565b90509295509295909350565b60805160a05160c05160e05161010051611db261038a600039600081816102d801528181610f550152818161111701526113330152600081816103d401528181610a4a0152610bd00152600081816101150152818161045c0152818161078f0152818161087901528181610ae50152610b5d01526000818161037301528181610fae0152818161106c015281816113da01528181611481015261153b01526000818161030c01528181610431015281816107640152818161083e01528181610ac401528181610b2101528181610ed401528181610f1001528181610f8d01528181610fe301528181611227015281816112630152818161136201526114c30152611db26000f3fe6080604052600436106100f75760003560e01c8063a849cef81161008a578063d180bd2411610059578063d180bd2414610341578063d826492014610361578063e7f3c69c14610395578063f23620a4146103c257600080fd5b8063a849cef8146102a6578063ad5c4648146102c6578063c54e44eb146102fa578063d0744a0a1461032e57600080fd5b806363108990116100c657806363108990146101c25780638c64ea4a146101f2578063a0a36e651461026e578063a7c6a1001461029057600080fd5b806308a0167514610103578063190ef5c4146101545780631daa34e71461018257806332298be1146101a257600080fd5b366100fe57005b600080fd5b34801561010f57600080fd5b506101377f000000000000000000000000000000000000000000000000000000000000000081565b6040516001600160a01b0390911681526020015b60405180910390f35b34801561016057600080fd5b5061017461016f3660046119db565b6103f6565b60405190815260200161014b565b34801561018e57600080fd5b5061017461019d3660046119db565b6104fa565b3480156101ae57600080fd5b506101746101bd3660046119db565b610511565b3480156101ce57600080fd5b506101e26101dd3660046119db565b610521565b604051901515815260200161014b565b3480156101fe57600080fd5b5061025a61020d3660046119db565b600a6020526000908152604090208054600182015460028301546003840154600485015460058601546006909601546001600160a01b0386169660ff600160a01b90970487169690911688565b60405161014b989796959493929190611a2c565b34801561027a57600080fd5b5061028e610289366004611aac565b61058e565b005b34801561029c57600080fd5b50610174600c5481565b3480156102b257600080fd5b506101746102c13660046119db565b61094a565b3480156102d257600080fd5b506101377f000000000000000000000000000000000000000000000000000000000000000081565b34801561030657600080fd5b506101377f000000000000000000000000000000000000000000000000000000000000000081565b61017461033c366004611af2565b61095a565b34801561034d57600080fd5b5061017461035c366004611b4f565b610db4565b34801561036d57600080fd5b506101377f000000000000000000000000000000000000000000000000000000000000000081565b3480156103a157600080fd5b506103b56103b0366004611b71565b610e66565b60405161014b9190611b93565b3480156103ce57600080fd5b506101377f000000000000000000000000000000000000000000000000000000000000000081565b6000818152600a60205260408120600681015460ff161561041a5750600092915050565b60405163d15e005360e01b81526001600160a01b037f0000000000000000000000000000000000000000000000000000000000000000811660048301526000917f00000000000000000000000000000000000000000000000000000000000000009091169063d15e005390602401602060405180830381865afa1580156104a5573d6000803e3d6000fd5b505050506040513d601f19601f820116820180604052508101906104c99190611bd6565b90506b033b2e3c9fd0803ce80000008183600201546104e89190611c05565b6104f29190611c1c565b949350505050565b6007816003811061050a57600080fd5b0154905081565b6004816003811061050a57600080fd5b6000818152600a60205260408120600681015460ff168061054a575080546001600160a01b0316155b156105585750600092915050565b8060030154421161056c5750600092915050565b80600501546000036105815750600192915050565b6004015442101592915050565b6002600054036105e55760405162461bcd60e51b815260206004820152601f60248201527f5265656e7472616e637947756172643a207265656e7472616e742063616c6c0060448201526064015b60405180910390fd5b60026000908155848152600a6020526040902080546001600160a01b031633146106435760405162461bcd60e51b815260206004820152600f60248201526e2737ba103b30bab63a1037bbb732b960891b60448201526064016105dc565b600681015460ff161561068a5760405162461bcd60e51b815260206004820152600f60248201526e105b1c9958591e4818db185a5b5959608a1b60448201526064016105dc565b806003015442116106e85760405162461bcd60e51b815260206004820152602260248201527f43616e6e6f7420636c61696d2073616d6520626c6f636b206173206465706f736044820152611a5d60f21b60648201526084016105dc565b60058101541561073e57806004015442101561073e5760405162461bcd60e51b815260206004820152601560248201527415985d5b1d081b9bdd081e595d081b585d1d5c9959605a1b60448201526064016105dc565b60068101805460ff1916600117905560405163d15e005360e01b81526001600160a01b037f0000000000000000000000000000000000000000000000000000000000000000811660048301526000917f00000000000000000000000000000000000000000000000000000000000000009091169063d15e005390602401602060405180830381865afa1580156107d8573d6000803e3d6000fd5b505050506040513d601f19601f820116820180604052508101906107fc9190611bd6565b905060006b033b2e3c9fd0803ce800000082846002015461081d9190611c05565b6108279190611c1c565b604051631a4ca37b60e21b81526001600160a01b037f000000000000000000000000000000000000000000000000000000000000000081166004830152602482018390523060448301529192506000917f000000000000000000000000000000000000000000000000000000000000000016906369328dec906064016020604051808303816000875af11580156108c2573d6000803e3d6000fd5b505050506040513d601f19601f820116820180604052508101906108e69190611bd6565b604080518281526001600160a01b038a16602082015291925033918a917fcf17c0bbe006e888b4962be938e38550aac52f85e17960a935257944b121eaf8910160405180910390a361093b8782888833610ed2565b50506001600055505050505050565b6001816003811061050a57600080fd5b60006002600054036109ae5760405162461bcd60e51b815260206004820152601f60248201527f5265656e7472616e637947756172643a207265656e7472616e742063616c6c0060448201526064016105dc565b600260008181559087908111156109c7576109c76119f4565b905060006109d787878787611223565b9050600182600381106109ec576109ec611c3e565b0154811015610a325760405162461bcd60e51b815260206004820152601260248201527142656c6f772074696572206d696e696d756d60701b60448201526064016105dc565b604051630ed1279f60e11b81523060048201526000907f00000000000000000000000000000000000000000000000000000000000000006001600160a01b031690631da24f3e90602401602060405180830381865afa158015610a99573d6000803e3d6000fd5b505050506040513d601f19601f82011682018060405250810190610abd9190611bd6565b9050610b0a7f00000000000000000000000000000000000000000000000000000000000000007f0000000000000000000000000000000000000000000000000000000000000000846115d4565b60405163617ba03760e01b81526001600160a01b037f00000000000000000000000000000000000000000000000000000000000000008116600483015260248201849052306044830152600060648301527f0000000000000000000000000000000000000000000000000000000000000000169063617ba03790608401600060405180830381600087803b158015610ba157600080fd5b505af1158015610bb5573d6000803e3d6000fd5b5050604051630ed1279f60e11b8152306004820152600092507f00000000000000000000000000000000000000000000000000000000000000006001600160a01b03169150631da24f3e90602401602060405180830381865afa158015610c20573d6000803e3d6000fd5b505050506040513d601f19601f82011682018060405250810190610c449190611bd6565b9050600060048560038110610c5b57610c5b611c3e565b0154600c80549192506000610c6f83611c54565b909155506000818152600a6020526040902080546001600160a01b0319811633908117835592985090918d91839160ff60a01b19166001600160a81b031990911617600160a01b836002811115610cc857610cc86119f4565b021790555060018101859055610cde8484611c6d565b6002820155426003820155600581018290558115610d0557610d008242611c80565b610d07565b425b8160040181905550600b6000336001600160a01b03166001600160a01b03168152602001908152602001600020879080600181540180825580915050600190039060005260206000200160009091909190915055336001600160a01b0316877ff05b5cfff5f684799218b8134d5d0c1cbeb310e8fc7d26e0ef92e2c792b02ec68e88604051610d97929190611c93565b60405180910390a350506001600055509298975050505050505050565b6000828152600a60205260408120600681015460ff1680610dd9575080600301548311155b15610de8576000915050610e60565b6000816003015484610dfa9190611c6d565b825490915064496cebb800908290600790600160a01b900460ff166002811115610e2657610e266119f4565b60038110610e3657610e36611c3e565b01548460010154610e479190611c05565b610e519190611c05565b610e5b9190611c1c565b925050505b92915050565b6001600160a01b0381166000908152600b6020908152604091829020805483518184028101840190945280845260609392830182828015610ec657602002820191906000526020600020905b815481526020019060010190808311610eb2575b50505050509050919050565b7f00000000000000000000000000000000000000000000000000000000000000006001600160a01b0316856001600160a01b031603610f3b57610f367f000000000000000000000000000000000000000000000000000000000000000082866117c3565b61121c565b6001600160a01b03851615600081610f535786610f75565b7f00000000000000000000000000000000000000000000000000000000000000005b9050600082610f845783610f86565b305b9050610fd37f00000000000000000000000000000000000000000000000000000000000000007f0000000000000000000000000000000000000000000000000000000000000000896115d4565b60006040518061010001604052807f00000000000000000000000000000000000000000000000000000000000000006001600160a01b03168152602001846001600160a01b031681526020018762ffffff168152602001836001600160a01b03168152602001426103846110479190611c80565b815260200189815260200188815260200160006001600160a01b0316815250905060007f00000000000000000000000000000000000000000000000000000000000000006001600160a01b031663414bf389836040518263ffffffff1660e01b81526004016110b69190611cae565b6020604051808303816000875af11580156110d5573d6000803e3d6000fd5b505050506040513d601f19601f820116820180604052508101906110f99190611bd6565b9050841561121657604051632e1a7d4d60e01b8152600481018290527f00000000000000000000000000000000000000000000000000000000000000006001600160a01b031690632e1a7d4d90602401600060405180830381600087803b15801561116357600080fd5b505af1158015611177573d6000803e3d6000fd5b505050506000866001600160a01b03168260405160006040518083038185875af1925050503d80600081146111c8576040519150601f19603f3d011682016040523d82523d6000602084013e6111cd565b606091505b50509050806112145760405162461bcd60e51b8152602060048201526013602482015272115512081d1c985b9cd9995c8819985a5b1959606a1b60448201526064016105dc565b505b50505050505b5050505050565b60007f00000000000000000000000000000000000000000000000000000000000000006001600160a01b0316856001600160a01b0316036112915761128a7f00000000000000000000000000000000000000000000000000000000000000003330876118c9565b50826104f2565b6040805161010081018252600080825260208201819052918101829052606081018290526080810182905260a0810182905260c0810182905260e08101919091526001600160a01b03861661146f578434146113255760405162461bcd60e51b815260206004820152601360248201527208aa89040c2dadeeadce840dad2e6dac2e8c6d606b1b60448201526064016105dc565b6040518061010001604052807f00000000000000000000000000000000000000000000000000000000000000006001600160a01b031681526020017f00000000000000000000000000000000000000000000000000000000000000006001600160a01b031681526020018462ffffff168152602001306001600160a01b03168152602001426103846113b79190611c80565b815260200186815260200185815260200160006001600160a01b031681525090507f00000000000000000000000000000000000000000000000000000000000000006001600160a01b031663414bf38986836040518363ffffffff1660e01b81526004016114259190611cae565b60206040518083038185885af1158015611443573d6000803e3d6000fd5b50505050506040513d601f19601f820116820180604052508101906114689190611bd6565b91506115cb565b61147b863330886118c9565b6114a6867f0000000000000000000000000000000000000000000000000000000000000000876115d4565b604051806101000160405280876001600160a01b031681526020017f00000000000000000000000000000000000000000000000000000000000000006001600160a01b031681526020018462ffffff168152602001306001600160a01b03168152602001426103846115189190611c80565b815260200186815260200185815260200160006001600160a01b031681525090507f00000000000000000000000000000000000000000000000000000000000000006001600160a01b031663414bf389826040518263ffffffff1660e01b81526004016115859190611cae565b6020604051808303816000875af11580156115a4573d6000803e3d6000fd5b505050506040513d601f19601f820116820180604052508101906115c89190611bd6565b91505b50949350505050565b604080516001600160a01b0384811660248301526000604480840182905284518085039091018152606490930184526020830180516001600160e01b031663095ea7b360e01b17905292519086169161162c91611d2b565b6000604051808303816000865af19150503d8060008114611669576040519150601f19603f3d011682016040523d82523d6000602084013e61166e565b606091505b50509050806116b65760405162461bcd60e51b8152602060048201526014602482015273105c1c1c9bdd99481c995cd95d0819985a5b195960621b60448201526064016105dc565b604080516001600160a01b038581166024830152604480830186905283518084039091018152606490920183526020820180516001600160e01b031663095ea7b360e01b17905291516000928392908816916117129190611d2b565b6000604051808303816000865af19150503d806000811461174f576040519150601f19603f3d011682016040523d82523d6000602084013e611754565b606091505b509150915081801561177e57508051158061177e57508080602001905181019061177e9190611d5a565b6117bb5760405162461bcd60e51b815260206004820152600e60248201526d105c1c1c9bdd994819985a5b195960921b60448201526064016105dc565b505050505050565b604080516001600160a01b038481166024830152604480830185905283518084039091018152606490920183526020820180516001600160e01b031663a9059cbb60e01b179052915160009283929087169161181f9190611d2b565b6000604051808303816000865af19150503d806000811461185c576040519150601f19603f3d011682016040523d82523d6000602084013e611861565b606091505b509150915081801561188b57508051158061188b57508080602001905181019061188b9190611d5a565b61121c5760405162461bcd60e51b815260206004820152600f60248201526e151c985b9cd9995c8819985a5b1959608a1b60448201526064016105dc565b604080516001600160a01b0385811660248301528481166044830152606480830185905283518084039091018152608490920183526020820180516001600160e01b03166323b872dd60e01b179052915160009283929088169161192d9190611d2b565b6000604051808303816000865af19150503d806000811461196a576040519150601f19603f3d011682016040523d82523d6000602084013e61196f565b606091505b50915091508180156119995750805115806119995750808060200190518101906119999190611d5a565b6117bb5760405162461bcd60e51b8152602060048201526013602482015272151c985b9cd9995c919c9bdb4819985a5b1959606a1b60448201526064016105dc565b6000602082840312156119ed57600080fd5b5035919050565b634e487b7160e01b600052602160045260246000fd5b60038110611a2857634e487b7160e01b600052602160045260246000fd5b9052565b6001600160a01b03891681526101008101611a4a602083018a611a0a565b8760408301528660608301528560808301528460a08301528360c083015282151560e08301529998505050505050505050565b80356001600160a01b0381168114611a9457600080fd5b919050565b803562ffffff81168114611a9457600080fd5b60008060008060808587031215611ac257600080fd5b84359350611ad260208601611a7d565b925060408501359150611ae760608601611a99565b905092959194509250565b600080600080600060a08688031215611b0a57600080fd5b853560038110611b1957600080fd5b9450611b2760208701611a7d565b93506040860135925060608601359150611b4360808701611a99565b90509295509295909350565b60008060408385031215611b6257600080fd5b50508035926020909101359150565b600060208284031215611b8357600080fd5b611b8c82611a7d565b9392505050565b602080825282518282018190526000918401906040840190835b81811015611bcb578351835260209384019390920191600101611bad565b509095945050505050565b600060208284031215611be857600080fd5b5051919050565b634e487b7160e01b600052601160045260246000fd5b8082028115828204841417610e6057610e60611bef565b600082611c3957634e487b7160e01b600052601260045260246000fd5b500490565b634e487b7160e01b600052603260045260246000fd5b600060018201611c6657611c66611bef565b5060010190565b81810381811115610e6057610e60611bef565b80820180821115610e6057610e60611bef565b60408101611ca18285611a0a565b8260208301529392505050565b81516001600160a01b03908116825260208084015182169083015260408084015162ffffff169083015260608084015191821690830152610100820190506080830151608083015260a083015160a083015260c083015160c083015260e0830151611d2460e08401826001600160a01b03169052565b5092915050565b6000825160005b81811015611d4c5760208186018101518583015201611d32565b506000920191825250919050565b600060208284031215611d6c57600080fd5b81518015158114611b8c57600080fdfea2646970667358221220c0b4805daffea9a3c6ef69985ad2231609ce9f23f04a0e8b21495862e57f660764736f6c634300081c0033",
  "linkReferences": {},
  "deployedLinkReferences": {}
}