{
  "_format": "hh-sol-artifact-1",
  "contractName": "AjoCircle",
  "sourceName": "contracts/AjoCircle.sol",
  "abi": [
    {
      "inputs": [
        {
          "internalType": "address",
          "name": "_usdt",
          "type": "address"
        },
        {
          "internalType": "address",
          "name": "_router",
          "type": "address"
        },
        {
          "internalType": "address",
          "name": "_weth",
          "type": "address"
        }
      ],
      "stateMutability": "nonpayable",
      "type": "constructor"
    },
    {
      "anonymous": false,
      "inputs": [
        {
          "indexed": true,
          "internalType": "uint256",
          "name": "circleId",
          "type": "uint256"
        }
      ],
      "name": "CircleActivated",
      "type": "event"
    },
    {
      "anonymous": false,
      "inputs": [
        {
          "indexed": true,
          "internalType": "uint256",
          "name": "circleId",
          "type": "uint256"
        }
      ],
      "name": "CircleCompleted",
      "type": "event"
    },
    {
      "anonymous": false,
      "inputs": [
        {
          "indexed": true,
          "internalType": "uint256",
          "name": "circleId",
          "type": "uint256"
        },
        {
          "indexed": true,
          "internalType": "address",
          "name": "creator",
          "type": "address"
        },
        {
          "indexed": false,
          "internalType": "string",
          "name": "name",
          "type": "string"
        }
      ],
      "name": "CircleCreated",
      "type": "event"
    },
    {
      "anonymous": false,
      "inputs": [
        {
          "indexed": true,
          "internalType": "uint256",
          "name": "circleId",
          "type": "uint256"
        },
        {
          "indexed": true,
          "internalType": "address",
          "name": "member",
          "type": "address"
        },
        {
          "indexed": false,
          "internalType": "uint256",
          "name": "usdtAmount",
          "type": "uint256"
        },
        {
          "indexed": false,
          "internalType": "uint256",
          "name": "round",
          "type": "uint256"
        }
      ],
      "name": "ContributionMade",
      "type": "event"
    },
    {
      "anonymous": false,
      "inputs": [
        {
          "indexed": true,
          "internalType": "uint256",
          "name": "circleId",
          "type": "uint256"
        },
        {
          "indexed": true,
          "internalType": "address",
          "name": "member",
          "type": "address"
        }
      ],
      "name": "MemberJoined",
      "type": "event"
    },
    {
      "anonymous": false,
      "inputs": [
        {
          "indexed": true,
          "internalType": "uint256",
          "name": "circleId",
          "type": "uint256"
        },
        {
          "indexed": true,
          "internalType": "address",
          "name": "recipient",
          "type": "address"
        },
        {
          "indexed": false,
          "internalType": "uint256",
          "name": "amount",
          "type": "uint256"
        },
        {
          "indexed": false,
          "internalType": "uint256",
          "name": "round",
          "type": "uint256"
        }
      ],
      "name": "PayoutReleased",
      "type": "event"
    },
    {
      "inputs": [],
      "name": "UNISWAP_ROUTER",
      "outputs": [
        {
          "internalType": "address",
          "name": "",
          "type": "address"
        }
      ],
      "stateMutability": "view",
      "type": "function"
    },
    {
      "inputs": [],
      "name": "USDT",
      "outputs": [
        {
          "internalType": "address",
          "name": "",
          "type": "address"
        }
      ],
      "stateMutability": "view",
      "type": "function"
    },
    {
      "inputs": [],
      "name": "WETH",
      "outputs": [
        {
          "internalType": "address",
          "name": "",
          "type": "address"
        }
      ],
      "stateMutability": "view",
      "type": "function"
    },
    {
      "inputs": [],
      "name": "circleCount",
      "outputs": [
        {
          "internalType": "uint256",
          "name": "",
          "type": "uint256"
        }
      ],
      "stateMutability": "view",
      "type": "function"
    },
    {
      "inputs": [
        {
          "internalType": "uint256",
          "name": "",
          "type": "uint256"
        }
      ],
      "name": "circles",
      "outputs": [
        {
          "internalType": "string",
          "name": "name",
          "type": "string"
        },
        {
          "internalType": "uint256",
          "name": "maxMembers",
          "type": "uint256"
        },
        {
          "internalType": "uint256",
          "name": "contributionAmount",
          "type": "uint256"
        },
        {
          "internalType": "uint256",
          "name": "currentRound",
          "type": "uint256"
        },
        {
          "internalType": "uint256",
          "name": "totalRounds",
          "type": "uint256"
        },
        {
          "internalType": "uint256",
          "name": "poolBalance",
          "type": "uint256"
        },
        {
          "internalType": "uint256",
          "name": "nextPayoutTimestamp",
          "type": "uint256"
        },
        {
          "internalType": "uint256",
          "name": "frequency",
          "type": "uint256"
        },
        {
          "internalType": "enum AjoCircle.CircleStatus",
          "name": "status",
          "type": "uint8"
        },
        {
          "internalType": "bool",
          "name": "payoutPending",
          "type": "bool"
        },
        {
          "internalType": "uint256",
          "name": "paidCount",
          "type": "uint256"
        }
      ],
      "stateMutability": "view",
      "type": "function"
    },
    {
      "inputs": [
        {
          "internalType": "uint256",
          "name": "circleId",
          "type": "uint256"
        },
        {
          "internalType": "address",
          "name": "tokenOut",
          "type": "address"
        },
        {
          "internalType": "uint256",
          "name": "amountOutMinimum",
          "type": "uint256"
        },
        {
          "internalType": "uint24",
          "name": "poolFee",
          "type": "uint24"
        }
      ],
      "name": "claimPayout",
      "outputs": [],
      "stateMutability": "nonpayable",
      "type": "function"
    },
    {
      "inputs": [
        {
          "internalType": "uint256",
          "name": "circleId",
          "type": "uint256"
        },
        {
          "internalType": "address",
          "name": "tokenIn",
          "type": "address"
        },
        {
          "internalType": "uint256",
          "name": "amountIn",
          "type": "uint256"
        },
        {
          "internalType": "uint256",
          "name": "amountOutMinimum",
          "type": "uint256"
        },
        {
          "internalType": "uint24",
          "name": "poolFee",
          "type": "uint24"
        }
      ],
      "name": "contribute",
      "outputs": [],
      "stateMutability": "payable",
      "type": "function"
    },
    {
      "inputs": [
        {
          "internalType": "string",
          "name": "name",
          "type": "string"
        },
        {
          "internalType": "uint256",
          "name": "maxMembers",
          "type": "uint256"
        },
        {
          "internalType": "uint256",
          "name": "contributionAmountUSDT",
          "type": "uint256"
        },
        {
          "internalType": "uint256",
          "name": "frequencyInSeconds",
          "type": "uint256"
        }
      ],
      "name": "createCircle",
      "outputs": [
        {
          "internalType": "uint256",
          "name": "circleId",
          "type": "uint256"
        }
      ],
      "stateMutability": "nonpayable",
      "type": "function"
    },
    {
      "inputs": [
        {
          "internalType": "uint256",
          "name": "circleId",
          "type": "uint256"
        }
      ],
      "name": "getCircleInfo",
      "outputs": [
        {
          "internalType": "string",
          "name": "name",
          "type": "string"
        },
        {
          "internalType": "uint256",
          "name": "maxMembers",
          "type": "uint256"
        },
        {
          "internalType": "uint256",
          "name": "contributionAmount",
          "type": "uint256"
        },
        {
          "internalType": "uint256",
          "name": "currentRound",
          "type": "uint256"
        },
        {
          "internalType": "uint256",
          "name": "totalRounds",
          "type": "uint256"
        },
        {
          "internalType": "uint256",
          "name": "poolBalance",
          "type": "uint256"
        },
        {
          "internalType": "uint256",
          "name": "nextPayoutTimestamp",
          "type": "uint256"
        },
        {
          "internalType": "uint256",
          "name": "frequency",
          "type": "uint256"
        },
        {
          "internalType": "enum AjoCircle.CircleStatus",
          "name": "status",
          "type": "uint8"
        },
        {
          "internalType": "bool",
          "name": "payoutPending",
          "type": "bool"
        },
        {
          "internalType": "uint256",
          "name": "paidCount",
          "type": "uint256"
        }
      ],
      "stateMutability": "view",
      "type": "function"
    },
    {
      "inputs": [
        {
          "internalType": "uint256",
          "name": "circleId",
          "type": "uint256"
        }
      ],
      "name": "getCurrentRecipient",
      "outputs": [
        {
          "internalType": "address",
          "name": "",
          "type": "address"
        }
      ],
      "stateMutability": "view",
      "type": "function"
    },
    {
      "inputs": [
        {
          "internalType": "uint256",
          "name": "circleId",
          "type": "uint256"
        }
      ],
      "name": "getMemberCount",
      "outputs": [
        {
          "internalType": "uint256",
          "name": "",
          "type": "uint256"
        }
      ],
      "stateMutability": "view",
      "type": "function"
    },
    {
      "inputs": [
        {
          "internalType": "uint256",
          "name": "circleId",
          "type": "uint256"
        },
        {
          "internalType": "address",
          "name": "member",
          "type": "address"
        }
      ],
      "name": "getMemberPosition",
      "outputs": [
        {
          "internalType": "uint256",
          "name": "",
          "type": "uint256"
        }
      ],
      "stateMutability": "view",
      "type": "function"
    },
    {
      "inputs": [
        {
          "internalType": "uint256",
          "name": "circleId",
          "type": "uint256"
        }
      ],
      "name": "getMembers",
      "outputs": [
        {
          "internalType": "address[]",
          "name": "",
          "type": "address[]"
        }
      ],
      "stateMutability": "view",
      "type": "function"
    },
    {
      "inputs": [
        {
          "internalType": "uint256",
          "name": "circleId",
          "type": "uint256"
        },
        {
          "internalType": "address",
          "name": "member",
          "type": "address"
        }
      ],
      "name": "hasPaid",
      "outputs": [
        {
          "internalType": "bool",
          "name": "",
          "type": "bool"
        }
      ],
      "stateMutability": "view",
      "type": "function"
    },
    {
      "inputs": [
        {
          "internalType": "uint256",
          "name": "circleId",
          "type": "uint256"
        }
      ],
      "name": "joinCircle",
      "outputs": [],
      "stateMutability": "nonpayable",
      "type": "function"
    },
    {
      "inputs": [],
      "name": "owner",
      "outputs": [
        {
          "internalType": "address",
          "name": "",
          "type": "address"
        }
      ],
      "stateMutability": "view",
      "type": "function"
    },
    {
      "inputs": [],
      "name": "rescueETH",
      "outputs": [],
      "stateMutability": "nonpayable",
      "type": "function"
    },
    {
      "stateMutability": "payable",
      "type": "receive"
    }
  ],
  "bytecode": "0x61010060405234801561001157600080fd5b50604051612587380380612587833981016040819052610030916100d1565b60016000556001600160a01b0383161580159061005557506001600160a01b03821615155b6100945760405162461bcd60e51b815260206004820152600c60248201526b5a65726f206164647265737360a01b604482015260640160405180910390fd5b6001600160a01b0392831660805290821660a0521660c0523360e052610114565b80516001600160a01b03811681146100cc57600080fd5b919050565b6000806000606084860312156100e657600080fd5b6100ef846100b5565b92506100fd602085016100b5565b915061010b604085016100b5565b90509250925092565b60805160a05160c05160e0516123b56101d26000396000818161019b01528181610403015261049c015260008181610207015281816112fe015281816117ed01526119af01526000818161033c015281816113a50152818161144c015281816115060152818161184601526119040152600081816102bf01528181610df7015281816111f20152818161122e0152818161132d0152818161148e0152818161176c015281816117a801528181611825015261187b01526123b56000f3fe6080604052600436106101025760003560e01c8063c477ecab11610095578063d0acdd8e11610064578063d0acdd8e14610317578063d82649201461032a578063d8bc7fff1461035e578063da5f5cff146103b8578063fb479fb0146103d857600080fd5b8063c477ecab14610280578063c54e44eb146102ad578063cf0b1117146102e1578063d02fa084146102f757600080fd5b80639d07fd13116100d15780639d07fd13146101d5578063ad5c4648146101f5578063b746683514610229578063bc5e0f301461024957600080fd5b806320800a001461010e5780635ce9284f1461012557806386d6cfb3146101695780638da5cb5b1461018957600080fd5b3661010957005b600080fd5b34801561011a57600080fd5b506101236103f8565b005b34801561013157600080fd5b50610156610140366004611dbb565b6000908152600160208190526040909120015490565b6040519081526020015b60405180910390f35b34801561017557600080fd5b50610123610184366004611dbb565b610553565b34801561019557600080fd5b506101bd7f000000000000000000000000000000000000000000000000000000000000000081565b6040516001600160a01b039091168152602001610160565b3480156101e157600080fd5b506101bd6101f0366004611dbb565b610724565b34801561020157600080fd5b506101bd7f000000000000000000000000000000000000000000000000000000000000000081565b34801561023557600080fd5b50610156610244366004611dea565b6107b8565b34801561025557600080fd5b50610269610264366004611dbb565b6109d1565b6040516101609b9a99989796959493929190611f1d565b34801561028c57600080fd5b506102a061029b366004611dbb565b610ab7565b6040516101609190611fa9565b3480156102b957600080fd5b506101bd7f000000000000000000000000000000000000000000000000000000000000000081565b3480156102ed57600080fd5b5061015660025481565b34801561030357600080fd5b50610156610312366004612011565b610b26565b610123610325366004612050565b610b53565b34801561033657600080fd5b506101bd7f000000000000000000000000000000000000000000000000000000000000000081565b34801561036a57600080fd5b506103a8610379366004612011565b60008281526001602090815260408083206001600160a01b0385168452600b0190915290205460ff1692915050565b6040519015158152602001610160565b3480156103c457600080fd5b506102696103d3366004611dbb565b610eda565b3480156103e457600080fd5b506101236103f33660046120a0565b610fef565b336001600160a01b037f000000000000000000000000000000000000000000000000000000000000000016146104615760405162461bcd60e51b81526020600482015260096024820152682737ba1037bbb732b960b91b60448201526064015b60405180910390fd5b47806104985760405162461bcd60e51b815260206004820152600660248201526509cde408aa8960d31b6044820152606401610458565b60007f00000000000000000000000000000000000000000000000000000000000000006001600160a01b03168260405160006040518083038185875af1925050503d8060008114610505576040519150601f19603f3d011682016040523d82523d6000602084013e61050a565b606091505b505090508061054f5760405162461bcd60e51b8152602060048201526011602482015270115512081c995cd8dd594819985a5b1959607a1b6044820152606401610458565b5050565b60008181526001602081905260409091206002810154918101549091116105ad5760405162461bcd60e51b815260206004820152600e60248201526d10da5c98db19481a5cc8199d5b1b60921b6044820152606401610458565b6000600982015460ff1660028111156105c8576105c8611f07565b146106065760405162461bcd60e51b815260206004820152600e60248201526d4e6f742072656372756974696e6760901b6044820152606401610458565b336000908152600c82016020526040902054156106585760405162461bcd60e51b815260206004820152601060248201526f20b63932b0b23c90309036b2b6b132b960811b6044820152606401610458565b6001808201805491820181556000818152602080822090930180546001600160a01b031916339081179091559154828252600c85019093526040808220939093559151909184917f78da64a590c3052953ad9e0a5546bbf12bb68ae7634e3fb2a774e22a8c6557c19190a3600281015460018201540361054f5760098101805460ff1916600117905560088101546106f090426120fc565b600782015560405182907faa8b7289f77c0a8b226248e26401151f4903884ab85ba3decb12926f4c7c3acc90600090a25050565b60008181526001602052604081206009810154610100900460ff16158061074d57506004810154155b1561075b5750600092915050565b60006001826004015461076e919061210f565b60018301549091508110610786575060009392505050565b81600101818154811061079b5761079b612122565b6000918252602090912001546001600160a01b0316949350505050565b6000808551116107f75760405162461bcd60e51b815260206004820152600a602482015269456d707479206e616d6560b01b6044820152606401610458565b60028410158015610809575060328411155b6108455760405162461bcd60e51b815260206004820152600d60248201526c04d656d626572733a20322d353609c1b6044820152606401610458565b600083116108895760405162461bcd60e51b81526020600482015260116024820152702d32b9379031b7b73a3934b13aba34b7b760791b6044820152606401610458565b600082116108ca5760405162461bcd60e51b815260206004820152600e60248201526d5a65726f206672657175656e637960901b6044820152606401610458565b600280549060006108da83612138565b909155506000818152600160205260409020909150806108fa87826121d2565b506002810185905560038101849055600581018590556008810183905560098101805460ff191690556001808201805480830182556000918252602080832090910180546001600160a01b03191633908117909155808352600c8501909152604091829020929092555183907f6f657d36deb3b1aa2e949c5df40eac9d79359a73c2402cefa7aee870f9ceafc090610993908a90612291565b60405180910390a3604051339083907f78da64a590c3052953ad9e0a5546bbf12bb68ae7634e3fb2a774e22a8c6557c190600090a350949350505050565b6001602052600090815260409020805481906109ec90612151565b80601f0160208091040260200160405190810160405280929190818152602001828054610a1890612151565b8015610a655780601f10610a3a57610100808354040283529160200191610a65565b820191906000526020600020905b815481529060010190602001808311610a4857829003601f168201915b50505060028401546003850154600486015460058701546006880154600789015460088a015460098b0154600a909b0154999a96999598509396509194909391929160ff80831692610100900416908b565b600081815260016020818152604092839020909101805483518184028101840190945280845260609392830182828015610b1a57602002820191906000526020600020905b81546001600160a01b03168152600190910190602001808311610afc575b50505050509050919050565b60008281526001602090815260408083206001600160a01b0385168452600c019091529020545b92915050565b600260005403610ba55760405162461bcd60e51b815260206004820152601f60248201527f5265656e7472616e637947756172643a207265656e7472616e742063616c6c006044820152606401610458565b60026000556001600160a01b03841615610c07573415610c075760405162461bcd60e51b815260206004820152601f60248201527f455448206e6f7420616363657074656420666f722045524332302070617468006044820152606401610458565b600085815260016020819052604090912090600982015460ff166002811115610c3257610c32611f07565b14610c735760405162461bcd60e51b8152602060048201526011602482015270436972636c65206e6f742061637469766560781b6044820152606401610458565b6009810154610100900460ff1615610cc55760405162461bcd60e51b81526020600482015260156024820152744177616974696e67207061796f757420636c61696d60581b6044820152606401610458565b336000908152600c82016020526040902054610d125760405162461bcd60e51b815260206004820152600c60248201526b2737ba10309036b2b6b132b960a11b6044820152606401610458565b336000908152600b8201602052604090205460ff1615610d745760405162461bcd60e51b815260206004820152601e60248201527f416c726561647920636f6e7472696275746564207468697320726f756e6400006044820152606401610458565b6000610d82868686866111ee565b90508160030154811015610dd85760405162461bcd60e51b815260206004820152601c60248201527f496e73756666696369656e7420555344542061667465722073776170000000006044820152606401610458565b6000826003015482610dea919061210f565b90508015610e1d57610e1d7f000000000000000000000000000000000000000000000000000000000000000033836115a0565b336000908152600b840160205260408120805460ff19166001179055600a8401805491610e4983612138565b91905055508260030154836006016000828254610e6691906120fc565b90915550506003830154600484015460408051928352602083019190915233918a917ff9b7589b7a8d939b9da5dae90770378fe5fd7802be5d66432e85bedbdbfbcb7a910160405180910390a3826002015483600a015403610ecb57610ecb886116ad565b50506001600055505050505050565b600081815260016020526040812060028101546003820154600483015460058401546006850154600786015460088701546009880154600a890154895460609b9a8b9a8b9a8b9a8b9a8b9a8b9a8b9a8b9a8b9a98998a9960ff80841693610100900416918b90610f4990612151565b80601f0160208091040260200160405190810160405280929190818152602001828054610f7590612151565b8015610fc25780601f10610f9757610100808354040283529160200191610fc2565b820191906000526020600020905b815481529060010190602001808311610fa557829003601f168201915b50505050509a509b509b509b509b509b509b509b509b509b509b509b505091939597999b90929496989a50565b6002600054036110415760405162461bcd60e51b815260206004820152601f60248201527f5265656e7472616e637947756172643a207265656e7472616e742063616c6c006044820152606401610458565b600260009081558481526001602052604090206009810154610100900460ff166110a15760405162461bcd60e51b81526020600482015260116024820152704e6f207061796f75742070656e64696e6760781b6044820152606401610458565b6000600182600401546110b4919061210f565b905060008260010182815481106110cd576110cd612122565b6000918252602090912001546001600160a01b0316905033811461112b5760405162461bcd60e51b8152602060048201526015602482015274139bdd0818dd5c9c995b9d081c9958da5c1a595b9d605a1b6044820152606401610458565b600683018054600090915560098401805461ff001916905560408051828152602081018590526001600160a01b038416918a917f5fee043a0db2f303c5be0b8f554d0f9e91efc1e74fe501166969ffc487e3b25b910160405180910390a3611196878288888661176a565b8360050154846004015403610ecb5760098401805460ff1916600217905560405188907ffccd3901546cfbb42742cac2c7335bce34f1f8d9844f4f4b53640f79e310108790600090a250506001600055505050505050565b60007f00000000000000000000000000000000000000000000000000000000000000006001600160a01b0316856001600160a01b03160361125c576112557f0000000000000000000000000000000000000000000000000000000000000000333087611aba565b5082611598565b6040805161010081018252600080825260208201819052918101829052606081018290526080810182905260a0810182905260c0810182905260e08101919091526001600160a01b03861661143a578434146112f05760405162461bcd60e51b815260206004820152601360248201527208aa89040c2dadeeadce840dad2e6dac2e8c6d606b1b6044820152606401610458565b6040518061010001604052807f00000000000000000000000000000000000000000000000000000000000000006001600160a01b031681526020017f00000000000000000000000000000000000000000000000000000000000000006001600160a01b031681526020018462ffffff168152602001306001600160a01b031681526020014261038461138291906120fc565b815260200186815260200185815260200160006001600160a01b031681525090507f00000000000000000000000000000000000000000000000000000000000000006001600160a01b031663414bf38986836040518363ffffffff1660e01b81526004016113f091906122ab565b60206040518083038185885af115801561140e573d6000803e3d6000fd5b50505050506040513d601f19601f820116820180604052508101906114339190612328565b9150611596565b61144686333088611aba565b611471867f000000000000000000000000000000000000000000000000000000000000000087611bd4565b604051806101000160405280876001600160a01b031681526020017f00000000000000000000000000000000000000000000000000000000000000006001600160a01b031681526020018462ffffff168152602001306001600160a01b03168152602001426103846114e391906120fc565b815260200186815260200185815260200160006001600160a01b031681525090507f00000000000000000000000000000000000000000000000000000000000000006001600160a01b031663414bf389826040518263ffffffff1660e01b815260040161155091906122ab565b6020604051808303816000875af115801561156f573d6000803e3d6000fd5b505050506040513d601f19601f820116820180604052508101906115939190612328565b91505b505b949350505050565b604080516001600160a01b038481166024830152604480830185905283518084039091018152606490920183526020820180516001600160e01b031663a9059cbb60e01b17905291516000928392908716916115fc9190612341565b6000604051808303816000865af19150503d8060008114611639576040519150601f19603f3d011682016040523d82523d6000602084013e61163e565b606091505b5091509150818015611668575080511580611668575080806020019051810190611668919061235d565b6116a65760405162461bcd60e51b815260206004820152600f60248201526e151c985b9cd9995c8819985a5b1959608a1b6044820152606401610458565b5050505050565b600081815260016020526040812060098101805461ff00191661010017905560048101805491926116dd83612138565b90915550506000600a82015560088101546116f890426120fc565b600782015560005b600182015481101561176557600082600b01600084600101848154811061172957611729612122565b6000918252602080832091909101546001600160a01b031683528201929092526040019020805460ff1916911515919091179055600101611700565b505050565b7f00000000000000000000000000000000000000000000000000000000000000006001600160a01b0316856001600160a01b0316036117d3576117ce7f000000000000000000000000000000000000000000000000000000000000000082866115a0565b6116a6565b6001600160a01b038516156000816117eb578661180d565b7f00000000000000000000000000000000000000000000000000000000000000005b905060008261181c578361181e565b305b905061186b7f00000000000000000000000000000000000000000000000000000000000000007f000000000000000000000000000000000000000000000000000000000000000089611bd4565b60006040518061010001604052807f00000000000000000000000000000000000000000000000000000000000000006001600160a01b03168152602001846001600160a01b031681526020018762ffffff168152602001836001600160a01b03168152602001426103846118df91906120fc565b815260200189815260200188815260200160006001600160a01b0316815250905060007f00000000000000000000000000000000000000000000000000000000000000006001600160a01b031663414bf389836040518263ffffffff1660e01b815260040161194e91906122ab565b6020604051808303816000875af115801561196d573d6000803e3d6000fd5b505050506040513d601f19601f820116820180604052508101906119919190612328565b90508415611aae57604051632e1a7d4d60e01b8152600481018290527f00000000000000000000000000000000000000000000000000000000000000006001600160a01b031690632e1a7d4d90602401600060405180830381600087803b1580156119fb57600080fd5b505af1158015611a0f573d6000803e3d6000fd5b505050506000866001600160a01b03168260405160006040518083038185875af1925050503d8060008114611a60576040519150601f19603f3d011682016040523d82523d6000602084013e611a65565b606091505b5050905080611aac5760405162461bcd60e51b8152602060048201526013602482015272115512081d1c985b9cd9995c8819985a5b1959606a1b6044820152606401610458565b505b50505050505050505050565b604080516001600160a01b0385811660248301528481166044830152606480830185905283518084039091018152608490920183526020820180516001600160e01b03166323b872dd60e01b1790529151600092839290881691611b1e9190612341565b6000604051808303816000865af19150503d8060008114611b5b576040519150601f19603f3d011682016040523d82523d6000602084013e611b60565b606091505b5091509150818015611b8a575080511580611b8a575080806020019051810190611b8a919061235d565b611bcc5760405162461bcd60e51b8152602060048201526013602482015272151c985b9cd9995c919c9bdb4819985a5b1959606a1b6044820152606401610458565b505050505050565b604080516001600160a01b0384811660248301526000604480840182905284518085039091018152606490930184526020830180516001600160e01b031663095ea7b360e01b179052925190861691611c2c91612341565b6000604051808303816000865af19150503d8060008114611c69576040519150601f19603f3d011682016040523d82523d6000602084013e611c6e565b606091505b5050905080611cb65760405162461bcd60e51b8152602060048201526014602482015273105c1c1c9bdd99481c995cd95d0819985a5b195960621b6044820152606401610458565b604080516001600160a01b038581166024830152604480830186905283518084039091018152606490920183526020820180516001600160e01b031663095ea7b360e01b1790529151600092839290881691611d129190612341565b6000604051808303816000865af19150503d8060008114611d4f576040519150601f19603f3d011682016040523d82523d6000602084013e611d54565b606091505b5091509150818015611d7e575080511580611d7e575080806020019051810190611d7e919061235d565b611bcc5760405162461bcd60e51b815260206004820152600e60248201526d105c1c1c9bdd994819985a5b195960921b6044820152606401610458565b600060208284031215611dcd57600080fd5b5035919050565b634e487b7160e01b600052604160045260246000fd5b60008060008060808587031215611e0057600080fd5b843567ffffffffffffffff811115611e1757600080fd5b8501601f81018713611e2857600080fd5b803567ffffffffffffffff811115611e4257611e42611dd4565b604051601f8201601f19908116603f0116810167ffffffffffffffff81118282101715611e7157611e71611dd4565b604052818152828201602001891015611e8957600080fd5b8160208401602083013760006020928201830152989087013597506040870135966060013595509350505050565b60005b83811015611ed2578181015183820152602001611eba565b50506000910152565b60008151808452611ef3816020860160208601611eb7565b601f01601f19169290920160200192915050565b634e487b7160e01b600052602160045260246000fd5b61016081526000611f3261016083018e611edb565b90508b60208301528a60408301528960608301528860808301528760a08301528660c08301528560e083015260038510611f7c57634e487b7160e01b600052602160045260246000fd5b84610100830152611f9261012083018515159052565b826101408301529c9b505050505050505050505050565b602080825282518282018190526000918401906040840190835b81811015611fea5783516001600160a01b0316835260209384019390920191600101611fc3565b509095945050505050565b80356001600160a01b038116811461200c57600080fd5b919050565b6000806040838503121561202457600080fd5b8235915061203460208401611ff5565b90509250929050565b803562ffffff8116811461200c57600080fd5b600080600080600060a0868803121561206857600080fd5b8535945061207860208701611ff5565b935060408601359250606086013591506120946080870161203d565b90509295509295909350565b600080600080608085870312156120b657600080fd5b843593506120c660208601611ff5565b9250604085013591506120db6060860161203d565b905092959194509250565b634e487b7160e01b600052601160045260246000fd5b80820180821115610b4d57610b4d6120e6565b81810381811115610b4d57610b4d6120e6565b634e487b7160e01b600052603260045260246000fd5b60006001820161214a5761214a6120e6565b5060010190565b600181811c9082168061216557607f821691505b60208210810361218557634e487b7160e01b600052602260045260246000fd5b50919050565b601f82111561176557806000526020600020601f840160051c810160208510156121b25750805b601f840160051c820191505b818110156116a657600081556001016121be565b815167ffffffffffffffff8111156121ec576121ec611dd4565b612200816121fa8454612151565b8461218b565b6020601f821160018114612234576000831561221c5750848201515b600019600385901b1c1916600184901b1784556116a6565b600084815260208120601f198516915b828110156122645787850151825560209485019460019092019101612244565b50848210156122825786840151600019600387901b60f8161c191681555b50505050600190811b01905550565b6020815260006122a46020830184611edb565b9392505050565b81516001600160a01b03908116825260208084015182169083015260408084015162ffffff169083015260608084015191821690830152610100820190506080830151608083015260a083015160a083015260c083015160c083015260e083015161232160e08401826001600160a01b03169052565b5092915050565b60006020828403121561233a57600080fd5b5051919050565b60008251612353818460208701611eb7565b9190910192915050565b60006020828403121561236f57600080fd5b815180151581146122a457600080fdfea264697066735822122061137b89fe4c44afe482f5d5d457e35516e3808fcfc5fc262819b2541e29de7d64736f6c634300081c0033",
  "linkReferences": {},
  "deployedLinkReferences": {}
}