{
  "_format": "hh-sol-artifact-1",
  "contractName": "UsernameRegistry",
  "sourceName": "contracts/UsernameRegistry.sol",
  "abi": [
    {
      "inputs": [
        {
          "internalType": "uint256",
          "name": "availableAt",
          "type": "uint256"
        }
      ],
      "name": "CooldownActive",
      "type": "error"
    },
    {
      "inputs": [],
      "name": "InvalidName",
      "type": "error"
    },
    {
      "inputs": [],
      "name": "NameTaken",
      "type": "error"
    },
    {
      "inputs": [],
      "name": "NoName",
      "type": "error"
    },
    {
      "anonymous": false,
      "inputs": [
        {
          "indexed": true,
          "internalType": "address",
          "name": "owner",
          "type": "address"
        },
        {
          "indexed": false,
          "internalType": "string",
          "name": "name",
          "type": "string"
        }
      ],
      "name": "Claimed",
      "type": "event"
    },
    {
      "anonymous": false,
      "inputs": [
        {
          "indexed": true,
          "internalType": "address",
          "name": "owner",
          "type": "address"
        },
        {
          "indexed": false,
          "internalType": "string",
          "name": "name",
          "type": "string"
        }
      ],
      "name": "Released",
      "type": "event"
    },
    {
      "inputs": [
        {
          "internalType": "string",
          "name": "name",
          "type": "string"
        }
      ],
      "name": "available",
      "outputs": [
        {
          "internalType": "bool",
          "name": "",
          "type": "bool"
        }
      ],
      "stateMutability": "view",
      "type": "function"
    },
    {
      "inputs": [
        {
          "internalType": "string",
          "name": "name",
          "type": "string"
        }
      ],
      "name": "claim",
      "outputs": [],
      "stateMutability": "nonpayable",
      "type": "function"
    },
    {
      "inputs": [
        {
          "internalType": "address",
          "name": "user",
          "type": "address"
        }
      ],
      "name": "cooldownEndsAt",
      "outputs": [
        {
          "internalType": "uint256",
          "name": "",
          "type": "uint256"
        }
      ],
      "stateMutability": "view",
      "type": "function"
    },
    {
      "inputs": [
        {
          "internalType": "address",
          "name": "",
          "type": "address"
        }
      ],
      "name": "nameOf",
      "outputs": [
        {
          "internalType": "string",
          "name": "",
          "type": "string"
        }
      ],
      "stateMutability": "view",
      "type": "function"
    },
    {
      "inputs": [
        {
          "internalType": "string",
          "name": "name",
          "type": "string"
        }
      ],
      "name": "ownerOf",
      "outputs": [
        {
          "internalType": "address",
          "name": "",
          "type": "address"
        }
      ],
      "stateMutability": "view",
      "type": "function"
    },
    {
      "inputs": [],
      "name": "release",
      "outputs": [],
      "stateMutability": "nonpayable",
      "type": "function"
    }
  ],
  "bytecode": "0x6080604052348015600f57600080fd5b50610cf58061001f6000396000f3fe608060405234801561001057600080fd5b50600436106100625760003560e01c806316c7f33d1461006757806386d1a69f1461008d578063920ffa2614610097578063aeb8ce9b146100c2578063f3fe12c9146100e5578063f5c57382146100f8575b600080fd5b61007a610075366004610a1e565b610118565b6040519081526020015b60405180910390f35b61009561016b565b005b6100aa6100a5366004610a47565b6102c0565b6040516001600160a01b039091168152602001610084565b6100d56100d0366004610a47565b610328565b6040519015158152602001610084565b6100956100f3366004610a47565b6103e1565b61010b610106366004610a1e565b61070f565b6040516100849190610abb565b6001600160a01b0381166000908152600260205260408120548082036101415750600092915050565b60006101506201518083610b1f565b9050804210156101605780610163565b60005b949350505050565b336000908152602081905260408120805461018590610b32565b80601f01602080910402602001604051908101604052809291908181526020018280546101b190610b32565b80156101fe5780601f106101d3576101008083540402835291602001916101fe565b820191906000526020600020905b8154815290600101906020018083116101e157829003601f168201915b505050505090508051600003610227576040516304c17e3960e31b815260040160405180910390fd5b600060016000610236846107a9565b81526020808201929092526040908101600090812080546001600160a01b0319166001600160a01b03959095169490941790935533835290829052812061027c916109c8565b336001600160a01b03167f320733065ea44b671917ed38e7d36d7ecfcfdbc1a1e2c8a525ffff46c03202a8826040516102b59190610abb565b60405180910390a250565b60006001600061030585858080601f0160208091040260200160405190810160405280939291908181526020018383808284376000920191909152506107a992505050565b81526020810191909152604001600020546001600160a01b031690505b92915050565b600061036983838080601f0160208091040260200160405190810160405280939291908181526020018383808284376000920191909152506107c292505050565b80156103da575060006001600160a01b0316600160006103be86868080601f0160208091040260200160405190810160405280939291908181526020018383808284376000920191909152506107a992505050565b81526020810191909152604001600020546001600160a01b0316145b9392505050565b61042082828080601f0160208091040260200160405190810160405280939291908181526020018383808284376000920191909152506107c292505050565b61043d5760405163430f13b360e01b815260040160405180910390fd5b600061047e83838080601f0160208091040260200160405190810160405280939291908181526020018383808284376000920191909152506107a992505050565b6000818152600160205260409020549091506001600160a01b0316156104b757604051639e4b268560e01b815260040160405180910390fd5b3360009081526002602052604090205480158015906104e157506104de6201518082610b1f565b42105b15610518576104f36201518082610b1f565b60405163c1ab61a160e01b815260040161050f91815260200190565b60405180910390fd5b336000908152602081905260408120805461053290610b32565b80601f016020809104026020016040519081016040528092919081815260200182805461055e90610b32565b80156105ab5780601f10610580576101008083540402835291602001916105ab565b820191906000526020600020905b81548152906001019060200180831161058e57829003601f168201915b5050505050905060008151111561063f576000600160006105cb846107a9565b815260200190815260200160002060006101000a8154816001600160a01b0302191690836001600160a01b03160217905550336001600160a01b03167f320733065ea44b671917ed38e7d36d7ecfcfdbc1a1e2c8a525ffff46c03202a8826040516106369190610abb565b60405180910390a25b600061068086868080601f0160208091040260200160405190810160405280939291908181526020018383808284376000920191909152506108f492505050565b33600090815260208190526040902090915061069c8282610bd1565b50600084815260016020908152604080832080546001600160a01b0319163390811790915580845260029092529182902042905590517f4ef887714b6ae4b4e5b624f78fb37bc493b148ca911452610d6ef8bffc0704e2906106ff908490610abb565b60405180910390a2505050505050565b6000602081905290815260409020805461072890610b32565b80601f016020809104026020016040519081016040528092919081815260200182805461075490610b32565b80156107a15780601f10610776576101008083540402835291602001916107a1565b820191906000526020600020905b81548152906001019060200180831161078457829003601f168201915b505050505081565b60006107b4826108f4565b805190602001209050919050565b8051600090829015806107d6575060208151115b156107e45750600092915050565b60005b81518110156108ea57600082828151811061080457610804610c90565b01602001516001600160f81b03191690506000606160f81b82108015906108395750603d60f91b6001600160f81b0319831611155b8061086b5750604160f81b6001600160f81b031983161080159061086b5750602d60f91b6001600160f81b0319831611155b8061089d5750600360fc1b6001600160f81b031983161080159061089d5750603960f81b6001600160f81b0319831611155b806108b55750602d60f81b6001600160f81b03198316145b806108cd5750605f60f81b6001600160f81b03198316145b9050806108e05750600095945050505050565b50506001016107e7565b5060019392505050565b60608160005b81518110156109c157604160f81b82828151811061091a5761091a610c90565b01602001516001600160f81b0319161080159061095b5750605a60f81b82828151811061094957610949610c90565b01602001516001600160f81b03191611155b156109b95781818151811061097257610972610c90565b602001015160f81c60f81b60f81c602061098c9190610ca6565b60f81b8282815181106109a1576109a1610c90565b60200101906001600160f81b031916908160001a9053505b6001016108fa565b5092915050565b5080546109d490610b32565b6000825580601f106109e4575050565b601f016020900490600052602060002090810190610a029190610a05565b50565b5b80821115610a1a5760008155600101610a06565b5090565b600060208284031215610a3057600080fd5b81356001600160a01b03811681146103da57600080fd5b60008060208385031215610a5a57600080fd5b823567ffffffffffffffff811115610a7157600080fd5b8301601f81018513610a8257600080fd5b803567ffffffffffffffff811115610a9957600080fd5b856020828401011115610aab57600080fd5b6020919091019590945092505050565b602081526000825180602084015260005b81811015610ae95760208186018101516040868401015201610acc565b506000604082850101526040601f19601f83011684010191505092915050565b634e487b7160e01b600052601160045260246000fd5b8082018082111561032257610322610b09565b600181811c90821680610b4657607f821691505b602082108103610b6657634e487b7160e01b600052602260045260246000fd5b50919050565b634e487b7160e01b600052604160045260246000fd5b601f821115610bcc57806000526020600020601f840160051c81016020851015610ba95750805b601f840160051c820191505b81811015610bc95760008155600101610bb5565b50505b505050565b815167ffffffffffffffff811115610beb57610beb610b6c565b610bff81610bf98454610b32565b84610b82565b6020601f821160018114610c335760008315610c1b5750848201515b600019600385901b1c1916600184901b178455610bc9565b600084815260208120601f198516915b82811015610c635787850151825560209485019460019092019101610c43565b5084821015610c815786840151600019600387901b60f8161c191681555b50505050600190811b01905550565b634e487b7160e01b600052603260045260246000fd5b60ff818116838216019081111561032257610322610b0956fea264697066735822122083d7d421bbb62402162ed856fa6c59bbab7114f19952e8b9d235b1720abf31d764736f6c634300081c0033",
  "linkReferences": {},
  "deployedLinkReferences": {}
}